:100000000C9483090C94C7090C94C7090C94C70974
:100010000C94C7090C94C7090C94C7090C94C70920
:100020000C94C7090C94C7090C943E300C94103101
:100030000C948C230C94C7090C94C7090C94C70921
:100040000C94C7090C94C7090C94C7090C94C709F0
:100050000C94C7090C94FF230C94C7090C94C7098E
:100060000C94C7090C94C7090C94C7090C94C709D0
:100070000C94C7090C94C7090C94C7090C94C709C0
:100080000C94C7090C94C7090C94C7090C94C709B0
:100090000C94C7090C94C7090C94C7090C94C709A0
:1000A0000C94C7090C94C7090C94C709510B0D0D8A
:1000B0000D0D0D0D0D0D0D0D0D0D0D0D0D0D610B1E
:1000C0007E0B880BA50B0D0D0D0D0D0D0D0D0D0DE2
:1000D0000D0DAF0BCC0BD60BF30B0D0D0D0D0D0D48
:1000E0000D0D0D0D0D0DFD0B1A0C240C410C0D0DFD
:1000F0000D0D0D0D0D0D0D0D0D0D4B0C680C0D0D99
:100100000D0D0D0D720C7D0C0D0D0D0D0D0D880CD2
:10011000A00CB10CC20CD30C920E980E9C0E9F0E2C
:10012000A30EA70EAB0EAF0EB40EB80EBC0EC00ED3
:10013000C30EC70ECB0ECF0ED30ED80EC918C918DA
:100140000319031942196419D31AD31AAA19D31A15
:10015000511A511AC71AD31AD31ACE1A5E1A5E1A36
:100160005E1A5E1A5E1A5E1A5E1A5E1A5E1A5E1ACF
:100170005E1A5E1A5E1A5E1A5E1A5E1A701A801A8B
:10018000871A8E1A981A671B671B7A1B7A1B701BBB
:100190007A1B7A1B7A1B671B671B761B7A1B7A1BE1
:1001A000761B75319C318A329C318A32E4310732B8
:1001B0008A325D326C320A002530313662003A20D4
:1001C0000025303258000A722F6320303132333428
:1001D00035363738394142434445460A0001E1018A
:1001E000E00119021902E002E10001E00106020645
:1001F00002E00001E101E00119021902E002E10060
:1002000001E0011B021B02E00001E0011C021C02D4
:10021000E00001E0011D021D02E00001E001190201
:100220001902E00001E00106020602E00001E0011F
:1002300019021902E00001E0011B021B02E00001AB
:1002400053025302E1000153025301E100022D0069
:10025000012A012D00021600011600023300012AB6
:1002600001E101330002120001E10112000233003A
:10027000012A013300021200011200023400012A97
:1002800001E101340002040001E101040002340034
:10029000012A013400020400010400022F00012A97
:1002A00001E1012F0002180001E1011800022F00F6
:1002B000012A012F0002180001180002E10001E1EB
:1002C0000013000A30000036001400190006000F69
:1002D00000100005000B000C00080014301E300751
:1002E0000017001500110028300E001D0003803794
:1002F000001B000D000A001C001A0009000000008D
:100300000009580C5101574C492C00284D000000A1
:1003100000000000000000013002572A4B03570084
:10032000000000000001000C30010001000100018C
:1003300000010001000100010001000100010016A0
:100340003020300100010001000100160001000111
:100350000031020100010001000100010001000163
:100360000000000100010001000100010001000186
:100370000001000000000000000000010001000179
:10038000000100000000000000010001000B30012E
:100390000001000100010001000100010001000155
:1003A0000001000100010001000100010001000145
:1003B0000001000100010001000100010001000135
:1003C0000001000100000001000100010001000126
:1003D0000001000100010000000000000000000119
:1003E0000001000100010000000000000001000108
:1003F000000D3001000100010001000100010001B9
:1004000000010001000100010001000100010001E4
:1004100000010001000100010001000100010001D4
:1004200000010001000100010000000100010001C5
:1004300000010001000100010001000000000000B7
:1004400000000001000100010001000000000000A8
:100450000001000100153001000100010001000150
:100460000001000100010001000100010001000184
:100470000001000100010001000100010001000174
:100480000001000100010001000100010000000165
:100490000001000100010001000100010001000055
:1004A0000000000000000001000100010001000048
:1004B00000000000000100010017300100010001F0
:1004C0000001000100010001000100010001000124
:1004D0000001000100010001000100010001000114
:1004E0000001000100010001000100010001000104
:1004F00000000001000100010001000100010001F5
:1005000000010000000000000000000100010001E7
:10051000000100000000000000010001001F300188
:1005200000010001000100010001000100010001C3
:1005300000010001000100010001000100010001B3
:1005400000010001000100010001000100010001A3
:100550000001000100000001000100010001000194
:100560000001000100010000000000000000000187
:100570000001000100010000000000000001000176
:100580000021300100010001000100010001000113
:100590000001000100010001000100010001000153
:1005A0000001000100010001000100010001000143
:1005B0000001000100010001000000010001000134
:1005C0000001000100010001000100000000000026
:1005D0000000000100010001000100000000000017
:1005E00000010001002930010001000100010001AB
:1005F00000010001000100010001000100010001F3
:1006000000010001000100010001000100010001E2
:1006100000010001000100010001000100000001D3
:1006200000010001000100010001000100010000C3
:1006300000000000000000010001000100010000B6
:10064000000000000000574B0052004E002D3056B5
:100650000024002500260055004A00500051004F9C
:10066000004D002700210022002300360049002B06
:100670000032303330343057001E001F0020005449
:100680000000000100010001000100010001000163
:100690000001000000000000000000010001000156
:1006A00000010000000000000000574B0052004E07
:1006B000002E3056005F006000610055004A005077
:1006C0000051004F004D0062005C005D005E00853F
:1006D0000049002B00323033303430570059005A73
:1006E000005B005400000001000100010001000156
:1006F00000010001000100000000000000000001F6
:100700000001000100010000000000000029004B72
:100710000252024E0248004500400041004200E300
:10072000004A02500251024F024D0243003D003E7A
:10073000003F00370049002B00353036303430445C
:10074000003A003B003C000E540000010001000193
:100750000001000100010001000100000000000094
:100760000000000100010001000100000000000085
:1007700000200238020480058006801E02640064A6
:1007800002270223022D1424026414141430022DB3
:100790000225022602380007803100210209800864
:1007A0008030143000220231021F023502000001A5
:1007B0000001000100010001000100010001000032
:1007C0000000000000000001000100010001000025
:1007D00000000000000A800B800C800D800E800F4E
:1007E0008025142614108011802E022E000814007B
:1007F00080188012802414271413803700350014C9
:1008000080168015803014178001801F1420140278
:100810008000000100010001000100010001000151
:1008200000010000000000000000000100010001C4
:1008300000010000000000000001000100010001B3
:1008400000010001000100DA5C010001000100016B
:100850000001000100010001000100010001000190
:10086000000100010001000100DC5C010001000149
:1008700000DB5C010000000100010001000100013B
:100880000001000100010000000000000000000164
:100890000001000100010000000000000009F60155
:1008A00000B4F60100C3F30100192000001E20006F
:1008B000001C2000001D20000022200000AB0000D2
:1008C00000BB00000005210000262000001A2000C7
:1008D0000018200000192000002D260000BC030095
:1008E00000052200002E2E000014200000A20000AF
:1008F00000392000003A20000020260000080300F4
:100900000044454255473A20656E61626C65642E2D
:100910000A000A002530325820006B6579626F6149
:1009200072645F7265706F72743A20000A0025303D
:100930003258006B6579626F6172645F7365745FD2
:100940006C65643A20004F6E6573686F743A20746A
:10095000696D656F75740A0064656C5F6B65795FBE
:100960006269743A2063616E27742064656C3A2072
:10097000253032580A006164645F6B65795F626993
:10098000743A2063616E2774206164643A202530D4
:1009900032580A00290A002575002F002575005DD0
:1009A0002800256400200025640020002564002024
:1009B000002564007C0025303258006D6F7573652A
:1009C0006B6579205B62746E7C7820792076206874
:1009D0005D287265702F61636C293A205B006D6B36
:1009E0005F776865656C5F74696D655F746F5F6D77
:1009F0006178203D2025640A006D6B5F776865652E
:100A00006C5F6D61785F7370656564203D2025645F
:100A10000A006D6B5F74696D655F746F5F6D6178FF
:100A2000203D2025640A006D6B5F6D61785F7370F7
:100A3000656564203D2025640A006D6B5F696E74F6
:100A4000657276616C203D2025640A006D6B5F64E1
:100A5000656C6179203D2025640A006D6B5F7768C5
:100A600065656C5F74696D655F746F5F6D6178203B
:100A70003D2025640A006D6B5F776865656C5F6D6E
:100A800061785F7370656564203D2025640A006DA0
:100A90006B5F74696D655F746F5F6D6178203D2079
:100AA00025640A006D6B5F6D61785F7370656564C6
:100AB000203D2025640A006D6B5F696E7465727657
:100AC000616C203D2025640A006D6B5F64656C617C
:100AD00079203D2025640A000A00257500363A2059
:100AE000776865656C5F74696D655F746F5F6D6174
:100AF000783A20000A00257500353A207768656548
:100B00006C5F6D61785F73706565643A20000A0000
:100B1000257500343A2074696D655F746F5F6D618F
:100B2000783A20000A00257500333A206D61785F1D
:100B300073706565643A20000A00257500323A201A
:100B4000696E74657276616C286D73293A20000AAB
:100B500000257500313A2064656C6179282A3130AE
:100B60006D73293A20000A092D2056616C75657352
:100B7000202D0A004D3E004D25643E20003F0073AD
:100B800065742064656661756C740A00433E2000DC
:100B900077686572652064656C74613A206375726C
:100BA000736F723D25642C20776865656C3D256404
:100BB0000A53656520687474703A2F2F656E2E771E
:100BC000696B6970656469612E6F72672F77696BF5
:100BD000692F4D6F7573655F6B6579730A000A093C
:100BE0002D204D6F7573656B6579202D0A45534334
:100BF0002F713A09717569740A313A0964656C613B
:100C000079282A31306D73290A323A09696E746580
:100C10007276616C286D73290A333A096D61785FC9
:100C200073706565640A343A0974696D655F746F41
:100C30005F6D61780A353A09776865656C5F6D614B
:100C4000785F73706565640A363A09776865656C24
:100C50005F74696D655F746F5F6D61780A0A703AE1
:100C6000097072696E742076616C7565730A643AF6
:100C7000097365742064656661756C74730A7570B8
:100C80003A092B310A646F776E3A092D310A706781
:100C900075703A092B31300A7067646F776E3A09C4
:100CA0002D31300A0A7370656564203D2064656CDF
:100CB0007461202A206D61785F7370656564202AF5
:100CC0002028726570656174202F2074696D655FDE
:100CD000746F5F6D6178290A003F004D3E2000432C
:100CE0003E20004C25640A0074696D65725F726570
:100CF0006164333228293A202530346C580A006B5D
:100D000065796D61705F636F6E6669672E6E6B7279
:100D10006F3A2025580A006B6579626F6172645FD3
:100D200069646C653A2025580A006B6579626F61C9
:100D300072645F70726F746F636F6C3A2025580A2B
:100D400000686F73745F6B6579626F6172645F6C6A
:100D500065647328293A2025580A000A092D205372
:100D60007461747573202D0A004743433A20342E72
:100D7000382E31204156522D4C4942433A20312ED3
:100D8000382E3073766E204156525F415243483AB6
:100D900020617672350A004F5054494F4E533A2025
:100DA0004C554641204D4F5553454B4559204558CC
:100DB0005452414B455920434F4E534F4C452043CD
:100DC0004F4D4D414E44204E4B524F20343039361A
:100DD0000A004255494C443A2022302E362E332DFB
:100DE00035322D676636323463642D6469727479E6
:100DF00022202831383A35393A3038204170722073
:100E000031392032303138290A005649443A2030ED
:100E1000784645454428556E6B6E6F776E29205095
:100E200049443A20307836303630286B6973736223
:100E30006F61726429205645523A20307830303044
:100E4000310A00444553433A203432206B657973AC
:100E500020737472616967687420636F6C732074A7
:100E600068756D626B65797320646961637269741A
:100E7000696361206B65790A000A092D2056657245
:100E800073696F6E202D0A000A092D20436F6E735F
:100E90006F6C65202D0A4553432F713A09717569AE
:100EA000740A6D3A096D6F7573656B65790A000A8E
:100EB000092D204D61676963202D0A443A09446574
:100EC000627567204D65737361676520546F67674E
:100ED0006C650A583A094D617472697820446562FC
:100EE0007567204D6F646520546F67676C65202DB2
:100EF0002053686F77206B657970726573736573C3
:100F000020696E206D617472697820677269640A65
:100F10004B3A094B6579626F617264204465627572
:100F20006720546F67676C65202D2053686F7720AA
:100F30006B65797072657373207265706F72740A75
:100F40004D3A094465627567204D6F75736520548D
:100F50006F67676C650A563A0956657273696F6EFA
:100F60000A533A095374617475730A433A09416329
:100F700074697661746520436F6E736F6C65204D84
:100F80006F64650A46312D4631303A0953776974EA
:100F9000636820746F204C6179657220302D392090
:100FA00028463130203D204C30290A302D393A096D
:100FB00053776974636820746F204C61796572207F
:100FC000302D390A4553433A0953776974636820D1
:100FD000746F204C6179657220302028616C7465D3
:100FE000726E617465206B65792031290A47524120
:100FF00056453A0953776974636820746F204C61D1
:1010000079657220302028616C7465726E61746538
:10101000206B65792032290A50415553453A094AD7
:10102000756D7020746F20426F6F746C6F616465B2
:101030007220285265736574290A4E3A094E4B5244
:101040004F20546F67676C650A003F004E4B524F4C
:101050003A206F66660A004E4B524F3A206F6E0A76
:10106000000A6D6F7573653A206F66660A000A6D37
:101070006F7573653A206F6E0A000A6B6579626F4F
:101080006172643A206F66660A000A6B6579626F66
:101090006172643A206F6E0A000A6D617472697839
:1010A0003A206F66660A000A6D61747269783A20A8
:1010B0006F6E0A000A64656275673A206F66660A99
:1010C000000A64656275673A206F6E0A000A0A4A70
:1010D000756D70696E6720746F20626F6F746C6FCE
:1010E000616465722E2E2E2000433E20005B735DEE
:1010F000004B6579626F6172642073746172742E43
:101100000A005B575D005B535D005B525D005B4412
:101110005D005B435D0004033000000014036B00BE
:1011200069007300730062006F0061007200640068
:101130000000100355006E006B006E006F0077001A
:101140006E0000000403090409028D00050100A0DF
:10115000FA09040000010301010009211101000145
:101160002240000705810308000A09040100010369
:10117000010200092111010001224D00070582032F
:1011800008000A09040200010300000009211101FE
:1011900000012236000705830308000A0904030042
:1011A00002030000000921110100012222000705AD
:1011B0008403200001070504032000010904040042
:1011C0000103000000092111010001223900070577
:1011D00085032000011201100100000008EDFE60EF
:1011E0006001000102030105010906A101050719BB
:1011F000E029E71500250195087501810205081908
:101200000129059505750191029501750391010567
:1012100007190029F71500250195F875018102C00D
:101220000631FF0974A1010975150026FF009520FC
:10123000750881020976150026FF00952075089132
:1012400002C005010980A1018502160100260300E4
:101250001A81002A8300751095018100C0050C09D0
:1012600001A1018503160100269C021A01002A9C97
:1012700002751095018100C005010902A101090153
:10128000A10005091901290515002501950575011C
:10129000810295017503810105010930093115812C
:1012A000257F95027508810609381581257F9501EE
:1012B00075088106050C0A38021581257F95017590
:1012C000088106C0C005010906A101050719E0292A
:1012D000E7150025019508750181029501750881C2
:1012E00001050819012905950575019102950175FA
:1012F0000391010507190029FF150026FF00950637
:1013000075088100C00011241FBECFEFDAE0DEBFF8
:10131000CDBF04B603FE24C08091A5029091A60221
:10132000A091A702B091A8028730904BA740B04B84
:10133000B9F41092A5021092A6021092A702109280
:10134000A80214BE84B7877F84BF88E10FB6F894E3
:1013500080936000109260000FBEE0E0F8E3099512
:1013600011E0A0E0B1E0E2E6F6E602C005900D92E1
:10137000A839B107D9F722E0A8E9B1E001C01D9270
:10138000A53AB207E1F70E945E2D0C942F330C941E
:101390000000FF93EF93E0919801F091990130974D
:1013A00009F00995EF91FF910895FC018591803036
:1013B00011F0EFDFFBCF0895FF27E0E230E247FFB7
:1013C0000CC0419597FF09C0EDE26095709580953E
:1013D0009095611D711D811D911D27FF02C02195F2
:1013E00030E350E2AA27660F771F881F991FAA1FB4
:1013F000A41710F0A41B63955A95A9F7AA3008F01A
:10140000A95FA05DAF93F395611571058105910505
:1014100041F7ED3211F4EF93F395F21718F43F937F
:10142000F395FBCF8F91B5DFFA95E1F70895E99138
:10143000F9918591803021F0853219F0AADFF9CF3A
:10144000089520E0E89455915532C1F3503311F4DA
:10145000689455915A3348F4505390F3220F022E5A
:10146000220F220F200D250FF4CF0EF42195899124
:101470009991533619F3533729F1533559F1BC017A
:1014800088279927E8945C3621F48991999168948A
:101490005591543639F446EF7EF077FF0DC08FEF4B
:1014A0009FEF0AC055374AE039F0583540E121F046
:1014B000523642E009F00895FF93EF937DDFEF91FC
:1014C000FF91B7CFFF93EF93FC0181918030B9F387
:1014D00060DFFBCFFF93EF9368DFF1CFDF93CF9314
:1014E000CDB7DEB72596A3DFCF91DF9108950C9499
:1014F000960FCF93DF93CDB7DEB72B970FB6F89447
:10150000DEBF0FBECDBF1092CC001092CD0088E19F
:101510008093C90086E08093CA0083E78093CE0061
:10152000FE0131968BE0DF011D928A95E9F79E015D
:10153000245F3F4F80E090E0DC014091C80047FD10
:1015400009C00196A11DB11D813147E29407A10593
:10155000B10598F34091CE004193E217F30769F784
:101560008B85803EB9F4FE0132966AE971E0808194
:10157000A0E28A9FC0011124AF0141505109DA0154
:101580004C91842BDB018D939D93BD013296E21724
:10159000F30769F70E94980F81E02B960FB6F89435
:1015A000DEBF0FBECDBFDF91CF910895E82FF0E0F1
:1015B000EE0FFF1FE656FE4F808191810895CF9276
:1015C000DF92EF92FF920F931F93CF93DF9386ECFE
:1015D00091E00E94D5092AE9E22E21E0F22EC0E036
:1015E000D0E031ECC32E31E0D32E08EB11E0DF93D5
:1015F000CF93DF92CF920E946E0A8EEB91E00E9411
:10160000D509F701819191917F010E944B229F930F
:101610008F931F930F930E946E0A86EB91E00E94B6
:10162000D50921968DB79EB708960FB6F8949EBF40
:101630000FBE8DBFC530D105D1F6DF91CF911F917F
:101640000F91FF90EF90DF90CF9008951092CC0013
:101650001092CD0088E18093C90086E08093CA0093
:101660000895519A599A80B3806380BB81B3806397
:1016700081BB08950E941F0D0E94260B0C94310B14
:101680000C94270D0895DC01462F50E0415051097C
:101690004633510508F0C1C14A5A5F4FFA010C9414
:1016A000DF3212968C91882331F081E00E94C51FB1
:1016B0008EEB92E0089581E00E94E01F8BEB92E0B8
:1016C000089512968C91882309F47DC188E00E94C8
:1016D000E01F86E00E94E01F87E00E94E01F84E098
:1016E0000E94E01F85E00E94E01F83E00E94E01F4F
:1016F00082E00E94C51F88EB92E0089512968C91BB
:10170000811164C182E00E94E01F8DEA92E0089599
:1017100012968C91882309F45CC188E00E94E01F36
:1017200086E00E94E01F87E00E94E01F84E00E94A4
:10173000E01F85E00E94E01F82E00E94E01F83E03E
:101740000E94C51F88EA92E0089512968C9181113B
:1017500043C183E00E94E01F8BE992E00895129656
:101760008C91882309F43BC188E00E94E01F86E049
:101770000E94E01F87E00E94E01F85E00E94E01FBA
:1017800082E00E94E01F83E00E94E01F84E00E944C
:10179000C51F88E992E0089512968C91811122C1AB
:1017A00084E00E94E01F8DE892E0089512968C91EB
:1017B000882309F41AC188E00E94E01F86E00E9495
:1017C000E01F87E00E94E01F84E00E94E01F82E0AB
:1017D0000E94E01F83E00E94E01F85E00E94C51F79
:1017E00088E892E0089512968C91811101C185E0FC
:1017F0000E94E01F8BE792E0089512968C91882357
:1018000009F4F9C088E00E94E01F87E00E94E01F11
:1018100084E00E94E01F85E00E94E01F82E00E94B9
:10182000E01F83E00E94E01F86E00E94C51F88E75A
:1018300092E0089512968C918111E0C086E00E949A
:10184000E01F8DE692E0089512968C91882309F4AA
:10185000D8C088E00E94E01F86E00E94E01F84E07C
:101860000E94E01F85E00E94E01F82E00E94E01FCE
:1018700083E00E94E01F87E00E94C51F88E692E097
:10188000089512968C918111BFC087E00E94E01FDD
:101890008BE592E0089512968C91882309F4B7C0E5
:1018A00086E00E94E01F87E00E94E01F84E00E9423
:1018B000E01F85E00E94E01F82E00E94E01F83E0BD
:1018C0000E94E01F88E00E94C51F88E592E008950D
:1018D00012968C9181119EC088E00E94E01F8DE4D9
:1018E00092E0089512968C91882309F496C08AE0BC
:1018F0000E94C51F86E492E0089512968C91882379
:1019000009F48BC08AE00E94E01F8FE392E0089503
:1019100012968C91882339F00E94BE239093A501E2
:101920008093A4017AC08091A4019091A5010E94A6
:10193000D6238B3F910508F473C086E392E00895A7
:1019400012968C918111E8CF8091A4019091A5010C
:101950000E94D6238B3F910508F465C084E292E093
:10196000089512968C918111D7CF8091A401909106
:10197000A5010E94D6238B3F910508F457C082E150
:1019800092E0089512968C918111C6CF8091A401A6
:101990009091A5010E94D6238B3F910508F449C080
:1019A00080E092E0089512968C918111B5CF8091DC
:1019B000A4019091A5010E94D6238B3F9105E0F1EF
:1019C0008AEE91E0089585EB92E0089580EB92E035
:1019D000089585EA92E008958EE992E0089585E9F8
:1019E00092E0089580E992E0089585E892E00895F4
:1019F0008EE792E0089585E792E0089580E792E00F
:101A0000089585E692E008958EE592E0089585E5D3
:101A100092E0089580E592E0089580E090E00895D6
:101A20008DE292E008958BE192E0089589E092E0E2
:101A3000089583EF91E008958DED91E0089581E0A0
:101A40000E94261360E070E0CB010C946A1F089599
:101A50008B3D2CE5920749F08C3D2CE5920739F03F
:101A60008A3D9C4561F481E003C084E001C080E0D0
:101A70000E9426138EE00E94E01F80E0089581E01E
:101A800008950F931F93CF93DF938C01EB019A95E9
:101A900081159F4138F510FF03C080EEFB010995C9
:101AA00011FF03C081EEFE01099512FF03C082EE13
:101AB000FE01099513FF03C083EEFE010995011590
:101AC000104180F084EEFE01099585EEFE01099536
:101AD00086EEFE01099587EEFE01DF91CF911F9101
:101AE0000F910994DF91CF911F910F910895877005
:101AF00091E001C0990F8A95EAF7892F0E94BA21D7
:101B00000C94EA21877091E001C0990F8A95EAF759
:101B1000892F0E94BA210C94EA21877091E001C0BC
:101B2000990F8A95EAF7892F0E94C0210C94EA2127
:101B3000877091E001C0990F8A95EAF7892F0E947A
:101B4000C0210C94EA21CF93DF93EC01805E9109D0
:101B5000089710F0209719F462E87DE002C067E76B
:101B60007DE0CE010E94410D8C2FDF91CF910C942E
:101B70000917CF93DF93EC010E941818CE01805E05
:101B80009109089710F0209719F468E97DE002C0E8
:101B90006DE87DE0CE01DF91CF910C94410D81E0A5
:101BA00008950C94280D0E94551B2FEF84E39CE0B0
:101BB000215080409040E1F700C0000087E797E7A0
:101BC00090930108809300080C942524FF920F93B2
:101BD0001F93CF93DF938C01FC01C081D181809151
:101BE000CF01811113C08281882349F0CE010E9468
:101BF000AB20F82E682FCE010E94512004C0CE01E8
:101C00000E947F20F82EBE018F2D04C0CE010E94BD
:101C1000AB20BE010E94AD0FEC01B8010E9474140C
:101C2000B801CE010E94D10D882309F478C1B80112
:101C3000CE010E94B514882309F471C1B801CE0108
:101C40000E940E12882309F46AC1B801CE010E94D5
:101C5000A912882309F463C1C531FCE5DF0729F522
:101C60000E94A421382FF801228180916101909176
:101C70006201222371F03A7A21E009F420E02093F6
:101C8000A601222311F065E301C069E20E9424232A
:101C900009C02091A601222311F065E301C069E289
:101CA0000E942F230E94EA213AC1C6318CE5D80751
:101CB00008F0A8C0C130ECE5DE0779F4F8018281B4
:101CC000882309F42CC180915C02816080935C02BE
:101CD00081E099E00E94D50922C1C230FCE5DF070E
:101CE00008F478C0F8018281882309F47BC00E943F
:101CF0007F22811102C00E9465220E94922290E000
:101D00009093970280939602FE01E350FC45E231E6
:101D1000F10520F4E457FF4F0C94DF3280919602D6
:101D2000816003C0809196028260809396024BC0CE
:101D3000809196028460F9CF8091960213C08091C1
:101D400096028061F2CF809196028062EECF809100
:101D500096028064EACF809196028068E6CF8091F7
:101D6000960284608860E1CF809196028E7FDDCFFD
:101D7000809196028D7FD9CF809196028B7FD5CFAF
:101D80008091960213C0809196028F7ECECF809173
:101D900096028F7DCACF809196028F7BC6CF8091AD
:101DA00096028F77C2CF809196028B7F877FBDCFBF
:101DB0009091960297FB882780F921E0822780FB8B
:101DC00097F990939602809196020E9496220E9423
:101DD000551BA5C0C115DC4569F081E08093AB01BE
:101DE0008093AC01C801DF91CF911F910F91FF90BB
:101DF0000C94CF0DF8018281882309F490C00E94D1
:101E0000D30D8DC0CD3CECE5DE0759F5F80182819C
:101E1000882361F01092AC010E94BE239093AA0126
:101E20008093A90180E20E94791879C08091AC0169
:101E3000882321F080E20E94801871C08091A9015E
:101E40009091AA010E94D6238A3F910598F780E2DB
:101E50000E94801888E20E94091788E20E941818E0
:101E60005EC0CE3CFCE5DF0708F044C0CB3C8CE50F
:101E7000D80719F5F8018281882351F01092AB013F
:101E80000E94BE239093A8018093A70182E0CBCF4C
:101E90008091AB0181110FC08091A7019091A801A1
:101EA0000E94D6238A3F910530F486E20E940917EA
:101EB00086E20E94181882E0BECFCC3CDC4509F0D7
:101EC0008CCFF80182818111A5CF8091AC01811165
:101ED000B1CF8091A9019091AA010E94D6238A3F97
:101EE000910508F0A7CF87E20E94091787E20E94B8
:101EF0001818A0CFC03DFCE5DF0731F4F80182815E
:101F0000882369F080E009C0C13DDC4509F065CF58
:101F1000F8018281882319F082E00E94042E80E07B
:101F2000DF91CF911F910F91FF9008950C943A0B80
:101F30000E940C150C94400B282F2F7041F0822F1B
:101F400090E02A3010F44D9608950697089587E2A0
:101F500090E008950C94420B08959AE0799FF00167
:101F6000112492E3899FE00DF11D1124E60FF11D6C
:101F7000EE0FFF1FEF53FD4F859194910895880F49
:101F8000991F8F539D4FFC01859194910895CF9394
:101F9000DF930E94AD0F0E946E11EC01811520E5C8
:101FA000920708F040C0811530E4930708F01BC188
:101FB000883E910508F5803E910508F08BC1883A6E
:101FC000910578F4853A910508F09DC0813091051E
:101FD00009F480C108F437C18430910508F07AC152
:101FE00032C18D3B910508F499C0803C910508F4FD
:101FF0002AC1805C9109E9C0C11580E2D80758F474
:10200000C11591E0D90708F065C1C03FD10508F4BA
:102010001AC1D0655FC1C11520E3D20708F0D9C04D
:10202000CE019F70D2C0811535E5930708F043C0FB
:10203000C11584E5D80708F0EDC0C11592E5D907B0
:1020400008F5C11521E5D20708F0D0C02C2F237068
:1020500081E090E002C0880F991F2A95E2F79C6802
:102060009E01E4E036952795EA95E1F72370922BDF
:10207000CF70C695C69530E2C39FE0011124C82BEE
:10208000D92B28C18C2F869586959E0123703327E6
:10209000C115D34508F0AFC090E2899FE00111243B
:1020A00081E090E002C0880F991F2A95E2F7C82BC3
:1020B000D92BDC680FC1811529E5920780F48115C1
:1020C00038E5930708F0ABC0C11586E5D80708F0DE
:1020D000BAC0CF71DD27DC2FCC27D062FBC0C11581
:1020E0009AE5D90708F4A0C0CE0190568115904218
:1020F00008F0A9C08D2F8F710E94EA11DD27D062F0
:102100008F71D82BE7C0853A910509F49FC0863AB4
:10211000910509F49EC0C3E8D0E4DCC0883A91057B
:1021200009F49AC0893A910509F499C08A3A91054F
:1021300009F498C08B3A910509F497C08C3A91053F
:1021400009F496C08B3B910509F495C08C3B910531
:1021500009F494C08D3A910509F493C0803B910530
:1021600009F492C08E3A910509F491C08F3A910515
:1021700009F490C0813B910509F48FC0823B910521
:1021800009F48EC0833B910509F48DC0843B910511
:1021900009F48CC0853B910509F48BC0863B910501
:1021A00009F48AC0873B910509F489C0883B9105F1
:1021B00009F488C0893B910509F487C08A3B9105E1
:1021C00009F086C0CAE2D6E485C00E94BF0FEC01C8
:1021D00081C0CE019927D3FF03C0EC01D86C7AC02F
:1021E000EC01D06C77C0DF70D06A74C0DC2FCC27D4
:1021F000C16FD06A6FC090E2899FE001112481E035
:1022000090E002C0880F991F2A95E2F7C82BD92BBE
:10221000DA6860C0DC2FCC27C46FD06A5BC0D82FCF
:10222000CC27C06FD06A56C08C2F8F70806E90E024
:10223000906A34E0D695C7953A95E1F7CF709C0146
:102240003C2BE90147C0C0E0D0E044C0C1E8D0E485
:1022500041C0C2E8D0E43EC0C2EED4E43BC0C9EE07
:10226000D4E438C0CAEED4E435C0C5EBD4E432C0FF
:10227000C6EBD4E42FC0C3EBD4E42CC0C4EBD4E44D
:1022800029C0C7EBD4E426C0CCECD4E423C0CDEC09
:10229000D4E420C0C3E8D5E41DC0CAE8D5E41AC020
:1022A000C2E9D5E417C0C4E9D5E414C0C1E2D6E45C
:1022B00011C0C3E2D6E40EC0C4E2D6E40BC0C5E24E
:1022C000D6E408C0C6E2D6E405C0C7E2D6E402C040
:1022D000C0E0D4E4CE01DF91CF910895823891051A
:1022E00049F1B0F48133910509F459C048F48932B9
:1022F000910509F44FC08A32910509F455C008953B
:102300008533910509F441C08933910599F0089509
:10231000833E910531F138F4803E910591F0823E83
:102320009105A9F00895863E910501F1873E91053A
:1023300039F108952091960220FD3BC021FD39C05E
:1023400008958091960280FF34C089E341C0809156
:10235000960282FF32C08091960284FF2CC080E0FA
:1023600037C08091960282FD28C0F5CF80919602F9
:1023700083FF25C08091960284FDF1CF87EE28C0AF
:102380008091960283FD1BC0F5CF8091960285FF58
:1023900018C019C08091960285FF15C012C08091A7
:1023A000960286FF12C013C08091960286FF0FC06E
:1023B0000CC080EE0DC083EE0BC082EE09C086EE2D
:1023C00007C085E305C089E203C081E301C08AE25A
:1023D00090E008959091960292FF0DC0282F2871E9
:1023E000283019F4877F846006C0282F2471243098
:1023F00011F48B7F886093FF0DC0282F287128313E
:1024000019F4877E846106C0282F2471243111F4C9
:102410008B7E886194FD877E08950895CF93DF9326
:10242000EC01FB018281811102C081E040C08091FA
:10243000BA01811125C0C631DC45B9F70E940D12E1
:1024400081E08093BA010E94BE239093B9018093EA
:10245000B8011092AD011092AF011092AE0110922E
:10246000B1011092B0011092B3011092B20110921A
:10247000B5011092B4011092B7011092B60116C0C6
:102480008091B8019091B9010E94D623883C9105B2
:1024900060F68091AD01E82FF0E0EE0FFF1FE255EE
:1024A000FE4FD183C0838F5F8093AD0180E0DF91C9
:1024B000CF910895AF92BF92CF92DF92EF92FF92A9
:1024C0000F931F93CF93DF936B017C010CE110E01E
:1024D000C7E0D0E0BB24B394C430D1050CF4B12CD8
:1024E000D701C601002E04C0B695A795979587958C
:1024F0000A94D2F7282F2F70A22E69F4B11016C0BB
:1025000080E00E949C0F0E94091780E00E949C0FAF
:102510000E9418180BC0822F0E949C0F0E9409175E
:102520008A2D0E949C0F0E941818B12C21970450EC
:102530001109CF3F8FEFD80779F6DF91CF911F9127
:102540000F91FF90EF90DF90CF90BF90AF900895E4
:102550000895CF92DF92EF92FF92CF93DF9300D056
:1025600000D0CDB7DEB77C016B010E942D13282F60
:10257000F7FE60C0F6018281882309F45BC0F70191
:10258000EE0FFF1FEE0FFF1FE356F74F659175919A
:10259000859194916B017C01F1E0EF1AF108C1146F
:1025A000D10430E1E306F10408F5222311F02530CF
:1025B00041F50E943013C701B60166277C7F8F70FA
:1025C00099272AE096958795779567952A95D1F76B
:1025D00078528F4F9F4F0E945A12C701B6017370F5
:1025E0008827992774528F4F9F4F20C0611571051E
:1025F000E1E18E07910528F0222359F0253039F4C6
:1026000008C061157105F0E18F07910528F02130B0
:1026100019F40E94A8120EC069837A838B839C836D
:102620000E94301369817A818B819C810E945A12A9
:102630000E94A81381E00F900F900F900F90DF91F0
:10264000CF91FF90EF90DF90CF9008958093BB01E2
:10265000682F8CE090E00C9407338091BB010895C3
:10266000E0916101F0916201808180938F0281FF8E
:1026700003C081EE0E94181880918F0285FF03C06D
:1026800085EE0E94181880918F0280FF03C080EEB3
:102690000E94181880918F0284FF03C084EE0E946C
:1026A000181880918F0282FF03C082EE0E941818D2
:1026B00080918F0286FF03C086EE0E9418188091D9
:1026C0008F0283FF03C083EE0E94181880918F024F
:1026D00087FF03C087EE0E9418188091BB018230EB
:1026E00011F128F4882341F0813061F0089584309D
:1026F00011F1853019F0089582EE01C086EE0E9436
:102700000917089580EE0E94091781EE0E940917AB
:1027100088E10E94091788E10E94181881EE0E9442
:10272000181880EE12C082EE0E94091787E50E94F9
:10273000091787E50AC086EE0E94091786EE0E94F7
:10274000181888E10E94091788E10E941818089556
:102750008091BB01813049F030F0823021F085302A
:1027600051F486EE06C082EE04C08CE20E94091786
:102770008CE20E94181880918F0281FF03C081EEC5
:102780000E94091780918F0285FF03C085EE0E9489
:10279000091780918F0280FF03C080EE0E94091705
:1027A00080918F0284FF03C084EE0E9409178091FC
:1027B0008F0282FF03C082EE0E94091780918F0270
:1027C00086FF03C086EE0E94091780918F0283FF67
:1027D00003C083EE0E94091780918F0287FF03C018
:1027E00087EE0C9409170895CF93DF93EC018F8542
:1027F000811115C081E08F878F810E94A721888574
:102800000E94BA210E94EA21EA81FB816A897B89C0
:10281000CE010696309719F0DF91CF910994DF91A0
:10282000CF910895CF93DF93EC018881823039F402
:10283000FB01828193810E94A30D81E08987DF9152
:10284000CF910895FC018081813021F4FB018081CA
:10285000918105C0823029F4FB01828193810C941F
:10286000A30D0895FC018081813021F4FB0180815A
:10287000918105C0823029F4FB01828193810C94FF
:10288000B90D08950F931F93CF93DF938C01FC0133
:102890008085811124C083819481975524E1289FEC
:1028A000E001299FD00D1124C050DF4FEC81FD8144
:1028B0006A897B89CE010696309709F009958F8148
:1028C0000E94AD2188850E94C0210E94EA21F80162
:1028D0001082178211861092BD011092BC01DF9107
:1028E000CF911F910F910895DF92EF92FF920F9376
:1028F0001F93CF93DF937C01FB018281882369F1D1
:10290000809160018F3F49F1C6E0D1E000E010E026
:10291000DD24D39480916001992787FD90958017DD
:102920009107DCF0CE0106972881222391F02B81BC
:102930003C81E216F30639F42091BC013091BD01CF
:10294000E216F30631F0DF820E94F413CE010E94FA
:1029500042140F5F1F4F6496DDCFDF91CF911F911F
:102960000F91FF90EF90DF900895FF920F931F93C8
:10297000CF93DF938C019C0137552F3F310511F028
:1029800008F043C080916001992787FD90958217D8
:10299000930714F42093600184E1829FE001839FF8
:1029A000D00D1124C050DF4FFB0182818E879281B0
:1029B0008E81992309F11A8709878F5F8E830E9480
:1029C000BE239C878B870E9431228F830E94A42183
:1029D000F82E88870E94B7218F298887E881F9819E
:1029E0006A897B89CE010696309709F00995109384
:1029F000BD010093BC0109C0882339F08F8588236D
:102A000021F0CE0106960E94421481E0DF91CF9121
:102A10001F910F91FF900895EF92FF920F931F93D4
:102A2000CF93DF93809160018F3F71F1F12C84E1AE
:102A3000E82E8F2D90E020916001332727FD3095FF
:102A4000281739070CF1E89EE001E99ED00D11240A
:102A5000C050DF4F088919890115110511F40AEFDB
:102A600010E08E81882371F08B859C850E94D6238F
:102A70000817190738F4CE010E94F413CE01069608
:102A80000E944214F394D5CFDF91CF911F910F9103
:102A9000FF90EF9008959093C3018093C201089531
:102AA000E091C201F091C301309721F00190F081D3
:102AB000E02D099480E00895FF920F931F93CF9328
:102AC000DF938C01E091C201F091C301309799F13D
:102AD0000280F381E02D099580915C0282FF2BC07A
:102AE00080FF04C08AE199E00E94D509E80180E2F4
:102AF000F82E04E119E080915C0280FF0BC0888110
:102B00001F928F931F930F930E946E0A0F900F9046
:102B10000F900F90FA942196F110EDCF80915C0206
:102B200080FF09C082E199E0DF91CF911F910F9161
:102B3000FF900C94D509DF91CF911F910F91FF90D9
:102B40000895E091C201F091C301309721F0048013
:102B5000F581E02D099408952091C0013091C101C3
:102B60008217930771F09093C1018093C001E091A7
:102B7000C201F091C301309721F00680F781E02D6A
:102B8000099408952091BE013091BF0182179307E7
:102B900071F09093BF018093BE01E091C201F0916A
:102BA000C301309721F00084F185E02D0994089548
:102BB00008950C94D81581E008950E94B5230E94D1
:102BC000770A0C943724CF93C82F80915C0282FF40
:102BD0001EC080FF04C083E399E00E94D509809164
:102BE0005C0280FF0CC01F92CF932EE239E03F932E
:102BF0002F930E946E0A0F900F900F900F9080916C
:102C00005C0280FF04C08CE299E00E94D5098C2F01
:102C1000CF910C94AA0F5F926F927F928F929F92A6
:102C2000AF92BF92CF92DF92EF92FF920F931F93DA
:102C3000CF93DF93CDB7DEB72A970FB6F894DEBFF8
:102C40000FBECDBF0E94790A0E94DB15811111C011
:102C50008FEF89838A831B820E94BE238160782F35
:102C60009D838C8349815A816B818D810E94C91615
:102C700057C095ECC92E91E0D92E00E010E0AA24AF
:102C8000A394B12C502E802F0E94D60A3C01F6014D
:102C9000E190F1906F01E826F926E114F10431F496
:102CA0000F5F1F4F0530110569F7D2CF80915C028D
:102CB00081FD0E94DF0A20E030E04501022E02C0C3
:102CC000880C991C0A94E2F7C4018E219F21892B5C
:102CD00009F12E835F826820792081E0672809F45A
:102CE00080E088870E94BE238160782F9A87898739
:102CF0004E815F8168858A850E94C916F801EE0FB2
:102D0000FF1FEB53FE4F8081918188259925918388
:102D1000808306C02F5F3F4F2A30310571F6C0CF48
:102D20000E944B261091C4010E9450151817D9F02B
:102D30000E9450158093C4012A960FB6F894DEBF06
:102D40000FBECDBFDF91CF911F910F91FF90EF90FC
:102D5000DF90CF90BF90AF909F908F907F906F90BB
:102D60005F900C94E3152A960FB6F894DEBF0FBE61
:102D7000CDBFDF91CF911F910F91FF90EF90DF902A
:102D8000CF90BF90AF909F908F907F906F905F900B
:102D90000895CF93DF93CDB7DEB72B970FB6F89496
:102DA000DEBF0FBECDBF4F83588769877A878B8779
:102DB000DE01119686E0FD0111928A95E9F785E022
:102DC000FE01379601900D928A95E1F70E94462107
:102DD000882319F082E00E9482210E94192181112A
:102DE0000E94E32149815A816B817C818D819E8182
:102DF0000E942F1E2B960FB6F894DEBF0FBECDBFDC
:102E0000DF91CF910895FC01808191810E94EB2098
:102E10000895CF93DF931F92CDB7DEB7682F882335
:102E200009F402C18238C1F40E94501581FDFCC032
:102E300069E380916101909162010E9424230E94C4
:102E4000EA212FEF81EE94E0215080409040E1F79D
:102E500000C0000069E319C0833811F50E945015C5
:102E600080FDE2C063E580916101909162010E9462
:102E700024230E94EA21EFEFF1EE24E0E150F0403C
:102E80002040E1F700C0000063E58091610190916E
:102E900062010E942F230F90DF91CF910C94EA21C1
:102EA0008438C1F40E94501582FDBEC067E4809151
:102EB0006101909162010E9424230E94EA218FEF18
:102EC00091EEE4E081509040E040E1F700C0000066
:102ED00067E4DBCF8CEF860F813A70F4862F69832D
:102EE0000E948729698181119FC080916101909121
:102EF00062010E942423CFCF80E2860F883048F4FD
:102F0000677081E001C0880F6A95EAF70E94A721E7
:102F1000C2CF8BE5860F833088F4653A29F0663A94
:102F200031F482E890E005C081E890E002C083E8D7
:102F300090E00F90DF91CF910C94AC1588E5860F4F
:102F4000853108F071C0683A61F1693A69F16A3A0D
:102F500071F16B3A79F16C3A81F16B3B89F16C3B21
:102F600091F16D3A99F1603BA1F16E3AA9F16F3A96
:102F7000B1F1613BB9F1623BC1F1633BC9F1643B23
:102F8000D1F1653BD9F1663BE1F1673BE9F1683B83
:102F9000F1F1693BF9F16A3B09F03FC08AE292E046
:102FA0003EC082EE90E03BC089EE90E038C08AEEF1
:102FB00090E035C085EB90E032C086EB90E02FC00A
:102FC00083EB90E02CC084EB90E029C087EB90E08D
:102FD00026C08CEC90E023C08DEC90E020C083E80C
:102FE00091E01DC08AE891E01AC082E991E017C023
:102FF00084E991E014C081E292E011C083E292E0A2
:103000000EC084E292E00BC085E292E008C086E246
:1030100092E005C087E292E002C080E090E00F906D
:10302000DF91CF910C94C2150F90DF91CF9108954D
:10303000882309F45DC0823879F40E94501581FF1D
:1030400057C069E380916101909162010E9424233D
:103050000E94EA2169E310C08338B1F40E94501540
:1030600080FF46C063E580916101909162010E94FA
:1030700024230E94EA2163E580916101909162011D
:103080000E942F230C94EA21843879F40E94501571
:1030900082FF2EC067E480916101909162010E94DD
:1030A00024230E94EA2167E4E7CF9CEF980F913A2E
:1030B00010F4682FE1CF90E2980F983050F48770A9
:1030C00091E001C0990F8A95EAF7892F0E94AD21FE
:1030D000D9CF9BE5980F933020F480E090E00C94DA
:1030E000AC15885A853120F480E090E00C94C2152C
:1030F0000895882321F00E94A7210C94EA210895C5
:10310000882321F00E94AD210C94EA2108958F922A
:103110009F92BF92CF92DF92EF92FF920F931F93F5
:10312000CF93DF9300D0CDB7DEB74C01472FFC0122
:10313000C580C2949FE0C922D280DD2031F079831E
:103140006A830E94C7216A81498149836A830E94F8
:103150009D2149816A81882389F0DD2079F080E210
:10316000860F883058F082E00E9482210E949D21C3
:10317000BB24B394B82649816A8101C0B12CE42EE6
:10318000E2948FE0E822F12CF701E256FF4F0C9415
:10319000DF32842F807F142F1F70882311F0129547
:1031A000107FDD20C1F0112309F4DCC180E2860F1D
:1031B000883010F0611105C0812F6A830E94A72119
:1031C00004C0812F6A830E94BA216A816A830E94A7
:1031D000EA216A81C7C1862F6A830E9418186A8112
:1031E000112309F4E0C180E2860F883010F06111EC
:1031F00004C0812F0E94AD2103C0812F0E94C021F5
:103200000E94EA21D0C1242F207F842F8F7020328A
:1032100011F08295807F662319F06130B9F022C0E9
:10322000DD2049F0CC2009F452C1F1E0CF124FC1AA
:103230000E94DA21B8C1CC2021F021E0C21609F4A5
:10324000B2C189830E94E321898147C1DD2029F031
:1032500092E09C1508F4A7C13AC1E1E0EC1508F42E
:10326000A2C13BC1DD2051F0CC2009F430C1F401F2
:10327000958190FF77C19F70958329C1CC2009F477
:103280002CC181C1242F26952695237030E021156D
:10329000310521F02130310561F085C1DD2021F0BB
:1032A000862F942F937002C080E090E00E94AC15AE
:1032B0008AC1DD2021F0862F942F937002C080E018
:1032C00090E00E94C2157FC1DD20F9F0653F51F00A
:1032D000663F71F0643FA9F4809190029091910251
:1032E00081600BC08091900290919102826005C034
:1032F00080919002909191028460909391028093CA
:103300009002862F0E94D12422C0653F51F0663F73
:1033100091F0643FC9F480919002909191028E7F68
:1033200005C080919002909191028D7F90939102BF
:103330008093900209C020919002309191022B7FDE
:103340003093910220939002862F0E9439250E948B
:10335000BE2539C1842F837009F04EC0D1102FC112
:10336000262F229526952770220F220F862F8F70E9
:10337000C82ED12CE12CF12C022E04C0CC0CDD1C6B
:10338000EE1CFF1C0A94D2F764FF10C06FE070E0DF
:1033900080E090E004C0660F771F881F991F2A9570
:1033A000D2F7609570958095909503C060E070E0CD
:1033B000CB01242F26952695237030E0223031054D
:1033C00069F02330310589F06C297D298E299F29E8
:1033D0002130310571F00E947E1FF1C06C297D29DA
:1033E0008E299F290E94901FEAC00E947E1FC7015C
:1033F000B6010E946C1FE3C0DD2019F0842F81709C
:1034000001C08695882309F4DAC0262F22952695D7
:103410002770220F220F862F8F70C82ED12CE12CFF
:10342000F12C022E04C0CC0CDD1CEE1CFF1C0A94F7
:10343000D2F764FF10C06FE070E080E090E004C05D
:10344000660F771F881F991F2A95D2F76095709590
:103450008095909503C060E070E0CB01242F269505
:103460002695237030E02230310569F02330310594
:1034700089F06C297D298E299F292130310571F031
:103480000E942C209CC06C297D298E299F290E9496
:103490003E2095C00E942C20C701B6010E941A2030
:1034A0008EC0062F10E0F801E05EF109E531F1056C
:1034B00008F054C0E255FF4F0C94DF32162F1F70F6
:1034C000842F8F71DD2031F00E94C51F812F0E9453
:1034D000791869C00E94E01F812F0E94801863C084
:1034E000DD2049F0F1E0FC1508F45DC0842F8F71F8
:1034F0000E94FF1F58C022E02C1508F454C0F6CFDC
:10350000DD2039F0842F8F710E94C51F4CC0DD2053
:10351000C9F3842F8F710E94E01F45C0DD2029F080
:10352000842F8F710E94B61F3EC00E94B11F3BC006
:10353000DD2051F0142F1F71812F0E94C51F63E001
:10354000812F0E9472212FC081E00E94822181E0A0
:103550008C1548F582E00E94822125C0DD2031F0E3
:10356000CC2081F2862F0E9409171DC0CC2089F241
:10357000693349F49FEFE7EEF3E09150E040F0400B
:10358000E1F700C00000862F0E9418180CC04F7091
:10359000C4010E94430B0E94DC1E15C04F70C40181
:1035A0000E94AC0F10C028E0E216F10441F05CF07C
:1035B0009AE0E91AF108E2E0EE16F10420F40E9424
:1035C00050150E94AA0FBB20F1F00E94422180FDFD
:1035D0001AC0F40112820E943C210E94C51FC4013E
:1035E0000E94111B0E943C210F900F90DF91CF9100
:1035F0001F910F91FF90EF90DF90CF90BF909F9021
:103600008F900C94E01F0F900F90DF91CF911F913E
:103610000F91FF90EF90DF90CF90BF909F908F9091
:1036200008950F931F93CF93DF93EC012881398185
:103630008B819C81892B31F03F3F11F080E003C0EA
:103640002F3FE1F781E0811113C0CE010E94E60D0A
:10365000882371F0688179818A810E94F6208C012B
:103660000E9450200E94691FB801CE010E94871855
:10367000DF91CF911F910F9108950E94C7210E9461
:10368000D72180916101909162010E943A230E94AA
:10369000EA210E94D4260E94BE2580E090E00E948C
:1036A000AC1580E090E00C94C2150E94B4210C94FB
:1036B0003D1B0E94EB20E92FE295EF70F0E032977E
:1036C000EE30F105B8F4ED53FF4F0C94DF32803F3C
:1036D00059F018F4803E70F407C0843F59F404C0D8
:1036E000803E10F0813F31F481E0089593FB8827FC
:1036F00080F9089580E00895CF93DF9300D000D043
:103700001F92CDB7DEB70F900F900F900F900F90D4
:10371000DF91CF910895CF93DF9300D000D000D0F8
:10372000CDB7DEB726960FB6F894DEBF0FBECDBF7D
:10373000DF91CF9108951F93CF93DF93C091D00174
:1037400016E08091D101C81799F0D0E01C9FF001DC
:103750001D9FF00D1124EE52FE4F40815181628178
:103760007381848195810E948B1B2196C770E9CF5C
:10377000DF91CF911F910895409102025091030271
:1037800060910402709105028091060290910702F7
:103790000C948B1BCF938091070282958F7009F058
:1037A0005FC080910402882309F45AC02091D0019F
:1037B000A091D101609102027091030280910502F3
:1037C0009091060231E06F3F09F030E0B32FC6E080
:1037D0002A1709F445C0009721F07F3F21F44B2FB1
:1037E00003C041E001C040E030E040FD35C0C29F71
:1037F000F001C39FF00D1124EE52FE4F418174136E
:103800002BC04081641328C04281411125C04381EF
:1038100054814817590710F441505109481B590B5E
:103820004A3F5105C8F4809107028F7080618093F0
:10383000070286E0829FF001839FF00D1124E95278
:10384000FE4F80818F708061808382E092E00E94D1
:10385000111BCF910C949B1B2F5F3F4F2770B8CF4C
:10386000CF910895CF92DF92EF92FF920F931F9323
:10387000CF93DF93CDB7DEB762970FB6F894DEBF74
:103880000FBECDBF8C0185E0F801DE011D960190D1
:103890000D928A95E1F7D8014C9111965C911197A0
:1038A00012966C9112971396ED90FC90149770916C
:1038B0000202E091030220910502309106022115D7
:1038C000310531F0EF3F31F481E07F3F19F403C05F
:1038D00081E001C080E0B82FB170CB2E80FD6BC1BC
:1038E000D0900402DD2009F4F5C0F0910702E21641
:1038F000F30638F0C701821B930B8A3F910548F00D
:103900009DC0209530952E0D3F1D2A3F310508F0B2
:1039100095C08F2F807F09F052C0E51314C0741337
:1039200012C0D62E61110FC0FF70F061F093070234
:103930000E94BC1B82E092E00E94111B8091070252
:10394000F80185837CC1EF2831F05F3F31F481E0DD
:103950004F3F19F403C081E001C080E080FD03C047
:1039600081E0862701C080E0F82FF170FF2E80FFF4
:103970001CC08091D0012091D10136E0821709F45A
:1039800038C190E0389FF001399FF00D1124EE52BC
:10399000FE4F7181571306C07081471303C07281B7
:1039A000671303C001968770E9CFD62E662309F40A
:1039B00046C18091070281608093070255C0E513DC
:1039C00008C0741306C0611104C0D8011596FC9399
:1039D000AEC04D875E878D859E856A8B0E94591B80
:1039E0006A89882329F1D62E662311F120910702D6
:1039F000822F82958F7090E002970CF462C08091C4
:103A000002029091030298878F831986FB86EA86CB
:103A10002C87CE01079653C0E51741F14D875E878D
:103A20008D859E856A8B0E94591B6A89811130C0E1
:103A3000C8010E94111BDD24D39401C18F2F807F08
:103A400059F77E2DF98AE88A89890E947C1B82E0D9
:103A500092E00E94111BE2E0F2E086E0DF011D929D
:103A60008A95E9F70E94BC1BD12CE9C07413D6CF0C
:103A70006111D4CFD8011596FC93C8010E94111B87
:103A8000E2E0F2E086E0DF011D928A95E9F7D7C017
:103A9000D62E662369F220910702822F82958F70BD
:103AA00090E0029774F080910202909103029A8351
:103AB00089831B82FD82EC822E83CE0101960E94B7
:103AC000111B86E0F801A2E0B2E001900D928A9508
:103AD000E1F78AC0E216F30628F0C701821B930BB8
:103AE0009C0104C0209530952E0D3F1D2A3F3105C5
:103AF00008F053C0D62E662309F49ACFE5132CC0E4
:103B000074132AC08091070280FD1DC0982F9295E2
:103B10009F70C9F0D80115968C9315979F3039F096
:103B20009F5F9295907F8F70892B15968C93C8011B
:103B30000E94111B86E0F801A2E0B2E001900D9214
:103B40008A95E1F753C086E0F801A2E0B2E0019067
:103B50000D928A95E1F773C04D875E878D859E85AE
:103B60000E94591B882381F096E0F801A2E0B2E0A0
:103B700001900D929A95E1F78A8B0E94CA1B0E94D0
:103B8000BC1B8A89D82E5BC080910702816080931C
:103B90000702C8010E94111B52C07E2DF98AE88AD3
:103BA00089890E947C1BE2E0F2E086E0DF011D9241
:103BB0008A95E9F71BC0662309F43ACF4D875E87E3
:103BC0008D859E850E94591BD82E882309F430CFFD
:103BD00086E0F801A2E0B2E001900D928A95E1F74B
:103BE00082E092E00E9403170E94CA1B0E94BC1B45
:103BF00026C04D875E878D859E850E94EB20292FEC
:103C000022952F7030E0223031052CF49F7041F066
:103C1000811106C00CC0243031052CF49F7049F48A
:103C2000805E883020F0C8010E94111BCF2CDC2C54
:103C300006C0D80115969C91907F91F7F8CF8D2DF5
:103C400062960FB6F894DEBF0FBECDBFDF91CF9165
:103C50001F910F91FF90EF90DF90CF9008951F93E9
:103C6000CF93DF93CDB7DEB72C970FB6F894DEBFB6
:103C70000FBECDBF4F83588769877A878B879C8714
:103C8000CE0107960E94321C8823C1F02F8138850F
:103C90008A859B85892B31F03F3F11F080E003C07E
:103CA0002F3FE1F781E0811147C04F815885698539
:103CB0007A858B859C850E948B1B3EC086E0FE0129
:103CC0003796DE01119601900D928A95E1F7FF81FA
:103CD000E8854A855B854115510531F0EF3F31F4A8
:103CE00081E0FF3F19F403C081E001C080E080FD66
:103CF00023C02091D10130E0C90101968770992736
:103D00006091D00170E086179707F1F1F983EA839B
:103D10005D834C8396E0929FD001939FB00D112458
:103D2000AE52BE4FFE01319601900D929A95E1F789
:103D30008093D1010E949B1B16E08091D00190914D
:103D4000D101891779F1189FC00111248E529E4F1D
:103D50000E94321C882331F1E091D0011E9FF001B6
:103D60001124EE52FE4F4081518162817381848122
:103D700095810E948B1B8091D00190E00196877005
:103D800099278093D001D9CF0E94551B1092D10161
:103D90001092D001E2E0F2E086E0DF011D928A9508
:103DA000E9F7CACF2C960FB6F894DEBF0FBECDBF91
:103DB000DF91CF911F910895EF92FF920F931F9380
:103DC000CF93DF93FC01009709F46FC0F12CEE2430
:103DD000E394EF0121968491843740F4843008F015
:103DE00055C0813081F0823021F15FC0853709F400
:103DF00047C0C0F19CE7980F903708F056C08F7706
:103E00000E94181845C08F010E5F1F4FFE0184915C
:103E100090E2980F983050F48770FE2D01C0FF0F8C
:103E20008A95EAF78F2F0E94CA2115C00E940917B0
:103E300014C08F010E5F1F4FFE01849190E2980F16
:103E4000983068F48770FE2D01C0FF0F8A95EAF75D
:103E50008F2F0E94D0210E94EA21E80119C00E9400
:103E60001818FBCFCF010296FE01C491CC2361F05C
:103E7000EFE9FFE03197F1F700C00000C150F6CF45
:103E8000CF010296FE01F490EC0102C00E940917D6
:103E90008F2D882341F0EFE9FFE03197F1F700C063
:103EA00000008150F6CFFE0194CFDF91CF911F919A
:103EB0000F91FF90EF90089508950E945C1F60930A
:103EC0002F027093300280933102909332020C944F
:103ED0003D1B08950C945D1F0F931F9300912F02BB
:103EE000109130022091310230913202602B712BFF
:103EF000822B932B1F910F910C945D1F0F931F9397
:103F000000912F0210913002209131023091320243
:103F100060237123822393231F910F910C945D1FC3
:103F20000F931F9300912F021091300220913102C4
:103F30003091320260277127822793271F910F91BA
:103F40000C945D1F08950C94A21F0E94A31F609300
:103F50002B0270932C0280932D0290932E020C94CE
:103F60003D1B60E070E0CB010C94A51F41E050E0E8
:103F700060E070E004C0440F551F661F771F8A95EC
:103F8000D2F7CB01BA010C94A51F41E050E060E0EC
:103F900070E004C0440F551F661F771F8A95D2F743
:103FA00080912B0290912C02A0912D02B0912E02B3
:103FB000482B592B6A2B7B2BCB01BA010C94A51FE4
:103FC00041E050E060E070E004C0440F551F661F00
:103FD000771F8A95D2F7409550956095709580919E
:103FE0002B0290912C02A0912D02B0912E02482319
:103FF00059236A237B23CB01BA010C94A51F41E00E
:1040000050E060E070E004C0440F551F661F771F4A
:104010008A95D2F780912B0290912C02A0912D02CB
:10402000B0912E02482759276A277B27CB01BA0176
:104030000C94A51F0F931F9300912B0210912C023B
:1040400020912D0230912E02602B712B822B932B0D
:104050001F910F910C94A51F0F931F9300912B029A
:1040600010912C0220912D0230912E026023712399
:10407000822393231F910F910C94A51F0F931F93DD
:1040800000912B0210912C0220912D0230912E02D2
:1040900060277127822793271F910F910C94A51FEA
:1040A00008952AE0929F800D1124482F4695469549
:1040B00046958770B1E001C0BB0F8A95EAF785E0AD
:1040C000489FA0011124485F5D4F80E090E070E0C0
:1040D000FA01E80FF91FA0819B01082E02C0369556
:1040E00027950A94E2F72170332721952A272B235D
:1040F0002A27208301968530910551F708952AE0FB
:10410000929F800D1124682F669566956695982F6D
:10411000977085E0689FB0011124685F7D4F40E093
:1041200050E080E0FB01E40FF51F208130E0092E14
:1041300002C0369527950A94E2F721703327042EA2
:1041400001C0220F0A94EAF7822B4F5F5F4F453080
:10415000510541F70895CF92DF92EF92FF920F93AE
:104160001F93CF93DF93EC01C0902F02D0903002C9
:10417000E0903102F090320280912B0290912C025B
:10418000A0912D02B0912E02C82AD92AEA2AFB2A30
:104190000FE110E0B701A601002E04C076956795E7
:1041A000579547950A94D2F740FD05C00150110973
:1041B00088F780E007C0BE01802F0E94C70F0197DB
:1041C000A9F3802FDF91CF911F910F91FF90EF9076
:1041D000DF90CF900895CF93DF93EC010E94AB2046
:1041E000BE010E94C70FDF91CF9108951F93CF9317
:1041F000DF93EB019091CF01992321F0CB010E9435
:10420000EB2013C0882349F0CB010E94AB20182F6C
:10421000682FCE010E94512004C0CB010E947F2054
:10422000182FBE01812F0E94C70FDF91CF911F91E0
:1042300008950E94BE2320913602309137028217E2
:10424000930750F00E94BE2320913602309137022E
:10425000821B930B9C010AC00E94BE232091360250
:104260003091370220953095280F391F81E0243F87
:10427000314008F480E00895809135028595859558
:104280008595089580913502877008950E94BE2318
:1042900020913302309134028217930768F00E9414
:1042A000BE232091330230913402821B930B843F52
:1042B000914078F480E014C00E94BE232091330224
:1042C0003091340220953095280F391F243F31401A
:1042D00088F38091350282FB882780F991E0892755
:1042E0008170089598E0899F90011124622B60935A
:1042F00035020E94C51F0E94BE2390933402809312
:1043000033020895409135028095842380933502CD
:10431000982F977089F450E0282F332727FD309588
:104320004217530749F08595859585950E94E01FB2
:1043300010923402109233020895909135029770D2
:1043400081E009F480E0089580915B0208959091E6
:104350005B02982B90935B020895809590915B028D
:10436000982390935B02089510925B0208958091C8
:104370005A02089590915A02982B90935A020895E8
:10438000809590915A02982390935A020895109222
:104390005A02089590915902982B909359020895CA
:1043A0008095909159029823909359020895109204
:1043B00059020895809338020E94BE2390933702D9
:1043C00080933602089510923802109237021092AC
:1043D00036020895E0916101F091620180915B02E3
:1043E0008083E0916101F0916201808190915A0295
:1043F000892B8083E0916101F0916201808190912D
:104400005902892B808380913802882321F10E94F0
:104410001921882371F080915C0280FF08C086E436
:1044200099E09F938F930E946E0A0F900F900E94C5
:10443000E321E0916101F091620180819091380265
:10444000892B808380916101909162010E949B225F
:1044500081110E94E32180916101909162010C948D
:104460005C1580913802089590939901809398018A
:1044700008958295982F9C7C96959695837344E039
:10448000849F90011124922B892F8A7A86959575A5
:10449000990F892B08951F93CF93DF931F92CDB768
:1044A000DEB799830E943922182F9981892F0E94A3
:1044B0003922212F30E0322F2227A901482BCA01AF
:1044C0000F90DF91CF911F9108956DEE7EEF80E008
:1044D00090E00E94193360E082E090E00E94073390
:1044E00060E083E090E00E94073360E084E090E0C9
:1044F0000E94073360E085E090E00C94073380E091
:1045000090E00E94013321E08D3E9E4F09F020E0B3
:10451000822F089582E090E00C94F93283E090E0DD
:104520000C94F93284E090E00C94F932682F84E026
:1045300090E00C94073320E030E040E0FC01E20F13
:10454000F31F518151114F5F2F5F3F4F2F313105C5
:10455000A9F7842F089520E030E04FEFFC01E20F2F
:10456000F31F5281561799F04F3F19F4511101C0B2
:10457000422F2F5F3F4F2E31310581F74F3F39F0EA
:10458000FC01E40FF11D47FDFA956283089508953B
:1045900020E030E0FC01E20FF31F4281461301C02E
:1045A00012822F5F3F4F2E313105A1F70895262F3C
:1045B0002695269526952F3178F4FC01E20FF11D02
:1045C000677021E030E0062E01C0220F0A94EAF75E
:1045D0008181822B8183089580915C0280FF0CC0D1
:1045E0001F926F9386E799E09F938F930E946E0AC4
:1045F0000F900F900F900F900895262F26952695D7
:1046000026952F3180F4FC01E20FF11D677021E047
:1046100030E0062E01C0220F0A94EAF7209581812E
:1046200028232183089580915C0280FF0CC01F9293
:104630006F9388E599E09F938F930E946E0A0F9085
:104640000F900F900F90089520917301222329F06D
:104650002091960227FD0C94D7220C94AB22209136
:104660007301222329F02091960227FD0C94FD224C
:104670000C94C82220E030E0FC01E20FF31F11820D
:104680002F5F3F4F2F313105B9F7089580919C027C
:10469000843021F110925D0220E488E190E00FB6B1
:1046A000F894A895809360000FBE2093600080E08E
:1046B0000E94AA0F83B7817F846083BF83B7816024
:1046C00083BF7894889583B78E7F83BF88E10FB6C8
:1046D000F89480936000109260000FBE08950895D2
:1046E0000895CF930E946F230E94790A0E9470233D
:1046F000C0E08C2F0E94D60A892B29F4CF5FC530E9
:10470000C1F780E001C081E0CF9108950E94551B60
:104710000E9450150C94AA0F1F920F920FB60F9281
:1047200011248F939F93AF93BF9380915D0281116A
:1047300013C08091920290919302A0919402B09143
:1047400095024196A11DB11D809392029093930210
:10475000A0939402B0939502BF91AF919F918F91D6
:104760000F900FBE0F901F90189582E084BD93E0CC
:1047700095BD9AEF97BD80936E0008952FB7F8947A
:104780008091920290919302A0919402B09195022F
:104790002FBF08952FB7F894609192027091930201
:1047A00080919402909195022FBF0895CF92DF924D
:1047B000EF92FF920F931F932FB7F89440919202BC
:1047C0005091930260919402709195022FBF6A01FB
:1047D0007B01EE24FF248C0120E030E0C016D106DE
:1047E000E206F30610F441505109481B590BCA0167
:1047F0001F910F91FF90EF90DF90CF9008957894E4
:104800001F920F920FB60F9211248F939F93AF9325
:10481000BF938091920290919302A0919402B091E3
:1048200095020196A11DB11D80939202909393026F
:10483000A0939402B0939502BF91AF919F918F91F5
:104840000F900FBE0F901F90189587E797E79093F2
:104850000108809300082AE088E190E00FB6F89400
:10486000A895809360000FBE20936000FFCF0E9448
:104870007F22811102C00E9465220E948A228093B9
:104880005C020E94922290E090939702809396029D
:104890000E948E22682F70E080E090E00C946A1FE6
:1048A0008091600280FF0BC06091660185E0689F87
:1048B000B001112475956795759567952AC081FF9C
:1048C00009C06091660185E0689FB001112475956B
:1048D00067951FC082FF07C06091660185E0689FF1
:1048E000B001112416C0409161024423C9F06091C7
:1048F0006501461788F72091660185E0289F9001A1
:104900001124429FC001439F900D112470E00E942A
:10491000CB326038710540F46115710539F002C081
:1049200065E070E0862F08958FE7089581E008958F
:104930008091600280FF08C06091640170E075950D
:1049400067957595679521C081FF06C060916401E8
:1049500070E07595679519C082FF04C0609164018D
:1049600070E010C0809161028823C1F06091630102
:104970008617A0F790916401989FC001112470E000
:104980000E94CB326038710528F46115710521F061
:10499000862F08958FE7089581E0089561E070E023
:1049A000F4CF803F21F40E945024819504C0813FC0
:1049B00029F40E945024809364020895823F21F4D8
:1049C0000E945024819504C0833F29F40E94502402
:1049D000809363020895893F19F40E94982405C0CA
:1049E0008A3F31F40E94982481958093650208954E
:1049F0008B3F21F40E949824819504C08C3F29F4B8
:104A00000E949824809366020895843F21F4809147
:104A10006202816017C0853F21F48091620282604A
:104A200011C0863F21F48091620284600BC0873FF1
:104A300021F480916202886005C0883F31F4809142
:104A4000620280618093620208958D3F21F480911B
:104A5000600281600BC08E3F21F480916002826011
:104A600005C08F3F29F480916002846080936002CA
:104A70000895803F39F48091640287FF6CC01092E2
:104A8000640269C0813F29F4809164021816BCF366
:104A900062C090916302823F29F497FF5CC010923C
:104AA000630259C0833F19F41916CCF354C0893FEF
:104AB00041F48091650218160CF04DC01092650209
:104AC0004AC08A3F29F48091650287FF44C0F6CF2F
:104AD0008B3F39F48091660287FF3DC010926602D9
:104AE0003AC08C3F29F4809166021816BCF333C09B
:104AF000843F21F4809162028E7F17C0853F21F4AC
:104B0000809162028D7F11C0863F21F48091620204
:104B10008B7F0BC0873F21F480916202877F05C0A5
:104B2000883F31F4809162028F7E8093620213C0CD
:104B30008D3F21F4809160028E7F0BC08E3F21F467
:104B4000809160028D7F05C08F3F29F480916002C3
:104B50008B7F809360028091630281110EC08091EF
:104B6000640281110AC080916502811106C08091A2
:104B70006602811102C010926102089580915C0268
:104B800083FF7EC08BEB99E00E94D5098091620281
:104B90001F928F9386EB99E09F938F930E946E0AEA
:104BA00084EB99E00E94D50920916302822F992716
:104BB00087FD90959F932F9381EB99E09F938F931F
:104BC0000E946E0A8FEA99E00E94D5092091640242
:104BD000822F992787FD90959F932F938CEA99E0D8
:104BE0009F938F930E946E0A8AEA99E00E94D509EA
:104BF00020916502822F992787FD90959F932F938F
:104C000087EA99E09F938F930E946E0A85EA99E064
:104C10000E94D50920916602822F992787FD9095E1
:104C20009F932F9382EA99E09F938F930E946E0A3D
:104C30008FE999E00E94D509809161021F928F93BC
:104C40008CE999E09F938F930E946E0A8AE999E01C
:104C50000E94D509809160021F928F9387E999E0A5
:104C60009F938F930E946E0A84E999E00E94D50970
:104C70008DB79EB74C960FB6F8949EBF0FBE8DBFF2
:104C800082E692E00E94A1150E94BE2390935F02EB
:104C900080935E0208951F93CF93DF9380915E020D
:104CA00090915F020E94D62340916102442321F03B
:104CB0002091670130E006C0209168015AE0259FED
:104CC000900111248217930708F46AC0809163024F
:104CD00010916402D0916502C0916602811107C0F3
:104CE000111105C0D11103C0CC2309F459C04F3FA5
:104CF00019F04F5F40936102181624F40E9450246B
:104D0000809363028091630287FF05C00E94502454
:104D1000819580936302111624F40E94502480939D
:104D200064028091640287FF05C00E94502481952F
:104D30008093640220916302222379F040916402FF
:104D4000442359F055EB250390011124309363025D
:104D50004503C0011124909364021D1624F40E949F
:104D60009824809365028091650287FF05C00E94A8
:104D700098248195809365021C1624F40E9498243F
:104D8000809366028091660287FF05C00E94982486
:104D9000819580936602DF91CF911F910C94BE257F
:104DA000DF91CF911F910895E2E6F2E085E0DF0107
:104DB0001D928A95E9F7109261021092600208959F
:104DC0008EED9BE00E94D5091F9281E08F931F9288
:104DD00085E08F9380E99BE09F938F930E946E0AFA
:104DE0000F900F900F900F900F900F9008958330B9
:104DF000E9F128F4813061F0823009F108958530BD
:104E000009F462C008F449C0863009F474C00895FA
:104E100020916801862F90E0820F911D8F3F9105B0
:104E200020F4620F6093680103C08FEF80936801E4
:104E3000809168011F928F9389EC9AE072C0209153
:104E40006701862F90E0820F911D8F3F910520F41E
:104E5000620F6093670103C08FEF809367018091B9
:104E600067011F928F9387EB9AE05BC020916601E8
:104E7000862F90E0820F911D8F3F910520F4620FE5
:104E80006093660103C08FEF809366018091660195
:104E90001F928F9384EA9AE044C020916501862F87
:104EA00090E0820F911D8F3F910520F4620F609377
:104EB000650103C08FEF80936501809165011F92AA
:104EC0008F938FE89AE02DC020916401862F90E0A7
:104ED000820F911D8F3F910520F4620F6093640152
:104EE00003C08FEF80936401809164011F928F93C0
:104EF00086E79AE016C020916301862F90E0820F2A
:104F0000911D8F3F910520F4620F6093630103C0F0
:104F10008FEF80936301809163011F928F938BE5E4
:104F20009AE09F938F930E946E0A0F900F900F90BC
:104F30000F900895833081F128F4813059F0823048
:104F4000D1F00895853009F449C0B8F1863009F4EC
:104F500056C0089580916801681720F4861B8093DD
:104F6000680102C010926801809168011F928F93BE
:104F70008CE49AE054C080916701681720F4861B86
:104F80008093670102C010926701809167011F92B0
:104F90008F938AE39AE043C080916601681720F4FA
:104FA000861B8093660102C01092660180916601A3
:104FB0001F928F9387E29AE032C080916501681753
:104FC00020F4861B8093650102C0109265018091D8
:104FD00065011F928F9382E19AE021C08091640164
:104FE000681720F4861B8093640102C0109264014C
:104FF000809164011F928F9389EF99E010C0809196
:105000006301681720F4861B8093630102C010922D
:105010006301809163011F928F938EED99E09F93BE
:105020008F930E946E0A0F900F900F900F9008952B
:10503000CF93C82F1F928F9323EE3CE03F932F9383
:105040000E946E0A61E070E080E090E004C0660FAC
:10505000771F881F991FCA95D2F70E946A1F0F9069
:105060000F900F900F90CF910C94551BCF938732D8
:10507000A8F58E3108F02EC1803109F49DC0F8F4F6
:10508000873009F465C0A8F4863009F029C1809101
:105090005C02817F8E7F80935C0288E89EE00E94A4
:1050A000D50989EE90E10E94D50981E080936802DC
:1050B0004DC08B30F1F18E3009F46BC011C18631D7
:1050C00009F4ADC020F4813109F4EDC009C1893182
:1050D00009F48EC08B3109F449C002C1883349F10B
:1050E00050F4893209F4F8C0853309F4F5C08732E9
:1050F00009F4F2C0F5C0833409F4EEC028F48A3311
:1051000008F4EEC08953E9C0883409F0E9C00E9470
:10511000551B8DEC90E10E94D5092FEF83ED90E3B4
:10512000215080409040E1F700C000000E942524FB
:105130000DC08FEA9EE059C084EB90E10E94D50932
:1051400080915C02897F877F80935C02C1E0CDC043
:1051500080915C02C82FC095C170C0FB80F980931C
:105160005C02CC2349F381EC90E1AEC080915C02FB
:1051700081FBCC27C0F991E0C927C0FB81F980935E
:105180005C02CC2319F087EA90E125C089E990E11F
:105190002CC080915C0282FBCC27C0F991E0C9272A
:1051A000C0FB82F980935C02CC2319F08AE890E17D
:1051B00012C08AE790E119C080915C0283FBCC2782
:1051C000C0F991E0C927C0FB83F980935C02CC232E
:1051D00051F08EE690E10E94D50980915C028160D9
:1051E00080935C0282C081E690E10E94D509AECF37
:1051F00089E79EE00E94D50983E49EE00E94D509DC
:105200008AE09EE00E94D50982ED9DE00E94D509CA
:1052100087E99DE00E94D50989E69DE0E6CF8BE510
:105220009DE00E94D5090E9450151F928F9381E442
:105230009DE09F938F930E946E0A809173011F924D
:105240008F938AE29DE09F938F930E946E0A8091D4
:105250008D021F928F9387E19DE09F938F930E9411
:105260006E0A8091960287FB882780F91F928F93A0
:105270008FEF9CE09F938F930E946E0A0E94CA2337
:105280009F938F937F936F9388EE9CE09F938F9370
:105290000E946E0A8DB79EB746960FB6F8949EBFD1
:1052A0000FBE8DBF53CF0E94551B8091960287FB86
:1052B000CC27C0F991E0C927C0FB87F980939602FB
:1052C000CC2329F087E590E10E94D5090EC08CE43B
:1052D00090E18BCF8D5101C080E00E94182836CF1D
:1052E0008AE490E10E94D509C0E08C2FCF91089507
:1052F00080E0089580E008958E518A3030F4E82FE0
:10530000F0E0EC58FE4F8081089580E00895CF933F
:10531000C82F80916802813071F020F0823009F44A
:1053200048C03CC1E0916101F0916201808182320C
:1053300009F036C107C0E0916101F09162018081FE
:10534000823249F48C2F0E94782981112FC08C2F32
:105350000E9436282CC08C2F0E947A29811126C0E9
:10536000C431E1F070F4CB3081F0C031D1F40E944F
:10537000E0268BED9CE00E94D50982E080936802D4
:1053800015C0C93259F0C83361F488E89EE00E9424
:10539000D5098FED9CE00E94D50908C010926802E3
:1053A00001C189ED9CE00E94D509FCC081E08170BB
:1053B000FBC0C43228F5CE3108F0C1C0CB30A1F11A
:1053C000D0F4C73009F0D0C08EE18093680182E349
:1053D000809367018AE08093660184E18093650190
:1053E00088E08093640188E2809363018FE79BE00B
:1053F0000E94D509BCC0C33149F1C431C1F0B4C069
:10540000CB3409F4A6C028F4C93289F0C83361F05E
:10541000ABC0C13509F49BC0C23509F496C0CE3487
:1054200009F0A2C06AE09BC00E94E026A0C0809163
:105430006702882319F01092670299C08CE89BE0FC
:105440000E94D50981E080936802AEC086E69BE0A9
:105450000E94D50984E59BE00E94D50980916801EE
:105460001F928F9381E59BE09F938F930E946E0A1A
:105470008FE49BE00E94D5098DE39BE00E94D50953
:10548000809167011F928F938AE39BE09F938F9394
:105490000E946E0A88E39BE00E94D50989E29BE0A6
:1054A0000E94D509809166011F928F9386E29BE04E
:1054B0009F938F930E946E0A84E29BE00E94D5091D
:1054C00083E19BE00E94D509809165011F928F9333
:1054D00080E19BE09F938F930E946E0A8EE09BE099
:1054E0000E94D50989EF9AE00E94D5098091640154
:1054F0001F928F9386EF9AE09F938F930E946E0A7C
:1055000084EF9AE00E94D5098DED9AE00E94D509BA
:10551000809163011F928F938AED9AE09F938F93FE
:105520000E946E0A88ED9AE00E94D5098DB79EB759
:1055300048960FB6F8949EBF0FBE8DBF18C08C2F33
:105540000E947C298093670212C061E003C061E081
:1055500006C06AE0809167020E94F72608C0809129
:1055600067020E949A2703C08DE79BE013C08091D9
:105570006702882369F01F928F9387E79BE09F93D0
:105580008F930E946E0A0F900F900F900F9004C09F
:1055900084E79BE00E94D50981E006C01092680272
:1055A00080E002C080E003CFCF91089580918C020B
:1055B00008959FB7F89410926B029FBF90919C0240
:1055C000943009F058C09091E9009F702091EC0050
:1055D00020FF02C020E801C020E0292B94E0909336
:1055E000E9009091EB0090FF43C09091EE0097FF8F
:1055F0003FC090916902992321F09091E80095FFB6
:1056000037C01092690296E03091E80035FD15C070
:1056100030919C02343061F53091EB0035FD28C0AB
:10562000915021F481E08093690222C0EFE9FFE00C
:105630003197F1F700C00000E7CF8093F10080912F
:10564000E80085FD0AC08091E80080FFFCCF8091D2
:10565000E8008E778093E80006C08FB7F89491E059
:1056600090936B028FBF2F702093E90080E0089524
:105670002F702093E9008FEF08950F931F93CF931E
:10568000DF9300D01F92CDB7DEB78C010E94142E9D
:10569000823011F0843019F583E089831B830A83FB
:1056A0008093E9008FEF9091E800815095FD06C04E
:1056B00095ED9A95F1F700008111F5CF8091E80002
:1056C00085FF0DC040E050E063E070E0CE01019640
:1056D0000E94312E8091E8008E778093E8000F9031
:1056E0000F900F90DF91CF911F910F910895CF935D
:1056F000DF9300D01F92CDB7DEB720919C022430FB
:1057000031F522E02983805891099B838A8383E0C5
:105710008093E9008FEF9091E800815095FD06C0DD
:1057200095ED9A95F1F700008111F5CF8091E80091
:1057300085FF0DC040E050E063E070E0CE010196CF
:105740000E94312E8091E8008E778093E8000F90C0
:105750000F900F90DF91CF910895CF93DF93EC01DD
:105760000E94142E823011F08430F9F482E080938C
:10577000E9008FEF9091E800815095FD06C095ED0E
:105780009A95F1F700008111F5CF8091E80085FF2F
:105790000CC040E050E065E070E0CE010E94312E88
:1057A0008091E8008E778093E800DF91CF91089593
:1057B000CF93DF93EC010E94142E823019F08430D5
:1057C00009F047C0809173018823E1F0809196022F
:1057D00087FF18C085E08093E9008FEF9091E80083
:1057E000815095FD06C095E19A95F1F70000811171
:1057F000F5CF8091E80085FF2CC040E050E060E2EA
:1058000070E017C081E08093E9008FEF9091E8008D
:10581000815095FD06C095ED9A95F1F70000811134
:10582000F5CF8091E80085FF14C040E050E068E0CB
:1058300070E0CE010E94312E8091E8008E77809337
:10584000E80080E2FE01ACE6B2E001900D928A959C
:10585000E1F7DF91CF91089582E191E10E94D509AE
:1058600080919B02811109C00E94C32F0E942030A9
:105870008091E20084608093E20008958EE091E1DF
:105880000E94D50910929B0208958AE091E10C9440
:10589000D50986E091E10C94D50982E091E10E945E
:1058A000D5090C94862380916A028F5F80936A02E7
:1058B00062E30E94BF32911135C010926A0280915A
:1058C0006B02882379F180919C02843049F58091A4
:1058D000E9008F709091EC0090FF02C090E801C049
:1058E00090E0982B84E08093E9008091EB0080FFAA
:1058F00014C08091EE0087FF10C08091E80085FF02
:1059000003C01092F100F9CF8091E80080FF05C03C
:105910008091E8008E778093E8009F709093E90073
:1059200010926B02089542E061EC81E00E943D2FED
:1059300042E061EC82E00E943D2F42E061EC83E0B6
:105940000E943D2F42E261EC84E00E943D2F42E242
:1059500061EC85E00C943D2F80919E02833009F428
:1059600055C030F4813071F0823009F48EC0089552
:105970008A3009F47AC08B3009F460C0893009F0AC
:105980009CC020C080919D02813A09F096C0809110
:10599000E800877F8093E8008091A1029091A202A5
:1059A000892B21F060E080E090E003C060E28CE6AB
:1059B00092E070E00E947A2E8091E8008B778093CD
:1059C000E800089580919D02813209F076C08091AF
:1059D000A1029091A202009719F0049709F06DC0FE
:1059E0008091E800877F8093E8008091E80082FD45
:1059F00005C080919C028111F8CF5FC08091F100B9
:105A000080938C028091E8008B7753C080919D0237
:105A1000813A09F052C08091A1029091A202892B93
:105A200009F04BC08091E800877F8093E800809167
:105A3000E80080FFFCCF8091730136C080919D0209
:105A40008132D9F58091A1029091A202892BA9F50A
:105A50008091E800877F8093E8000E94722F8091F8
:105A60009F02809373010C94551B80919D0281329B
:105A700021F58091E800877F8093E8000E94722FD3
:105A80008091A00280938D02089580919D02813AB9
:105A9000A1F48091E800877F8093E8008091E8007E
:105AA00080FFFCCF80918D028093F1008091E8000F
:105AB0008E778093E8000C94722F089584B7877FC7
:105AC00084BF88E10FB6F894809360001092600064
:105AD0000FBE80E880936100109261000E94D9158A
