:100000000C944A090C948E090C948E090C948E0958
:100010000C948E090C948E090C948E090C948E0904
:100020000C948E090C948E090C94EF2F0C94C13013
:100030000C943D230C948E090C948E090C948E091B
:100040000C948E090C948E090C948E090C948E09D4
:100050000C948E090C94B0230C948E090C948E0988
:100060000C948E090C948E090C948E090C948E09B4
:100070000C948E090C948E090C948E090C948E09A4
:100080000C948E090C948E090C948E090C948E0994
:100090000C948E090C948E090C948E090C948E0984
:1000A0000C948E090C948E090C948E09180B940CE8
:1000B000940C940C940C940C940C940C940C280BAD
:1000C000450B4F0B6C0B940C940C940C940C940CEF
:1000D000940C760B930B9D0BBA0B940C940C940C14
:1000E000940C940C940CC40BE10BEB0B080C940CCB
:1000F000940C940C940C940C940C120C2F0C940CE7
:10010000940C940C940C940C940C940C940C390C4A
:10011000510C620C730C840C430E490E4D0E500EA4
:10012000540E580E5C0E600E650E690E6D0E710E4B
:10013000740E780E7C0E800E840E890E7A187A1852
:10014000B418B418F3181519841A841A5B19841A90
:10015000021A021A781A841A841A7F1A0F1A0F1AAE
:100160000F1A0F1A0F1A0F1A0F1A0F1A0F1A0F1A47
:100170000F1A0F1A0F1A0F1A0F1A0F1A211A311A03
:10018000381A3F1A491A181B181B2B1B2B1B211B33
:100190002B1B2B1B2B1B181B181B271B2B1B2B1B59
:1001A000271B26314D313B324D313B329531B83131
:1001B0003B320E321D320A002530313662003A20C1
:1001C0000025303258000A722F6320303132333428
:1001D00035363738394142434445460A0001E1018A
:1001E000E00119021902E002E10001E00106020645
:1001F00002E00001E101E00119021902E002E10060
:1002000001E0011B021B02E00001E0011C021C02D4
:10021000E00001E0011D021D02E00001E001190201
:100220001902E00001E00106020602E00001E0011F
:1002300019021902E00001E0011B021B02E00002AA
:100240002D00012A012D00021600011600023300C4
:10025000012A01E101330002120001E10112000252
:100260003300012A0133000212000112000234009F
:10027000012A01E101340002040001E1010400024D
:100280003400012A013400020400010400022F009E
:10029000012A01E1012F0002180001E1011800020A
:1002A0002F00012A012F0002180001180002E100AE
:1002B00001E10013000A30000036001400190006A6
:1002C000000F00100005000B000C00080014301E89
:1002D00030070017001500110028300E001D000324
:1002E0008037001B000D000A001C001A00090000E6
:1002F00000010009580B5101574C492C00284C01B2
:10030000000000000000000000013002572A4A03EC
:100310005700000000000001000C30010001000146
:1003200000010001000100010001000100010001C5
:10033000001630203001000100010001001600010C
:100340000001003102010001000100010001000173
:100350000001000000010001000100010001000196
:100360000001000100000000000000000001000189
:100370000001000100000000000000010001000B6E
:100380003001000100010001000100010001000135
:100390000001000100010001000100010001000155
:1003A0000001000100010001000100010001000145
:1003B0000001000100010000000100010001000136
:1003C0000001000100010001000000000000000029
:1003D0000001000100010001000000000000000118
:1003E0000001000D300100010001000100010001C9
:1003F00000010001000100010001000100010001F5
:1004000000010001000100010001000100010001E4
:1004100000010001000100010001000000010001D5
:1004200000010001000100010001000100000000C6
:1004300000000000000100010001000100000000B8
:100440000000000100010015300100010001000161
:100450000001000100010001000100010001000194
:100460000001000100010001000100010001000184
:100470000001000100010001000100010001000075
:100480000001000100010001000100010001000164
:100490000000000000000000000100010001000158
:1004A0000000000000000001000100173001000101
:1004B0000001000100010001000100010001000134
:1004C0000001000100010001000100010001000124
:1004D0000001000100010001000100010001000114
:1004E0000001000000010001000100010001000105
:1004F00000010001000000000000000000010001F8
:100500000001000100000000000000010001001FC8
:1005100030010001000100010001000100010001A3
:1005200000010001000100010001000100010001C3
:1005300000010001000100010001000100010001B3
:1005400000010001000100000001000100010001A4
:100550000001000100010001000000000000000097
:100560000001000100010001000000000000000186
:100570000001002130010001000100010001000123
:100580000001000100010001000100010001000163
:100590000001000100010001000100010001000153
:1005A0000001000100010001000100000001000144
:1005B0000001000100010001000100010000000035
:1005C0000000000000010001000100010000000027
:1005D00000000001000100293001000100010001BC
:1005E0000001000100010001000100010001000103
:1005F00000010001000100010001000100010001F3
:1006000000010001000100010001000100010000E3
:1006100000010001000100010001000100010001D2
:1006200000000000000000000001000100010001C6
:100630000000000000000000574B0052004E005325
:100640000056005F006000610055004A00500051F4
:10065000004F004D0062005C005D005E0036004906
:10066000002B00323033303430570059005A005BD1
:100670000054000000010001000100010001000120
:100680000001000100000000000000000001000166
:10069000000100010000000000000029004B025290
:1006A000024E0248004500400041004200E3004A7B
:1006B00002500251024F024D0243003D003E003FF6
:1006C00000370049002B0035303630343044003AD2
:1006D000003B003C000D540000010001000100013E
:1006E0000001000100010001000000000000000006
:1006F00000010001000100010000000000000020D6
:100700000238020480058006801E0264006402270D
:100710000223022D1424026414141430022D022525
:10072000022602380007803100210209800880304B
:10073000143000220231021F0235020000010001C4
:1007400000010001000100010001000100000000A3
:100750000000000000010001000100010000000095
:100760000000000A800B800C800D800E800F802519
:10077000142614108011802E022E000814008018F8
:10078000801280241427141380370035001480163B
:100790008015803014178001801F142014028000FF
:1007A0000001000100010001000100010001000141
:1007B0000000000000000000000100010001000135
:1007C0000000000000000001000100010001000124
:1007D0000001000100D95C010001000100010001DD
:1007E0000001000100010001000100010001000101
:1007F00000010001000100DB5C010001000100DAE2
:100800005C01000000010001000100010001000185
:1008100000010001000000000000000000010001D4
:10082000000100010000000000000009F60100B412
:10083000F60100C3F30100192000001E2000001C77
:100840002000001D20000022200000AB000000BBA3
:1008500000000005210000262000001A20000018DA
:10086000200000192000002D260000BC0300000518
:100870002200002E2E000014200000A200000039EB
:100880002000003A20000020260000080300004459
:10089000454255473A20656E61626C65642E0A00D8
:1008A0000A002530325820006B6579626F617264EE
:1008B0005F7265706F72743A20000A0025303258FA
:1008C000006B6579626F6172645F7365745F6C65FC
:1008D000643A20004F6E6573686F743A2074696DD6
:1008E000656F75740A0064656C5F6B65795F62693A
:1008F000743A2063616E27742064656C3A20253059
:1009000032580A006164645F6B65795F6269743AAA
:100910002063616E2774206164643A202530325868
:100920000A00290A002575002F002575005D2800A2
:100930002564002000256400200025640020002597
:1009400064007C0025303258006D6F7573656B65EF
:1009500079205B62746E7C782079207620685D282F
:100960007265702F61636C293A205B006D6B5F7755
:100970006865656C5F74696D655F746F5F6D6178E4
:10098000203D2025640A006D6B5F776865656C5FAC
:100990006D61785F7370656564203D2025640A0091
:1009A0006D6B5F74696D655F746F5F6D6178203D1D
:1009B0002025640A006D6B5F6D61785F73706565FB
:1009C00064203D2025640A006D6B5F696E7465725A
:1009D00076616C203D2025640A006D6B5F64656C58
:1009E0006179203D2025640A006D6B5F776865653D
:1009F0006C5F74696D655F746F5F6D6178203D2019
:100A000025640A006D6B5F776865656C5F6D617862
:100A10005F7370656564203D2025640A006D6B5F1F
:100A200074696D655F746F5F6D6178203D2025642A
:100A30000A006D6B5F6D61785F7370656564203D62
:100A40002025640A006D6B5F696E74657276616C57
:100A5000203D2025640A006D6B5F64656C61792020
:100A60003D2025640A000A00257500363A20776883
:100A700065656C5F74696D655F746F5F6D61783A11
:100A800020000A00257500353A20776865656C5F9F
:100A90006D61785F73706565643A20000A002575A2
:100AA00000343A2074696D655F746F5F6D61783AE8
:100AB00020000A00257500333A206D61785F73705D
:100AC0006565643A20000A00257500323A20696E97
:100AD00074657276616C286D73293A20000A0025CE
:100AE0007500313A2064656C6179282A31306D7364
:100AF000293A20000A092D2056616C756573202D56
:100B00000A004D3E004D25643E20003F0073657491
:100B10002064656661756C740A00433E2000776846
:100B20006572652064656C74613A20637572736FD9
:100B3000723D25642C20776865656C3D25640A53F9
:100B4000656520687474703A2F2F656E2E77696B17
:100B50006970656469612E6F72672F77696B692FA1
:100B60004D6F7573655F6B6579730A000A092D20F7
:100B70004D6F7573656B6579202D0A4553432F7151
:100B80003A09717569740A313A0964656C617928AA
:100B90002A31306D73290A323A09696E74657276AA
:100BA000616C286D73290A333A096D61785F73703F
:100BB0006565640A343A0974696D655F746F5F6DC9
:100BC00061780A353A09776865656C5F6D61785FB1
:100BD00073706565640A363A09776865656C5F7499
:100BE000696D655F746F5F6D61780A0A703A0970AC
:100BF00072696E742076616C7565730A643A097364
:100C000065742064656661756C74730A75703A0961
:100C10002B310A646F776E3A092D310A706775704F
:100C20003A092B31300A7067646F776E3A092D31BB
:100C3000300A0A7370656564203D2064656C7461D8
:100C4000202A206D61785F7370656564202A2028F2
:100C5000726570656174202F2074696D655F746FB3
:100C60005F6D6178290A003F004D3E2000433E2021
:100C7000004C25640A0074696D65725F7265616479
:100C8000333228293A202530346C580A006B6579B4
:100C90006D61705F636F6E6669672E6E6B726F3A1F
:100CA0002025580A006B6579626F6172645F696420
:100CB0006C653A2025580A006B6579626F61726431
:100CC0005F70726F746F636F6C3A2025580A00680A
:100CD0006F73745F6B6579626F6172645F6C65647A
:100CE0007328293A2025580A000A092D20537461D7
:100CF000747573202D0A004743433A20342E382E52
:100D000031204156522D4C4942433A20312E382E43
:100D10003073766E204156525F415243483A20610B
:100D20007672350A004F5054494F4E533A204C5575
:100D30004641204D4F5553454B4559204558545237
:100D4000414B455920434F4E534F4C4520434F4D47
:100D50004D414E44204E4B524F20343039360A001C
:100D60004255494C443A2022302E362E332D333012
:100D70002D676635353733622D64697274792220A8
:100D80002831393A33393A353620417072203134BE
:100D90002032303138290A005649443A203078460A
:100DA00045454428556E6B6E6F776E292050494437
:100DB0003A20307836303630286B697373626F6151
:100DC000726429205645523A203078303030310A4A
:100DD00000444553433A203432206B6579732073C5
:100DE0007472616967687420636F6C7320746875CE
:100DF0006D626B657973206469616372697469639C
:100E000061206B65790A000A092D205665727369A5
:100E10006F6E202D0A000A092D20436F6E736F6CD0
:100E200065202D0A4553432F713A09717569740A7B
:100E30006D3A096D6F7573656B65790A000A092D46
:100E4000204D61676963202D0A443A094465627543
:100E500067204D65737361676520546F67676C65C4
:100E60000A583A094D617472697820446562756761
:100E7000204D6F646520546F67676C65202D20538B
:100E8000686F77206B65797072657373657320691D
:100E90006E206D617472697820677269640A4B3ADA
:100EA000094B6579626F61726420446562756720E1
:100EB000546F67676C65202D2053686F77206B65D2
:100EC000797072657373207265706F72740A4D3A2F
:100ED000094465627567204D6F75736520546F67AF
:100EE000676C650A563A0956657273696F6E0A53E4
:100EF0003A095374617475730A433A09416374691A
:100F00007661746520436F6E736F6C65204D6F64FE
:100F1000650A46312D4631303A0953776974636862
:100F200020746F204C6179657220302D392028465D
:100F30003130203D204C30290A302D393A09537781
:100F40006974636820746F204C6179657220302D5C
:100F5000390A4553433A0953776974636820746FBB
:100F6000204C6179657220302028616C7465726E46
:100F7000617465206B65792031290A4752415645D5
:100F80003A0953776974636820746F204C617965FE
:100F90007220302028616C7465726E617465206BFC
:100FA00065792032290A50415553453A094A756DF1
:100FB0007020746F20426F6F746C6F616465722073
:100FC000285265736574290A4E3A094E4B524F20D8
:100FD000546F67676C650A003F004E4B524F3A20D2
:100FE0006F66660A004E4B524F3A206F6E0A000A37
:100FF0006D6F7573653A206F66660A000A6D6F75CE
:1010000073653A206F6E0A000A6B6579626F6172D0
:10101000643A206F66660A000A6B6579626F6172D6
:10102000643A206F6E0A000A6D61747269783A2022
:101030006F66660A000A6D61747269783A206F6E95
:101040000A000A64656275673A206F66660A000ADC
:1010500064656275673A206F6E0A000A0A4A756D08
:1010600070696E6720746F20626F6F746C6F61645B
:1010700065722E2E2E2000433E20005B735D004BD8
:101080006579626F6172642073746172742E0A00F4
:101090005B575D005B535D005B525D005B445D0030
:1010A0005B435D0004033000000014036B00690023
:1010B0007300730062006F00610072006400000042
:1010C000100355006E006B006E006F0077006E001D
:1010D00000000403090409028D00050100A0FA09BB
:1010E0000400000103010100092111010001224057
:1010F000000705810308000A090401000103010239
:1011000000092111010001224D000705820308009A
:101110000A09040200010300000009211101000175
:101120002236000705830308000A090403000203AE
:10113000000000092111010001222200070584039B
:101140002000010705040320000109040400010335
:101150000000000921110100012239000705850363
:101160002000011201100100000008EDFE60600186
:10117000000102030105010906A101050719E02983
:10118000E715002501950875018102050819012957
:1011900005950575019102950175039101050719E2
:1011A0000029F71500250195F875018102C0063167
:1011B000FF0974A1010975150026FF009520750827
:1011C00081020976150026FF00952075089102C05E
:1011D00005010980A10185021601002603001A817C
:1011E000002A8300751095018100C0050C0901A13A
:1011F000018503160100269C021A01002A9C027533
:101200001095018100C005010902A1010901A10099
:1012100005091901290515002501950575018102AA
:101220009501750381010501093009311581257F7B
:1012300095027508810609381581257F9501750885
:101240008106050C0A38021581257F9501750881F4
:1012500006C0C005010906A101050719E029E71527
:101260000025019508750181029501750881010528
:1012700008190129059505750191029501750391DC
:10128000010507190029FF150026FF0095067508BE
:101290008100C00011241FBECFEFDAE0DEBFCDBF5A
:1012A00004B603FE24C08091A5029091A602A091ED
:1012B000A702B091A8028730904BA740B04BB9F479
:1012C0001092A5021092A6021092A7021092A802F4
:1012D00014BE84B7877F84BF88E10FB6F8948093EB
:1012E0006000109260000FBEE0E0F8E3099511E0A5
:1012F000A0E0B1E0E4ECF5E602C005900D92A8395B
:10130000B107D9F722E0A8E9B1E001C01D92A53AE2
:10131000B207E1F70E940F2D0C94E0320C9400000C
:10132000FF93EF93E0919801F0919901309709F0C4
:101330000995EF91FF910895FC018591803011F09E
:10134000EFDFFBCF0895FF27E0E230E247FF0CC05C
:10135000419597FF09C0EDE2609570958095909555
:10136000611D711D811D911D27FF02C0219530E374
:1013700050E2AA27660F771F881F991FAA1FA4177C
:1013800010F0A41B63955A95A9F7AA3008F0A95F3D
:10139000A05DAF93F395611571058105910541F746
:1013A000ED3211F4EF93F395F21718F43F93F395A0
:1013B000FBCF8F91B5DFFA95E1F70895E991F991A7
:1013C0008591803021F0853219F0AADFF9CF089598
:1013D00020E0E89455915532C1F3503311F46894EC
:1013E00055915A3348F4505390F3220F022E220F96
:1013F000220F200D250FF4CF0EF42195899199919C
:10140000533619F3533729F1533559F1BC01882765
:101410009927E8945C3621F48991999168945591C3
:10142000543639F446EF7EF077FF0DC08FEF9FEF13
:101430000AC055374AE039F0583540E121F05236BC
:1014400042E009F00895FF93EF937DDFEF91FF9164
:10145000B7CFFF93EF93FC0181918030B9F360DF48
:10146000FBCFFF93EF9368DFF1CFDF93CF93CDB73F
:10147000DEB72596A3DFCF91DF9108950C94470F37
:10148000CF93DF93CDB7DEB72B970FB6F894DEBFBF
:101490000FBECDBF1092CC001092CD0088E180939A
:1014A000C90086E08093CA0083E78093CE00FE01E6
:1014B00031968BE0DF011D928A95E9F79E01245F4A
:1014C0003F4F80E090E0DC014091C80047FD09C03B
:1014D0000196A11DB11D813147E29407A105B10517
:1014E00098F34091CE004193E217F30769F78B859B
:1014F000803EB9F4FE0132966AE971E08081A0E293
:101500008A9FC0011124AF0141505109DA014C9169
:10151000842BDB018D939D93BD013296E217F30777
:1015200069F70E94490F81E02B960FB6F894DEBF51
:101530000FBECDBFDF91CF910895E82FF0E0EE0F01
:10154000FF1FE656FE4F808191810895CF92DF9272
:10155000EF92FF920F931F93CF93DF9386EC91E06E
:101560000E949C092AE9E22E21E0F22EC0E0D0E0A0
:1015700031ECC32E31E0D32E08EB11E0DF93CF9393
:10158000DF92CF920E94350A8EEB91E00E949C0977
:10159000F701819191917F010E94FC219F938F938C
:1015A0001F930F930E94350A86EB91E00E949C09DD
:1015B00021968DB79EB708960FB6F8949EBF0FBEC2
:1015C0008DBFC530D105D1F6DF91CF911F910F911D
:1015D000FF90EF90DF90CF9008951092CC00109282
:1015E000CD0088E18093C90086E08093CA00089509
:1015F000519A599A80B3806380BB81B3806381BB69
:1016000008950E94D00C0E94ED0A0C94F80A0C94E4
:10161000D80C0895DC01462F50E041505109463363
:10162000510508F081C14A5A5F4FFA010C9490327B
:1016300012968C91882331F081E00E94761F80EB16
:1016400092E0089581E00E94911F8DEA92E0089552
:1016500012968C91882309F46AC188E00E94911F38
:1016600086E00E94911F87E00E94911F84E00E9403
:10167000911F85E00E94911F83E00E94911F82E0EC
:101680000E94761F8AEA92E0089512968C91811149
:1016900051C182E00E94911F8FE992E00895129655
:1016A0008C91882309F449C188E00E94911F86E04B
:1016B0000E94911F87E00E94911F84E00E94911F69
:1016C00085E00E94911F82E00E94911F83E00E94AA
:1016D000761F8AE992E0089512968C91811130C1AB
:1016E00083E00E94911F8DE892E0089512968C91FC
:1016F000882309F428C188E00E94911F86E00E9497
:10170000911F87E00E94911F85E00E94911F82E057
:101710000E94911F83E00E94911F84E00E94761F27
:101720008AE892E0089512968C9181110FC184E0AD
:101730000E94911F8FE792E0089512968C91882362
:1017400009F407C188E00E94911F86E00E94911F62
:1017500087E00E94911F84E00E94911F82E00E9416
:10176000911F83E00E94911F85E00E94761F8AE707
:1017700092E0089512968C918111EEC085E00E944E
:10178000911F8DE692E0089512968C91882309F4BA
:10179000E6C088E00E94911F87E00E94911F84E0CC
:1017A0000E94911F85E00E94911F82E00E94911F7C
:1017B00083E00E94911F86E00E94761F8AE692E0F5
:1017C000089512968C918111CDC086E00E94911FE0
:1017D0008FE592E0089512968C91882309F4C5C094
:1017E00088E00E94911F86E00E94911F84E00E9481
:1017F000911F85E00E94911F82E00E94911F83E06B
:101800000E94911F87E00E94761F8AE592E008956A
:1018100012968C918111ACC087E00E94911F8DE4DB
:1018200092E0089512968C91882309F4A4C086E072
:101830000E94911F87E00E94911F84E00E94911FE7
:1018400085E00E94911F82E00E94911F83E00E9428
:10185000911F88E00E94761F8AE492E00895129614
:101860008C9181118BC088E00E94911F8FE392E0E0
:10187000089512968C91882339F00E946F239093DB
:10188000A5018093A40150C08091A4019091A5016D
:101890000E9487238B3F910508F473C086E392E092
:1018A000089512968C918111E8CF8091A4019091B6
:1018B000A5010E9487238B3F910508F465C084E24F
:1018C00092E0089512968C918111D7CF8091A40156
:1018D0009091A5010E9487238B3F910508F457C082
:1018E00082E192E0089512968C918111C6CF809189
:1018F000A4019091A5010E9487238B3F910508F4D4
:1019000049C080E092E0089512968C918111B5CF84
:101910008091A4019091A5010E9487238B3F91059E
:10192000E0F18AEE91E0089580E090E0089587EA82
:1019300092E0089582EA92E0089587E992E008959E
:1019400080E992E0089587E892E0089582E892E0C5
:10195000089587E792E0089580E792E0089587E68A
:1019600092E0089582E692E0089587E592E0089576
:1019700080E592E0089587E492E0089582E492E0A1
:1019800008958DE292E008958BE192E0089589E058
:1019900092E0089583EF91E008958DED91E0089530
:1019A00081E00E94D71260E070E0CB010C941B1F15
:1019B00008958A3D2CE5920749F08B3D2CE592076E
:1019C00039F0893D9C4561F481E003C084E001C0A9
:1019D00080E00E94D7128DE00E94911F80E0089560
:1019E00081E008950F931F93CF93DF938C01EB0158
:1019F0009A9581159F4138F510FF03C080EEFB01D9
:101A0000099511FF03C081EEFE01099512FF03C085
:101A100082EEFE01099513FF03C083EEFE010995D6
:101A20000115104180F084EEFE01099585EEFE015E
:101A3000099586EEFE01099587EEFE01DF91CF91B3
:101A40001F910F910994DF91CF911F910F910895EC
:101A5000877091E001C0990F8A95EAF7892F0E945B
:101A60006B210C949B21877091E001C0990F8A959E
:101A7000EAF7892F0E946B210C949B21877091E0DB
:101A800001C0990F8A95EAF7892F0E9471210C9461
:101A90009B21877091E001C0990F8A95EAF7892F01
:101AA0000E9471210C949B21CF93DF93EC01805E07
:101AB0009109089710F0209719F463E37DE002C0C4
:101AC00068E27DE0CE010E94F20C8C2FDF91CF9175
:101AD0000C94BA16CF93DF93EC010E94C917CE0184
:101AE000805E9109089710F0209719F469E47DE071
:101AF00002C06EE37DE0CE01DF91CF910C94F20C39
:101B000081E008950C94D90C0E94061B2FEF84E30A
:101B10009CE0215080409040E1F700C0000087E742
:101B200097E790930108809300080C94D623FF92C6
:101B30000F931F93CF93DF938C01FC01C081D18160
:101B40008091CF01811113C08281882349F0CE0199
:101B50000E945C20F82E682FCE010E94022004C053
:101B6000CE010E943020F82EBE018F2D04C0CE0180
:101B70000E945C20BE010E945E0FEC01B8010E9431
:101B80002514B801CE010E94820D882309F478C182
:101B9000B801CE010E946614882309F471C1B8010E
:101BA000CE010E94BF11882309F46AC1B801CE0199
:101BB0000E945A12882309F463C1C531FCE5DF078E
:101BC00029F50E945521382FF80122818091610169
:101BD00090916201222371F03A7A21E009F420E029
:101BE0002093A601222311F065E301C069E20E945F
:101BF000D52209C02091A601222311F065E301C07E
:101C000069E20E94E0220E949B213AC1C6318CE524
:101C1000D80708F0A8C0C130ECE5DE0779F4F80178
:101C20008281882309F42CC180915C0281608093B9
:101C30005C028FE898E00E949C0922C1C230FCE55A
:101C4000DF0708F478C0F8018281882309F47BC09B
:101C50000E943022811102C00E9416220E9443225B
:101C600090E09093970280939602FE01E350FC452A
:101C7000E231F10520F4E457FF4F0C94903280914B
:101C80009602816003C080919602826080939602E2
:101C90004BC0809196028460F9CF8091960213C068
:101CA000809196028061F2CF809196028062EECFA1
:101CB000809196028064EACF809196028068E6CF98
:101CC0008091960284608860E1CF809196028E7F39
:101CD000DDCF809196028D7FD9CF809196028B7F48
:101CE000D5CF8091960213C0809196028F7ECECF81
:101CF000809196028F7DCACF809196028F7BC6CF4E
:101D0000809196028F77C2CF809196028B7F877FDA
:101D1000BDCF9091960297FB882780F921E082271A
:101D200080FB97F990939602809196020E94472239
:101D30000E94061BA5C0C115DC4569F081E08093B7
:101D4000AB018093AC01C801DF91CF911F910F913E
:101D5000FF900C94800DF8018281882309F490C0D3
:101D60000E94840D8DC0CD3CECE5DE0759F5F801ED
:101D70008281882361F01092AC010E946F239093BE
:101D8000AA018093A90180E20E942A1879C080915B
:101D9000AC01882321F080E20E94311871C080914B
:101DA000A9019091AA010E9487238A3F910598F783
:101DB00080E20E94311888E20E94BA1688E20E94EE
:101DC000C9175EC0CE3CFCE5DF0708F044C0CB3C41
:101DD0008CE5D80719F5F8018281882351F010921B
:101DE000AB010E946F239093A8018093A70182E02A
:101DF000CBCF8091AB0181110FC08091A701909151
:101E0000A8010E9487238A3F910530F486E20E9450
:101E1000BA1686E20E94C91782E0BECFCC3CDC45F0
:101E200009F08CCFF80182818111A5CF8091AC019E
:101E30008111B1CF8091A9019091AA010E948723BD
:101E40008A3F910508F0A7CF87E20E94BA1687E281
:101E50000E94C917A0CFC03DFCE5DF0731F4F801AF
:101E60008281882369F080E009C0C13DDC4509F02A
:101E700065CFF8018281882319F082E00E94B52D98
:101E800080E0DF91CF911F910F91FF9008950C9406
:101E9000010B0E94BD140C94070B282F2F7041F0EA
:101EA000822F90E02A3010F44D96089506970895F9
:101EB00087E290E008950C94090B08959AE0799FC9
:101EC000F001112492E3899FE00DF11D1124E60F2A
:101ED000F11DEE0FFF1FED54FD4F85919491089574
:101EE000880F991F8D549D4FFC0185919491089501
:101EF000CF93DF930E945E0F0E941F11EC018115AA
:101F000020E5920708F040C0811530E4930708F0FF
:101F10001BC1883E910508F5803E910508F08BC1F4
:101F2000883A910578F4853A910508F09DC0813092
:101F3000910509F480C108F437C18430910508F097
:101F40007AC132C18D3B910508F499C0803C91055E
:101F500008F42AC1805C9109E9C0C11580E2D80764
:101F600058F4C11591E0D90708F065C1C03FD1050B
:101F700008F41AC1D0655FC1C11520E3D20708F08B
:101F8000D9C0CE019F70D2C0811535E5930708F006
:101F900043C0C11584E5D80708F0EDC0C11592E52E
:101FA000D90708F5C11521E5D20708F0D0C02C2FBC
:101FB000237081E090E002C0880F991F2A95E2F714
:101FC0009C689E01E4E036952795EA95E1F7237039
:101FD000922BCF70C695C69530E2C39FE0011124C5
:101FE000C82BD92B28C18C2F869586959E012370EE
:101FF0003327C115D34508F0AFC090E2899FE001B7
:10200000112481E090E002C0880F991F2A95E2F721
:10201000C82BD92BDC680FC1811529E5920780F404
:10202000811538E5930708F0ABC0C11586E5D807E0
:1020300008F0BAC0CF71DD27DC2FCC27D062FBC0FF
:10204000C1159AE5D90708F4A0C0CE0190568115B4
:10205000904208F0A9C08D2F8F710E949B11DD273F
:10206000D0628F71D82BE7C0853A910509F49FC0E3
:10207000863A910509F49EC0C3E8D0E4DCC0883AF2
:10208000910509F49AC0893A910509F499C08A3AF0
:10209000910509F498C08B3A910509F497C08C3AE0
:1020A000910509F496C08B3B910509F495C08C3BD2
:1020B000910509F494C08D3A910509F493C0803BD1
:1020C000910509F492C08E3A910509F491C08F3AB6
:1020D000910509F490C0813B910509F48FC0823BC2
:1020E000910509F48EC0833B910509F48DC0843BB2
:1020F000910509F48CC0853B910509F48BC0863BA2
:10210000910509F48AC0873B910509F489C0883B91
:10211000910509F488C0893B910509F487C08A3B81
:10212000910509F086C0CAE2D6E485C00E94700F0E
:10213000EC0181C0CE019927D3FF03C0EC01D86C1C
:102140007AC0EC01D06C77C0DF70D06A74C0DC2F2D
:10215000CC27C16FD06A6FC090E2899FE001112443
:1021600081E090E002C0880F991F2A95E2F7C82B02
:10217000D92BDA6860C0DC2FCC27C46FD06A5BC073
:10218000D82FCC27C06FD06A56C08C2F8F70806E2E
:1021900090E0906A34E0D695C7953A95E1F7CF7014
:1021A0009C013C2BE90147C0C0E0D0E044C0C1E83D
:1021B000D0E441C0C2E8D0E43EC0C2EED4E43BC0AB
:1021C000C9EED4E438C0CAEED4E435C0C5EBD4E4DB
:1021D00032C0C6EBD4E42FC0C3EBD4E42CC0C4EBB4
:1021E000D4E429C0C7EBD4E426C0CCECD4E423C0AB
:1021F000CDECD4E420C0C3E8D5E41DC0CAE8D5E4E2
:102200001AC0C2E9D5E417C0C4E9D5E414C0C1E2DC
:10221000D6E411C0C3E2D6E40EC0C4E2D6E40BC0DB
:10222000C5E2D6E408C0C6E2D6E405C0C7E2D6E4FB
:1022300002C0C0E0D4E4CE01DF91CF91089582388E
:10224000910549F1B0F48133910509F459C048F47E
:102250008932910509F44FC08A32910509F455C0BD
:1022600008958533910509F441C08933910599F0AA
:102270000895833E910531F138F4803E910591F047
:10228000823E9105A9F00895863E910501F1873EB1
:10229000910539F108952091960220FD3BC021FD62
:1022A00039C008958091960280FF34C089E341C00F
:1022B0008091960282FF32C08091960284FF2CC0EA
:1022C00080E037C08091960282FD28C0F5CF8091D2
:1022D000960283FF25C08091960284FDF1CF87EEA0
:1022E00028C08091960283FD1BC0F5CF8091960295
:1022F00085FF18C019C08091960285FF15C012C0D5
:102300008091960286FF12C013C08091960286FFCC
:102310000FC00CC080EE0DC083EE0BC082EE09C072
:1023200086EE07C085E305C089E203C081E301C0F2
:102330008AE290E008959091960292FF0DC0282FB6
:102340002871283019F4877F846006C0282F2471F3
:10235000243011F48B7F886093FF0DC0282F2871E3
:10236000283119F4877E846106C0282F2471243116
:1023700011F48B7E886194FD877E08950895CF9334
:10238000DF93EC01FB018281811102C081E040C03A
:102390008091BA01811125C0C631DC45B9F70E9490
:1023A000BE1181E08093BA010E946F239093B9011E
:1023B0008093B8011092AD011092AF011092AE015E
:1023C0001092B1011092B0011092B3011092B201BB
:1023D0001092B5011092B4011092B7011092B6019B
:1023E00016C08091B8019091B9010E948723883C62
:1023F000910560F68091AD01E82FF0E0EE0FFF1F30
:10240000E255FE4FD183C0838F5F8093AD0180E0A2
:10241000DF91CF910895AF92BF92CF92DF92EF926A
:10242000FF920F931F93CF93DF936B017C010CE11D
:1024300010E0C7E0D0E0BB24B394C430D1050CF465
:10244000B12CD701C601002E04C0B695A79597956B
:1024500087950A94D2F7282F2F70A22E69F4B11015
:1024600016C080E00E944D0F0E94BA1680E00E94C4
:102470004D0F0E94C9170BC0822F0E944D0F0E9462
:10248000BA168A2D0E944D0F0E94C917B12C2197B0
:1024900004501109CF3F8FEFD80779F6DF91CF9124
:1024A0001F910F91FF90EF90DF90CF90BF90AF9072
:1024B00008950895CF92DF92EF92FF92CF93DF932A
:1024C00000D000D0CDB7DEB77C016B010E94DE12D8
:1024D000282FF7FE60C0F6018281882309F45BC0D3
:1024E000F701EE0FFF1FEE0FFF1FE55DF74F659140
:1024F0007591859194916B017C01F1E0EF1AF108DF
:10250000C114D10430E1E306F10408F5222311F0EF
:10251000253041F50E94E112C701B60166277C7F94
:102520008F7099272AE096958795779567952A95D4
:10253000D1F778528F4F9F4F0E940B12C701B601FF
:1025400073708827992774528F4F9F4F20C0611551
:102550007105E1E18E07910528F0222359F025301D
:1025600039F408C061157105F0E18F07910528F075
:10257000213019F40E9459120EC069837A838B832B
:102580009C830E94E11269817A818B819C810E94E7
:102590000B120E94591381E00F900F900F900F9033
:1025A000DF91CF91FF90EF90DF90CF9008958093CF
:1025B000BB01682F8CE090E00C94B8328091BB0195
:1025C0000895E0916101F0916201808180938F0212
:1025D00081FF03C081EE0E94C91780918F0285FFA1
:1025E00003C085EE0E94C91780918F0280FF03C04F
:1025F00080EE0E94C91780918F0284FF03C084EE91
:102600000E94C91780918F0282FF03C082EE0E9450
:10261000C91780918F0286FF03C086EE0E94C917FA
:1026200080918F0283FF03C083EE0E94C9178091BF
:102630008F0287FF03C087EE0E94C9178091BB01FC
:10264000823011F128F4882341F0813061F008953F
:10265000843011F1853019F0089582EE01C086EEC4
:102660000E94BA16089580EE0E94BA1681EE0E946A
:10267000BA1688E10E94BA1688E10E94C91781EE55
:102680000E94C91780EE12C082EE0E94BA1687E53A
:102690000E94BA1687E50AC086EE0E94BA1686EE38
:1026A0000E94C91788E10E94BA1688E10E94C917E2
:1026B00008958091BB01813049F030F0823021F0E3
:1026C000853051F486EE06C082EE04C08CE20E9492
:1026D000BA168CE20E94C91780918F0281FF03C055
:1026E00081EE0E94BA1680918F0285FF03C085EEAD
:1026F0000E94BA1680918F0280FF03C080EE0E9474
:10270000BA1680918F0284FF03C084EE0E94BA162D
:1027100080918F0282FF03C082EE0E94BA168091E0
:102720008F0286FF03C086EE0E94BA1680918F0248
:1027300083FF03C083EE0E94BA1680918F0287FF49
:1027400003C087EE0C94BA160895CF93DF93EC0183
:102750008F85811115C081E08F878F810E9458215C
:1027600088850E946B210E949B21EA81FB816A89F6
:102770007B89CE010696309719F0DF91CF910994AD
:10278000DF91CF910895CF93DF93EC018881823060
:1027900039F4FB01828193810E94540D81E0898785
:1027A000DF91CF910895FC018081813021F4FB01FC
:1027B0008081918105C0823029F4FB01828193815F
:1027C0000C94540D0895FC018081813021F4FB01AB
:1027D0008081918105C0823029F4FB01828193813F
:1027E0000C946A0D08950F931F93CF93DF938C0180
:1027F000FC018085811124C083819481975524E157
:10280000289FE001299FD00D1124C050DF4FEC819B
:10281000FD816A897B89CE010696309709F009957A
:102820008F810E945E2188850E9471210E949B21D8
:10283000F8011082178211861092BD011092BC011E
:10284000DF91CF911F910F910895DF92EF92FF9248
:102850000F931F93CF93DF937C01FB018281882329
:1028600069F1809160018F3F49F1C6E0D1E000E05D
:1028700010E0DD24D39480916001992787FD909525
:1028800080179107DCF0CE0106972881222391F072
:102890002B813C81E216F30639F42091BC01309182
:1028A000BD01E216F30631F0DF820E94A513CE01CE
:1028B0000E94F3130F5F1F4F6496DDCFDF91CF911E
:1028C0001F910F91FF90EF90DF900895FF920F936B
:1028D0001F93CF93DF938C019C0137552F3F310518
:1028E00011F008F043C080916001992787FD909511
:1028F0008217930714F42093600184E1829FE00122
:10290000839FD00D1124C050DF4FFB0182818E8741
:1029100092818E81992309F11A8709878F5F8E83AF
:102920000E946F239C878B870E94E2218F830E94E5
:102930005521F82E88870E9468218F298887E88191
:10294000F9816A897B89CE010696309709F009954D
:102950001093BD010093BC0109C0882339F08F8515
:10296000882321F0CE0106960E94F31381E0DF91C7
:10297000CF911F910F91FF900895EF92FF920F93C7
:102980001F93CF93DF93809160018F3F71F1F12C02
:1029900084E1E82E8F2D90E020916001332727FD00
:1029A0003095281739070CF1E89EE001E99ED00D1B
:1029B0001124C050DF4F088919890115110511F440
:1029C0000AEF10E08E81882371F08B859C850E9430
:1029D00087230817190738F4CE010E94A513CE01EA
:1029E00006960E94F313F394D5CFDF91CF911F91F8
:1029F0000F91FF90EF9008959093C3018093C201CF
:102A00000895E091C201F091C301309721F0019047
:102A1000F081E02D099480E00895FF920F931F93B9
:102A2000CF93DF938C01E091C201F091C301309705
:102A300099F10280F381E02D099580915C0282FF7B
:102A40002BC080FF04C088EA98E00E949C09E8013E
:102A500080E2F82E02EA18E080915C0280FF0BC051
:102A600088811F928F931F930F930E94350A0F90B6
:102A70000F900F900F90FA942196F110EDCF809166
:102A80005C0280FF09C080EA98E0DF91CF911F913E
:102A90000F91FF900C949C09DF91CF911F910F91A2
:102AA000FF900895E091C201F091C301309721F0A9
:102AB0000480F581E02D099408952091C0013091A2
:102AC000C1018217930771F09093C1018093C001F7
:102AD000E091C201F091C301309721F00680F781A7
:102AE000E02D099408952091BE013091BF01821715
:102AF000930771F09093BF018093BE01E091C201F2
:102B0000F091C301309721F00084F185E02D099404
:102B1000089508950C94891581E008950E94662314
:102B20000E943E0A0C94E823CF93C82F80915C0248
:102B300082FF1EC080FF04C081EC98E00E949C09C7
:102B400080915C0280FF0CC01F92CF932CEB38E089
:102B50003F932F930E94350A0F900F900F900F9084
:102B600080915C0280FF04C08AEB98E00E949C097F
:102B70008C2FCF910C945B0F5F926F927F928F920C
:102B80009F92AF92BF92CF92DF92EF92FF920F93FC
:102B90001F93CF93DF93CDB7DEB72A970FB6F89484
:102BA000DEBF0FBECDBF0E94400A0E948C1581116E
:102BB00011C08FEF89838A831B820E946F238160FB
:102BC000782F9D838C8349815A816B818D810E94EE
:102BD0007A1657C095ECC92E91E0D92E00E010E08E
:102BE000AA24A394B12C502E802F0E949D0A3C0150
:102BF000F601E190F1906F01E826F926E114F10465
:102C000031F40F5F1F4F0530110569F7D2CF809166
:102C10005C0281FD0E94A60A20E030E04501022E00
:102C200002C0880C991C0A94E2F7C4018E219F21EE
:102C3000892B09F12E835F826820792081E0672843
:102C400009F480E088870E946F238160782F9A873B
:102C500089874E815F8168858A850E947A16F8018E
:102C6000EE0FFF1FEB53FE4F808191818825992540
:102C70009183808306C02F5F3F4F2A30310571F664
:102C8000C0CF0E94FC251091C4010E9401151817A5
:102C9000D9F00E9401158093C4012A960FB6F894CA
:102CA000DEBF0FBECDBFDF91CF911F910F91FF907F
:102CB000EF90DF90CF90BF90AF909F908F907F90DC
:102CC0006F905F900C9494152A960FB6F894DEBF1F
:102CD0000FBECDBFDF91CF911F910F91FF90EF906D
:102CE000DF90CF90BF90AF909F908F907F906F902C
:102CF0005F900895CF93DF93CDB7DEB72B970FB6D4
:102D0000F894DEBF0FBECDBF4F83588769877A879F
:102D10008B87DE01119686E0FD0111928A95E9F715
:102D200085E0FE01379601900D928A95E1F70E94A9
:102D3000F720882319F082E00E9433210E94CA20E4
:102D400081110E94942149815A816B817C818D81FE
:102D50009E810E94E01D2B960FB6F894DEBF0FBE39
:102D6000CDBFDF91CF910895FC01808191810E94B8
:102D70009C200895CF93DF931F92CDB7DEB7682FC5
:102D8000882309F402C18238C1F40E94011581FD33
:102D9000FCC069E380916101909162010E94D5229B
:102DA0000E949B212FEF81EE94E0215080409040C3
:102DB000E1F700C0000069E319C0833811F50E94F3
:102DC000011580FDE2C063E580916101909162018F
:102DD0000E94D5220E949B21EFEFF1EE24E0E1500A
:102DE000F0402040E1F700C0000063E58091610100
:102DF000909162010E94E0220F90DF91CF910C949C
:102E00009B218438C1F40E94011582FDBEC067E495
:102E100080916101909162010E94D5220E949B21C4
:102E20008FEF91EEE4E081509040E040E1F700C088
:102E3000000067E4DBCF8CEF860F813A70F4862FB9
:102E400069830E943829698181119FC08091610145
:102E5000909162010E94D522CFCF80E2860F883008
:102E600048F4677081E001C0880F6A95EAF70E9414
:102E70005821C2CF8BE5860F833088F4653A29F05C
:102E8000663A31F482E890E005C081E890E002C043
:102E900083E890E00F90DF91CF910C945D1588E569
:102EA000860F853108F071C0683A61F1693A69F1BD
:102EB0006A3A71F16B3A79F16C3A81F16B3B89F1C5
:102EC0006C3B91F16D3A99F1603BA1F16E3AA9F139
:102ED0006F3AB1F1613BB9F1623BC1F1633BC9F1BA
:102EE000643BD1F1653BD9F1663BE1F1673BE9F128
:102EF000683BF1F1693BF9F16A3B09F03FC08AE2B6
:102F000092E03EC082EE90E03BC089EE90E038C097
:102F10008AEE90E035C085EB90E032C086EB90E021
:102F20002FC083EB90E02CC084EB90E029C087EBAE
:102F300090E026C08CEC90E023C08DEC90E020C0A7
:102F400083E891E01DC08AE891E01AC082E991E02F
:102F500017C084E991E014C081E292E011C083E2DD
:102F600092E00EC084E292E00BC085E292E008C0DD
:102F700086E292E005C087E292E002C080E090E045
:102F80000F90DF91CF910C9473150F90DF91CF913B
:102F90000895882309F45DC0823879F40E940115F0
:102FA00081FF57C069E380916101909162010E94A5
:102FB000D5220E949B2169E310C08338B1F40E949E
:102FC000011580FF46C063E5809161019091620127
:102FD0000E94D5220E949B2163E58091610190911E
:102FE00062010E94E0220C949B21843879F40E94B3
:102FF000011582FF2EC067E480916101909162010A
:103000000E94D5220E949B2167E4E7CF9CEF980F96
:10301000913A10F4682FE1CF90E2980F983050F475
:10302000877091E001C0990F8A95EAF7892F0E9475
:103030005E21D9CF9BE5980F933020F480E090E09B
:103040000C945D15885A853120F480E090E00C9452
:1030500073150895882321F00E9458210C949B2118
:103060000895882321F00E945E210C949B210895ED
:103070008F929F92BF92CF92DF92EF92FF920F9327
:103080001F93CF93DF9300D0CDB7DEB74C01472F0E
:10309000FC01C580C2949FE0C922D280DD2031F0BE
:1030A00079836A830E9478216A81498149836A838E
:1030B0000E944E2149816A81882389F0DD2079F0C0
:1030C00080E2860F883058F082E00E9433210E940F
:1030D0004E21BB24B394B82649816A8101C0B12C2A
:1030E000E42EE2948FE0E822F12CF701E256FF4F44
:1030F0000C949032842F807F142F1F70882311F03E
:103100001295107FDD20C1F0112309F4DCC180E2AB
:10311000860F883010F0611105C0812F6A830E94EC
:10312000582104C0812F6A830E946B216A816A83BF
:103130000E949B216A81C7C1862F6A830E94C9179A
:103140006A81112309F4E0C180E2860F883010F013
:10315000611104C0812F0E945E2103C0812F0E9453
:1031600071210E949B21D0C1242F207F842F8F703A
:10317000203211F08295807F662319F06130B9F01A
:1031800022C0DD2049F0CC2009F452C1F1E0CF1279
:103190004FC10E948B21B8C1CC2021F021E0C21682
:1031A00009F4B2C189830E949421898147C1DD203D
:1031B00029F092E09C1508F4A7C13AC1E1E0EC15B2
:1031C00008F4A2C13BC1DD2051F0CC2009F430C18C
:1031D000F401958190FF77C19F70958329C1CC2020
:1031E00009F42CC181C1242F26952695237030E047
:1031F0002115310521F02130310561F085C1DD2037
:1032000021F0862F942F937002C080E090E00E94FE
:103210005D158AC1DD2021F0862F942F937002C0A6
:1032200080E090E00E9473157FC1DD20F9F0653FDA
:1032300051F0663F71F0643FA9F480919002909143
:10324000910281600BC08091900290919102826006
:1032500005C08091900290919102846090939102B8
:1032600080939002862F0E94822422C0653F51F0F5
:10327000663F91F0643FC9F4809190029091910271
:103280008E7F05C080919002909191028D7F9093E6
:1032900091028093900209C0209190023091910296
:1032A0002B7F3093910220939002862F0E94EA2474
:1032B0000E946F2539C1842F837009F04EC0D11050
:1032C0002FC1262F229526952770220F220F862F99
:1032D0008F70C82ED12CE12CF12C022E04C0CC0C06
:1032E000DD1CEE1CFF1C0A94D2F764FF10C06FE0D7
:1032F00070E080E090E004C0660F771F881F991F80
:103300002A95D2F7609570958095909503C060E0FE
:1033100070E0CB01242F26952695237030E02230D3
:10332000310569F02330310589F06C297D298E291A
:103330009F292130310571F00E942F1FF1C06C29A7
:103340007D298E299F290E94411FEAC00E942F1FBC
:10335000C701B6010E941D1FE3C0DD2019F0842FB4
:10336000817001C08695882309F4DAC0262F229542
:1033700026952770220F220F862F8F70C82ED12CF2
:10338000E12CF12C022E04C0CC0CDD1CEE1CFF1C29
:103390000A94D2F764FF10C06FE070E080E090E024
:1033A00004C0660F771F881F991F2A95D2F7609572
:1033B00070958095909503C060E070E0CB01242F5C
:1033C00026952695237030E02230310569F02330B0
:1033D000310589F06C297D298E299F2921303105FD
:1033E00071F00E94DD1F9CC06C297D298E299F29C8
:1033F0000E94EF1F95C00E94DD1FC701B6010E9409
:10340000CB1F8EC0062F10E0F801E05EF109E53118
:10341000F10508F054C0E255FF4F0C949032162F7E
:103420001F70842F8F71DD2031F00E94761F812F55
:103430000E942A1869C00E94911F812F0E94311892
:1034400063C0DD2049F0F1E0FC1508F45DC0842F75
:103450008F710E94B01F58C022E02C1508F454C090
:10346000F6CFDD2039F0842F8F710E94761F4CC07B
:10347000DD20C9F3842F8F710E94911F45C0DD208C
:1034800029F0842F8F710E94671F3EC00E94621F27
:103490003BC0DD2051F0142F1F71812F0E94761F39
:1034A00063E0812F0E9423212FC081E00E943321FD
:1034B00081E08C1548F582E00E94332125C0DD2093
:1034C00031F0CC2081F2862F0E94BA161DC0CC208C
:1034D00089F2693349F49FEFE7EEF3E09150E04061
:1034E000F040E1F700C00000862F0E94C9170CC011
:1034F0004F70C4010E940A0B0E948D1E15C04F70B0
:10350000C4010E945D0F10C028E0E216F10441F0F2
:103510005CF09AE0E91AF108E2E0EE16F10420F41A
:103520000E9401150E945B0FBB20F1F00E94F32066
:1035300080FD1AC0F40112820E94ED200E94761FC5
:10354000C4010E94C21A0E94ED200F900F90DF91DB
:10355000CF911F910F91FF90EF90DF90CF90BF9090
:103560009F908F900C94911F0F900F90DF91CF91AF
:103570001F910F91FF90EF90DF90CF90BF909F90A1
:103580008F9008950F931F93CF93DF93EC012881C1
:1035900039818B819C81892B31F03F3F11F080E094
:1035A00003C02F3FE1F781E0811113C0CE010E94DB
:1035B000970D882371F0688179818A810E94A72004
:1035C0008C010E9401200E941A1FB801CE010E94A6
:1035D0003818DF91CF911F910F9108950E947821A3
:1035E0000E94882180916101909162010E94EB22EA
:1035F0000E949B210E9485260E946F2580E090E01A
:103600000E945D1580E090E00C9473150E94652186
:103610000C94EE1A0E949C20E92FE295EF70F0E0E6
:103620003297EE30F105B8F4ED53FF4F0C94903221
:10363000803F59F018F4803E70F407C0843F59F47D
:1036400004C0803E10F0813F31F481E0089593FB87
:10365000882780F9089580E00895CF93DF9300D004
:1036600000D01F92CDB7DEB70F900F900F900F9044
:103670000F90DF91CF910895CF93DF9300D000D0CA
:1036800000D0CDB7DEB726960FB6F894DEBF0FBEDA
:10369000CDBFDF91CF9108951F93CF93DF93C0915A
:1036A000D00116E08091D101C81799F0D0E01C9F9D
:1036B000F0011D9FF00D1124EE52FE4F408151810B
:1036C00062817381848195810E943C1B2196C77021
:1036D000E9CFDF91CF911F9108954091020250915F
:1036E000030260910402709105028091060290919C
:1036F00007020C943C1BCF938091070282958F7038
:1037000009F05FC080910402882309F45AC0209117
:10371000D001A091D10160910202709103028091C9
:1037200005029091060231E06F3F09F030E0B32FBF
:10373000C6E02A1709F445C0009721F07F3F21F425
:103740004B2F03C041E001C040E030E040FD35C0F8
:10375000C29FF001C39FF00D1124EE52FE4F418134
:1037600074132BC04081641328C04281411125C0CD
:10377000438154814817590710F441505109481B9F
:10378000590B4A3F5105C8F4809107028F70806140
:103790008093070286E0829FF001839FF00D112441
:1037A000E952FE4F80818F708061808382E092E0D9
:1037B0000E94C21ACF910C944C1B2F5F3F4F277071
:1037C000B8CFCF910895CF92DF92EF92FF920F93EF
:1037D0001F93CF93DF93CDB7DEB762970FB6F89400
:1037E000DEBF0FBECDBF8C0185E0F801DE011D9666
:1037F00001900D928A95E1F7D8014C9111965C9158
:10380000119712966C9112971396ED90FC90149765
:1038100070910202E09103022091050230910602AC
:103820002115310531F0EF3F31F481E07F3F19F48C
:1038300003C081E001C080E0B82FB170CB2E80FDC5
:103840006BC1D0900402DD2009F4F5C0F0910702AD
:10385000E216F30638F0C701821B930B8A3F9105ED
:1038600048F09DC0209530952E0D3F1D2A3F310513
:1038700008F095C08F2F807F09F052C0E51314C067
:10388000741312C0D62E61110FC0FF70F061F09357
:1038900007020E946D1B82E092E00E94C21A809192
:1038A0000702F80185837CC1EF2831F05F3F31F4D6
:1038B00081E04F3F19F403C081E001C080E080FD4A
:1038C00003C081E0862701C080E0F82FF170FF2E51
:1038D00080FF1CC08091D0012091D10136E0821779
:1038E00009F438C190E0389FF001399FF00D1124A0
:1038F000EE52FE4F7181571306C07081471303C00B
:103900007281671303C001968770E9CFD62E6623B4
:1039100009F446C18091070281608093070255C077
:10392000E51308C0741306C0611104C0D8011596D0
:10393000FC93AEC04D875E878D859E856A8B0E9405
:103940000A1B6A89882329F1D62E662311F120915A
:103950000702822F82958F7090E002970CF462C06C
:10396000809102029091030298878F831986FB86CB
:10397000EA862C87CE01079653C0E51741F14D87A3
:103980005E878D859E856A8B0E940A1B6A898111DC
:1039900030C0C8010E94C21ADD24D39401C18F2F08
:1039A000807F59F77E2DF98AE88A89890E942D1B2C
:1039B00082E092E00E94C21AE2E0F2E086E0DF01DB
:1039C0001D928A95E9F70E946D1BD12CE9C07413F2
:1039D000D6CF6111D4CFD8011596FC93C8010E94AF
:1039E000C21AE2E0F2E086E0DF011D928A95E9F773
:1039F000D7C0D62E662369F220910702822F8295C6
:103A00008F7090E0029774F080910202909103020F
:103A10009A8389831B82FD82EC822E83CE010196DC
:103A20000E94C21A86E0F801A2E0B2E001900D9275
:103A30008A95E1F78AC0E216F30628F0C701821BD7
:103A4000930B9C0104C0209530952E0D3F1D2A3FFD
:103A5000310508F053C0D62E662309F49ACFE5133A
:103A60002CC074132AC08091070280FD1DC0982FBE
:103A700092959F70C9F0D80115968C9315979F3039
:103A800039F09F5F9295907F8F70892B15968C935C
:103A9000C8010E94C21A86E0F801A2E0B2E00190DB
:103AA0000D928A95E1F753C086E0F801A2E0B2E0FA
:103AB00001900D928A95E1F773C04D875E878D85E1
:103AC0009E850E940A1B882381F096E0F801A2E0FF
:103AD000B2E001900D929A95E1F78A8B0E947B1BD0
:103AE0000E946D1B8A89D82E5BC08091070281607D
:103AF00080930702C8010E94C21A52C07E2DF98A23
:103B0000E88A89890E942D1BE2E0F2E086E0DF016D
:103B10001D928A95E9F71BC0662309F43ACF4D87B9
:103B20005E878D859E850E940A1BD82E882309F406
:103B300030CF86E0F801A2E0B2E001900D928A95C4
:103B4000E1F782E092E00E94B4160E947B1B0E9483
:103B50006D1B26C04D875E878D859E850E949C20AB
:103B6000292F22952F7030E0223031052CF49F70E0
:103B700041F0811106C00CC0243031052CF49F7037
:103B800049F4805E883020F0C8010E94C21ACF2C10
:103B9000DC2C06C0D80115969C91907F91F7F8CF48
:103BA0008D2D62960FB6F894DEBF0FBECDBFDF91AC
:103BB000CF911F910F91FF90EF90DF90CF900895DC
:103BC0001F93CF93DF93CDB7DEB72C970FB6F89442
:103BD000DEBF0FBECDBF4F83588769877A878B873B
:103BE0009C87CE0107960E94E31B8823C1F02F819A
:103BF00038858A859B85892B31F03F3F11F080E025
:103C000003C02F3FE1F781E0811147C04F81588504
:103C100069857A858B859C850E943C1B3EC086E029
:103C2000FE013796DE01119601900D928A95E1F71B
:103C3000FF81E8854A855B854115510531F0EF3FED
:103C400031F481E0FF3F19F403C081E001C080E05E
:103C500080FD23C02091D10130E0C9010196877019
:103C600099276091D00170E086179707F1F1F983E9
:103C7000EA835D834C8396E0929FD001939FB00DC1
:103C80001124AE52BE4FFE01319601900D929A95CD
:103C9000E1F78093D1010E944C1B16E08091D00186
:103CA0009091D101891779F1189FC00111248E528A
:103CB0009E4F0E94E31B882331F1E091D0011E9FAB
:103CC000F0011124EE52FE4F4081518162817381D7
:103CD000848195810E943C1B8091D00190E00196E7
:103CE000877099278093D001D9CF0E94061B10922C
:103CF000D1011092D001E2E0F2E086E0DF011D92F6
:103D00008A95E9F7CACF2C960FB6F894DEBF0FBE9E
:103D1000CDBFDF91CF911F910895EF92FF920F9346
:103D20001F93CF93DF93FC01009709F46FC0F12C30
:103D3000EE24E394EF0121968491843740F484309B
:103D400008F055C0813081F0823021F15FC08537A5
:103D500009F447C0C0F19CE7980F903708F056C0AF
:103D60008F770E94C91745C08F010E5F1F4FFE015C
:103D7000849190E2980F983050F48770FE2D01C026
:103D8000FF0F8A95EAF78F2F0E947B2115C00E94B2
:103D9000BA1614C08F010E5F1F4FFE01849190E28E
:103DA000980F983068F48770FE2D01C0FF0F8A9538
:103DB000EAF78F2F0E9481210E949B21E80119C000
:103DC0000E94C917FBCFCF010296FE01C491CC23FC
:103DD00061F0EFE9FFE03197F1F700C00000C1505A
:103DE000F6CFCF010296FE01F490EC0102C00E94D2
:103DF000BA168F2D882341F0EFE9FFE03197F1F7F4
:103E000000C000008150F6CFFE0194CFDF91CF912A
:103E10001F910F91FF90EF90089508950E940D1F3C
:103E200060932F027093300280933102909332029C
:103E30000C94EE1A08950C940E1F0F931F9300918B
:103E40002F02109130022091310230913202602B0A
:103E5000712B822B932B1F910F910C940E1F0F939C
:103E60001F9300912F021091300220913102309166
:103E7000320260237123822393231F910F910C94AC
:103E80000E1F0F931F9300912F021091300220916B
:103E900031023091320260277127822793271F91C8
:103EA0000F910C940E1F08950C94531F0E94541FE1
:103EB00060932B0270932C0280932D0290932E021C
:103EC0000C94EE1A60E070E0CB010C94561F41E0B8
:103ED00050E060E070E004C0440F551F661F771F7C
:103EE0008A95D2F7CB01BA010C94561F41E050E0FD
:103EF00060E070E004C0440F551F661F771F8A956D
:103F0000D2F780912B0290912C02A0912D02B091BA
:103F10002E02482B592B6A2B7B2BCB01BA010C9418
:103F2000561F41E050E060E070E004C0440F551FB0
:103F3000661F771F8A95D2F74095509560957095CA
:103F400080912B0290912C02A0912D02B0912E0213
:103F5000482359236A237B23CB01BA010C94561FB3
:103F600041E050E060E070E004C0440F551F661F60
:103F7000771F8A95D2F780912B0290912C02A09105
:103F80002D02B0912E02482759276A277B27CB01A3
:103F9000BA010C94561F0F931F9300912B0210919E
:103FA0002C0220912D0230912E02602B712B822B3E
:103FB000932B1F910F910C94561F0F931F930091F9
:103FC0002B0210912C0220912D0230912E026023A1
:103FD0007123822393231F910F910C94561F0F93EB
:103FE0001F9300912B0210912C0220912D023091F1
:103FF0002E0260277127822793271F910F910C941F
:10400000561F08952AE0929F800D1124482F46954F
:10401000469546958770B1E001C0BB0F8A95EAF7D7
:1040200085E0489FA0011124485F5D4F80E090E04B
:1040300070E0FA01E80FF91FA0819B01082E02C071
:10404000369527950A94E2F72170332721952A2780
:104050002B232A27208301968530910551F7089557
:104060002AE0929F800D1124682F669566956695CB
:10407000982F977085E0689FB0011124685F7D4F8D
:1040800040E050E080E0FB01E40FF51F208130E0CC
:10409000092E02C0369527950A94E2F7217033273E
:1040A000042E01C0220F0A94EAF7822B4F5F5F4F64
:1040B0004530510541F70895CF92DF92EF92FF927C
:1040C0000F931F93CF93DF93EC01C0902F02D090FA
:1040D0003002E0903102F090320280912B029091F8
:1040E0002C02A0912D02B0912E02C82AD92AEA2AC8
:1040F000FB2A0FE110E0B701A601002E04C076955F
:104100006795579547950A94D2F740FD05C0015031
:10411000110988F780E007C0BE01802F0E94780F48
:104120000197A9F3802FDF91CF911F910F91FF90FD
:10413000EF90DF90CF900895CF93DF93EC010E9432
:104140005C20BE010E94780FDF91CF9108951F93EC
:10415000CF93DF93EB019091CF01992321F0CB0115
:104160000E949C2013C0882349F0CB010E945C2050
:10417000182F682FCE010E94022004C0CB010E949C
:104180003020182FBE01812F0E94780FDF91CF9130
:104190001F9108950E946F232091360230913702BB
:1041A0008217930750F00E946F23209136023091BE
:1041B0003702821B930B9C010AC00E946F2320913F
:1041C00036023091370220953095280F391F81E053
:1041D000243F314008F480E00895809135028595B0
:1041E00085958595089580913502877008950E9480
:1041F0006F2320913302309134028217930768F0C5
:104200000E946F232091330230913402821B930B62
:10421000843F914078F480E014C00E946F23209185
:1042200033023091340220953095280F391F243FF6
:10423000314088F38091350282FB882780F991E034
:1042400089278170089598E0899F90011124622B3D
:10425000609335020E94761F0E946F239093340270
:104260008093330208954091350280958423809392
:104270003502982F977089F450E0282F332727FDB7
:1042800030954217530749F08595859585950E948D
:10429000911F1092340210923302089590913502CA
:1042A000977081E009F480E0089580915B020895A1
:1042B00090915B02982B90935B020895809590916A
:1042C0005B02982390935B02089510925B0208951D
:1042D00080915A02089590915A02982B90935A0215
:1042E0000895809590915A02982390935A020895C8
:1042F00010925A02089590915902982B9093590266
:1043000008958095909159029823909359020895A9
:10431000109259020895809338020E946F2390935F
:1043200037028093360208951092380210923702B5
:10433000109236020895E0916101F091620180913E
:104340005B028083E0916101F09162018081909134
:104350005A02892B8083E0916101F0916201808192
:1043600090915902892B808380913802882321F112
:104370000E94CA20882371F080915C0280FF08C0EF
:1043800084ED98E09F938F930E94350A0F900F90D1
:104390000E949421E0916101F091620180819091ED
:1043A0003802892B808380916101909162010E9483
:1043B0004C2281110E9494218091610190916201AF
:1043C0000C940D1580913802089590939901809373
:1043D000980108958295982F9C7C96959695837365
:1043E00044E0849F90011124922B892F8A7A86952C
:1043F0009575990F892B08951F93CF93DF931F9283
:10440000CDB7DEB799830E94EA21182F9981892FB1
:104410000E94EA21212F30E0322F2227A901482BC8
:10442000CA010F90DF91CF911F9108956DEE7EEF3D
:1044300080E090E00E94CA3260E082E090E00E945A
:10444000B83260E083E090E00E94B83260E084E03F
:1044500090E00E94B83260E085E090E00C94B832C1
:1044600080E090E00E94B23221E08D3E9E4F09F044
:1044700020E0822F089582E090E00C94AA3283E03D
:1044800090E00C94AA3284E090E00C94AA32682F59
:1044900084E090E00C94B83220E030E040E0FC0191
:1044A000E20FF31F518151114F5F2F5F3F4F2F31AB
:1044B0003105A9F7842F089520E030E04FEFFC018B
:1044C000E20FF31F5281561799F04F3F19F4511123
:1044D00001C0422F2F5F3F4F2E31310581F74F3FF3
:1044E00039F0FC01E40FF11D47FDFA956283089550
:1044F000089520E030E0FC01E20FF31F42814613F3
:1045000001C012822F5F3F4F2E313105A1F7089570
:10451000262F2695269526952F3178F4FC01E20F5B
:10452000F11D677021E030E0062E01C0220F0A94D1
:10453000EAF78181822B8183089580915C0280FF5C
:104540000CC01F926F9384E099E09F938F930E9419
:10455000350A0F900F900F900F900895262F2695F3
:10456000269526952F3180F4FC01E20FF11D67702E
:1045700021E030E0062E01C0220F0A94EAF72095D0
:10458000818128232183089580915C0280FF0CC0E3
:104590001F926F9386EE98E09F938F930E94350A47
:1045A0000F900F900F900F90089520917301222388
:1045B00029F02091960227FD0C9488220C945C220D
:1045C00020917301222329F02091960227FD0C945B
:1045D000AE220C94792220E030E0FC01E20FF31FC0
:1045E00011822F5F3F4F2F313105B9F70895809128
:1045F0009C02843021F110925D0220E488E190E079
:104600000FB6F894A895809360000FBE20936000C9
:1046100080E00E945B0F83B7817F846083BF83B794
:10462000816083BF7894889583B78E7F83BF88E14C
:104630000FB6F89480936000109260000FBE08954A
:1046400008950895CF930E9420230E94400A0E945B
:104650002123C0E08C2F0E949D0A892B29F4CF5F73
:10466000C530C1F780E001C081E0CF9108950E947C
:10467000061B0E9401150C945B0F1F920F920FB640
:104680000F9211248F939F93AF93BF9380915D02FC
:10469000811113C08091920290919302A091940293
:1046A000B09195024196A11DB11D80939202909305
:1046B0009302A0939402B0939502BF91AF919F9102
:1046C0008F910F900FBE0F901F90189582E084BDC0
:1046D00093E095BD9AEF97BD80936E0008952FB734
:1046E000F8948091920290919302A0919402B091DB
:1046F00095022FBF08952FB7F894609192027091A0
:10470000930280919402909195022FBF0895CF92C9
:10471000DF92EF92FF920F931F932FB7F89440917F
:1047200092025091930260919402709195022FBF72
:104730006A017B01EE24FF248C0120E030E0C016EA
:10474000D106E206F30610F441505109481B590BFB
:10475000CA011F910F91FF90EF90DF90CF900895C5
:1047600078941F920F920FB60F9211248F939F93FC
:10477000AF93BF938091920290919302A091940283
:10478000B09195020196A11DB11D80939202909364
:104790009302A0939402B0939502BF91AF919F9121
:1047A0008F910F900FBE0F901F90189587E797E796
:1047B00090930108809300082AE088E190E00FB60A
:1047C000F894A895809360000FBE20936000FFCFFF
:1047D0000E943022811102C00E9416220E943B22B8
:1047E00080935C020E94432290E090939702809312
:1047F00096020E943F22682F70E080E090E00C94C7
:104800001B1F8091600280FF0BC06091660185E0F4
:10481000689FB001112475956795759567952AC0B5
:1048200081FF09C06091660185E0689FB001112495
:10483000759567951FC082FF07C06091660185E08E
:10484000689FB001112416C0409161024423C9F051
:1048500060916501461788F72091660185E0289FE1
:1048600090011124429FC001439F900D112470E0DC
:104870000E947C326038710540F46115710539F091
:1048800002C065E070E0862F08958FE7089581E00B
:1048900008958091600280FF08C06091640170E01B
:1048A000759567957595679521C081FF06C06091E4
:1048B000640170E07595679519C082FF04C060912E
:1048C000640170E010C0809161028823C1F06091A2
:1048D00063018617A0F790916401989FC00111248D
:1048E00070E00E947C326038710528F46115710512
:1048F00021F0862F08958FE7089581E0089561E003
:1049000070E0F4CF803F21F40E940124819504C01F
:10491000813F29F40E940124809364020895823F1C
:1049200021F40E940124819504C0833F29F40E9450
:104930000124809363020895893F19F40E94492459
:1049400005C08A3F31F40E94492481958093650215
:1049500008958B3F21F40E944924819504C08C3F27
:1049600029F40E944924809366020895843F21F42B
:1049700080916202816017C0853F21F480916202BC
:10498000826011C0863F21F48091620284600BC076
:10499000873F21F480916202886005C0883F31F42E
:1049A0008091620280618093620208958D3F21F4BC
:1049B0008091600281600BC08E3F21F48091600283
:1049C000826005C08F3F29F48091600284608093EB
:1049D00060020895803F39F48091640287FF6CC0C3
:1049E0001092640269C0813F29F480916402181614
:1049F000BCF362C090916302823F29F497FF5CC0D0
:104A00001092630259C0833F19F41916CCF354C0B5
:104A1000893F41F48091650218160CF04DC0109248
:104A200065024AC08A3F29F48091650287FF44C02D
:104A3000F6CF8B3F39F48091660287FF3DC010921C
:104A400066023AC08C3F29F4809166021816BCF3C6
:104A500033C0843F21F4809162028E7F17C0853F6E
:104A600021F4809162028D7F11C0863F21F48091F4
:104A700062028B7F0BC0873F21F480916202877FA7
:104A800005C0883F31F4809162028F7E809362027C
:104A900013C08D3F21F4809160028E7F0BC08E3F4A
:104AA00021F4809160028D7F05C08F3F29F48091B1
:104AB00060028B7F809360028091630281110EC03F
:104AC0008091640281110AC080916502811106C043
:104AD00080916602811102C0109261020895809156
:104AE0005C0283FF7EC089E499E00E949C0980916A
:104AF00062021F928F9384E499E09F938F930E94A8
:104B0000350A82E499E00E949C0920916302822F79
:104B1000992787FD90959F932F938FE399E09F931B
:104B20008F930E94350A8DE399E00E949C092091A1
:104B30006402822F992787FD90959F932F938AE394
:104B400099E09F938F930E94350A88E399E00E9431
:104B50009C0920916502822F992787FD90959F934C
:104B60002F9385E399E09F938F930E94350A83E307
:104B700099E00E949C0920916602822F992787FD67
:104B800090959F932F9380E399E09F938F930E943A
:104B9000350A8DE299E00E949C09809161021F9282
:104BA0008F938AE299E09F938F930E94350A88E25F
:104BB00099E00E949C09809160021F928F9385E288
:104BC00099E09F938F930E94350A82E299E00E94B8
:104BD0009C098DB79EB74C960FB6F8949EBF0FBE3A
:104BE0008DBF82E692E00E9452150E946F2390933F
:104BF0005F0280935E0208951F93CF93DF938091AD
:104C00005E0290915F020E948723409161024423DB
:104C100021F02091670130E006C0209168015AE040
:104C2000259F900111248217930708F46AC0809190
:104C3000630210916402D0916502C09166028111F5
:104C400007C0111105C0D11103C0CC2309F459C00C
:104C50004F3F19F04F5F40936102181624F40E94F1
:104C60000124809363028091630287FF05C00E9444
:104C70000124819580936302111624F40E9401247B
:104C8000809364028091640287FF05C00E94012422
:104C900081958093640220916302222379F04091F0
:104CA0006402442359F055EB2503900111243093FD
:104CB00063024503C0011124909364021D1624F47D
:104CC0000E944924809365028091650287FF05C098
:104CD0000E9449248195809365021C1624F40E9449
:104CE0004924809366028091660287FF05C00E9476
:104CF0004924819580936602DF91CF911F910C9496
:104D00006F25DF91CF911F910895E2E6F2E085E0F3
:104D1000DF011D928A95E9F71092610210926002FC
:104D200008958CE69BE00E949C091F9281E08F937E
:104D30001F9285E08F938EE19BE09F938F930E945B
:104D4000350A0F900F900F900F900F900F900895CD
:104D50008330E9F128F4813061F0823009F108955F
:104D6000853009F462C008F449C0863009F474C083
:104D7000089520916801862F90E0820F911D8F3F4A
:104D8000910520F4620F6093680103C08FEF809358
:104D90006801809168011F928F9387E59AE072C045
:104DA00020916701862F90E0820F911D8F3F910522
:104DB00020F4620F6093670103C08FEF8093670157
:104DC000809167011F928F9385E49AE05BC02091E8
:104DD0006601862F90E0820F911D8F3F910520F490
:104DE000620F6093660103C08FEF8093660180912C
:104DF00066011F928F9382E39AE044C0209165017F
:104E0000862F90E0820F911D8F3F910520F4620F55
:104E10006093650103C08FEF809365018091650108
:104E20001F928F938DE19AE02DC020916401862F0F
:104E300090E0820F911D8F3F910520F4620F6093E7
:104E4000640103C08FEF80936401809164011F921D
:104E50008F9384E09AE016C020916301862F90E042
:104E6000820F911D8F3F910520F4620F60936301C3
:104E700003C08FEF80936301809163011F928F9332
:104E800089EE99E09F938F930E94350A0F900F90BF
:104E90000F900F900895833081F128F4813059F0FC
:104EA0008230D1F00895853009F449C0B8F18630D8
:104EB00009F456C0089580916801681720F4861B94
:104EC0008093680102C010926801809168011F926E
:104ED0008F938AED99E054C080916701681720F4A0
:104EE000861B8093670102C0109267018091670161
:104EF0001F928F9388EC99E043C0809166016817F8
:104F000020F4861B8093660102C010926601809196
:104F100066011F928F9385EB99E032C08091650105
:104F2000681720F4861B8093650102C0109265010A
:104F3000809165011F928F9380EA99E021C0809152
:104F40006401681720F4861B8093640102C01092EC
:104F50006401809164011F928F9387E899E010C0EB
:104F600080916301681720F4861B8093630102C05F
:104F700010926301809163011F928F938CE699E0F8
:104F80009F938F930E94350A0F900F900F900F9070
:104F90000895CF93C82F1F928F9321E73CE03F9352
:104FA0002F930E94350A61E070E080E090E004C039
:104FB000660F771F881F991FCA95D2F70E941B1F83
:104FC0000F900F900F900F90CF910C94061BCF93E2
:104FD0008732A8F58E3108F02EC1803109F49DC0CA
:104FE000F8F4873009F465C0A8F4863009F029C1C7
:104FF00080915C02817F8E7F80935C0286E19EE0DF
:105000000E949C0987E790E10E949C0981E08093BF
:1050100068024DC08B30F1F18E3009F46BC011C1C4
:10502000863109F4ADC020F4813109F4EDC009C125
:10503000893109F48EC08B3109F449C002C188332B
:1050400049F150F4893209F4F8C0853309F4F5C008
:10505000873209F4F2C0F5C0833409F4EEC028F4B5
:105060008A3308F4EEC08953E9C0883409F0E9C0F6
:105070000E94061B8BE590E10E949C092FEF83EDB7
:1050800090E3215080409040E1F700C000000E9472
:10509000D6230DC08DE39EE059C082E490E10E94CA
:1050A0009C0980915C02897F877F80935C02C1E0CC
:1050B000CDC080915C02C82FC095C170C0FB80F943
:1050C00080935C02CC2349F38FE490E1AEC08091E1
:1050D0005C0281FBCC27C0F991E0C927C0FB81F9B4
:1050E00080935C02CC2319F085E390E125C087E230
:1050F00090E12CC080915C0282FBCC27C0F991E04A
:10510000C927C0FB82F980935C02CC2319F088E1A7
:1051100090E112C088E090E119C080915C0283FBAD
:10512000CC27C0F991E0C927C0FB83F980935C02CA
:10513000CC2351F08CEF9FE00E949C0980915C028F
:10514000816080935C0282C08FEE9FE00E949C0988
:10515000AECF87E09EE00E949C0981ED9DE00E9419
:105160009C0988E99DE00E949C0980E69DE00E94E0
:105170009C0985E29DE00E949C0987EF9CE0E6CFB8
:1051800089EE9CE00E949C090E9401151F928F935A
:105190008FEC9CE09F938F930E94350A809173015E
:1051A0001F928F9388EB9CE09F938F930E94350A08
:1051B00080918D021F928F9385EA9CE09F938F933D
:1051C0000E94350A8091960287FB882780F91F92FA
:1051D0008F938DE89CE09F938F930E94350A0E94E5
:1051E0007B239F938F937F936F9386E79CE09F939E
:1051F0008F930E94350A8DB79EB746960FB6F894E6
:105200009EBF0FBE8DBF53CF0E94061B809196029A
:1052100087FBCC27C0F991E0C927C0FB87F98093B1
:105220009602CC2329F085EE9FE00E949C090EC0D7
:105230008AED9FE08BCF8D5101C080E00E94C9278D
:1052400036CF88ED9FE00E949C09C0E08C2FCF9163
:10525000089580E0089580E008958E518A3030F4FA
:10526000E82FF0E0EC58FE4F8081089580E008952B
:10527000CF93C82F80916802813071F020F0823086
:1052800009F448C03CC1E0916101F0916201808164
:10529000823209F036C107C0E0916101F0916201EC
:1052A0008081823249F48C2F0E94292981112FC0DC
:1052B0008C2F0E94E7272CC08C2F0E942B29811154
:1052C00026C0C431E1F070F4CB3081F0C031D1F4AC
:1052D0000E94912689E69CE00E949C0982E08093CE
:1052E000680215C0C93259F0C83361F486E19EE006
:1052F0000E949C098DE69CE00E949C0908C01092C7
:10530000680201C187E69CE00E949C09FCC081E024
:105310008170FBC0C43228F5CE3108F0C1C0CB305B
:10532000A1F1D0F4C73009F0D0C08EE180936801BC
:1053300082E3809367018AE08093660184E1809331
:10534000650188E08093640188E2809363018DE0C9
:105350009BE00E949C09BCC0C33149F1C431C1F03B
:10536000B4C0CB3409F4A6C028F4C93289F0C833DC
:1053700061F0ABC0C13509F49BC0C23509F496C0D9
:10538000CE3409F0A2C06AE09BC00E949126A0C062
:1053900080916702882319F01092670299C08AE110
:1053A0009BE00E949C0981E080936802AEC084EF7C
:1053B0009AE00E949C0982EE9AE00E949C098091EA
:1053C00068011F928F938FED9AE09F938F930E94B5
:1053D000350A8DED9AE00E949C098BEC9AE00E94C0
:1053E0009C09809167011F928F9388EC9AE09F93AC
:1053F0008F930E94350A86EC9AE00E949C0987EB05
:105400009AE00E949C09809166011F928F9384EB21
:105410009AE09F938F930E94350A82EB9AE00E9454
:105420009C0981EA9AE00E949C09809165011F9283
:105430008F938EE99AE09F938F930E94350A8CE9AF
:105440009AE00E949C0987E89AE00E949C0980915A
:1054500064011F928F9384E89AE09F938F930E9438
:10546000350A82E89AE00E949C098BE69AE00E9445
:105470009C09809163011F928F9388E69AE09F9325
:105480008F930E94350A86E69AE00E949C098DB7A8
:105490009EB748960FB6F8949EBF0FBE8DBF18C03A
:1054A0008C2F0E942D298093670212C061E003C0F7
:1054B00061E006C06AE0809167020E94A82608C0E9
:1054C000809167020E944B2703C08BE09BE013C0D2
:1054D00080916702882369F01F928F9385E09BE09B
:1054E0009F938F930E94350A0F900F900F900F900B
:1054F00004C082E09BE00E949C0981E006C01092FB
:10550000680280E002C080E003CFCF9108958091CF
:105510008C0208959FB7F89410926B029FBF9091F0
:105520009C02943009F058C09091E9009F7020913E
:10553000EC0020FF02C020E801C020E0292B94E00D
:105540009093E9009091EB0090FF43C09091EE00A2
:1055500097FF3FC090916902992321F09091E80054
:1055600095FF37C01092690296E03091E80035FD52
:1055700015C030919C02343061F53091EB0035FD5F
:1055800028C0915021F481E08093690222C0EFE9A4
:10559000FFE03197F1F700C00000E7CF8093F10002
:1055A0008091E80085FD0AC08091E80080FFFCCF73
:1055B0008091E8008E778093E80006C08FB7F8945A
:1055C00091E090936B028FBF2F702093E90080E0F1
:1055D00008952F702093E9008FEF08950F931F9384
:1055E000CF93DF9300D01F92CDB7DEB78C010E941E
:1055F000C52D823011F0843019F583E089831B8337
:105600000A838093E9008FEF9091E800815095FD27
:1056100006C095ED9A95F1F700008111F5CF8091C4
:10562000E80085FF0DC040E050E063E070E0CE018F
:1056300001960E94E22D8091E8008E778093E80029
:105640000F900F900F90DF91CF911F910F910895C0
:10565000CF93DF9300D01F92CDB7DEB720919C028D
:10566000243031F522E02983805891099B838A8375
:1056700083E08093E9008FEF9091E800815095FDE1
:1056800006C095ED9A95F1F700008111F5CF809154
:10569000E80085FF0DC040E050E063E070E0CE011F
:1056A00001960E94E22D8091E8008E778093E800B9
:1056B0000F900F900F90DF91CF910895CF93DF93CC
:1056C000EC010E94C52D823011F08430F9F482E0A3
:1056D0008093E9008FEF9091E800815095FD06C01E
:1056E00095ED9A95F1F700008111F5CF8091E800D2
:1056F00085FF0CC040E050E065E070E0CE010E9404
:10570000E22D8091E8008E778093E800DF91CF91C1
:105710000895CF93DF93EC010E94C52D823019F0DC
:10572000843009F047C0809173018823E1F08091B3
:10573000960287FF18C085E08093E9008FEF909173
:10574000E800815095FD06C095E19A95F1F70000BB
:105750008111F5CF8091E80085FF2CC040E050E03A
:1057600060E270E017C081E08093E9008FEF9091D4
:10577000E800815095FD06C095ED9A95F1F700007F
:105780008111F5CF8091E80085FF14C040E050E022
:1057900068E070E0CE010E94E22D8091E8008E77F3
:1057A0008093E80080E2FE01ACE6B2E001900D9249
:1057B0008A95E1F7DF91CF91089580EA90E10E9408
:1057C0009C0980919B02811109C00E94742F0E9444
:1057D000D12F8091E20084608093E20008958CE9EB
:1057E00090E10E949C0910929B02089588E990E143
:1057F0000C949C0984E990E10C949C0980E990E167
:105800000E949C090C94372380916A028F5F8093D9
:105810006A0262E30E947032911135C010926A02EE
:1058200080916B02882379F180919C02843049F544
:105830008091E9008F709091EC0090FF02C090E899
:1058400001C090E0982B84E08093E9008091EB0008
:1058500080FF14C08091EE0087FF10C08091E800A7
:1058600085FF03C01092F100F9CF8091E80080FF1E
:1058700005C08091E8008E778093E8009F70909338
:10588000E90010926B02089542E061EC81E00E9411
:10589000EE2E42E061EC82E00E94EE2E42E061ECEE
:1058A00083E00E94EE2E42E261EC84E00E94EE2E44
:1058B00042E261EC85E00C94EE2E80919E028330F2
:1058C00009F455C030F4813071F0823009F48EC093
:1058D00008958A3009F47AC08B3009F460C08930A9
:1058E00009F09CC020C080919D02813A09F096C0C9
:1058F0008091E800877F8093E8008091A1029091D9
:10590000A202892B21F060E080E090E003C060E219
:105910008CE692E070E00E942B2E8091E8008B775D
:105920008093E800089580919D02813209F076C04D
:105930008091A1029091A202009719F0049709F0BA
:105940006DC08091E800877F8093E8008091E80037
:1059500082FD05C080919C028111F8CF5FC08091CB
:10596000F10080938C028091E8008B7753C0809186
:105970009D02813A09F052C08091A1029091A20249
:10598000892B09F04BC08091E800877F8093E80065
:105990008091E80080FFFCCF8091730136C0809138
:1059A0009D028132D9F58091A1029091A202892BAA
:1059B000A9F58091E800877F8093E8000E94232F5B
:1059C00080919F02809373010C94061B80919D022D
:1059D000813221F58091E800877F8093E8000E9462
:1059E000232F8091A00280938D02089580919D02C3
:1059F000813AA1F48091E800877F8093E80080914C
:105A0000E80080FFFCCF80918D028093F1008091AF
:105A1000E8008E778093E8000C94232F089584B7D4
:105A2000877F84BF88E10FB6F8948093600010925E
:105A300060000FBE80E880936100109261000E94B8
:105A40008A150E94742F0E94D12F8091E2008460F9
:105A50008093E2008AE89AE20E94E52178940E940D
:105A600053320E948E1589E691E00E94FC148FE764
:105A700090E10E949C0980919C02853089F48BE71B
:105A800090E10E949C090E94F72280919A0288234B
:105A900091F30E942223882371F30E94CC2DEBCF37
:105AA0000E94BC15E8CF0C94552D292F33272330A5
:105AB0003105A9F06CF42130310509F448C02230D9
:105AC000310509F049C08DE890E026ED30E148C08D
:105AD00021323105F9F02232310549F13DC09927D3
