:100000000C947E090C94C2090C94C2090C94C20988
:100010000C94C2090C94C2090C94C2090C94C20934
:100020000C94C2090C94C2090C94AC2F0C947E3031
:100030000C94FA220C94C2090C94C2090C94C209C3
:100040000C94C2090C94C2090C94C2090C94C20904
:100050000C94C2090C946D230C94C2090C94C2092F
:100060000C94C2090C94C2090C94C2090C94C209E4
:100070000C94C2090C94C2090C94C2090C94C209D4
:100080000C94C2090C94C2090C94C2090C94C209C4
:100090000C94C2090C94C2090C94C2090C94C209B4
:1000A0000C94C2090C94C2090C94C2094C0BC80CE4
:1000B000C80CC80CC80CC80CC80CC80CC80C5C0B0D
:1000C000790B830BA00BC80CC80CC80CC80CC80C4F
:1000D000C80CAA0BC70BD10BEE0BC80CC80CC80C74
:1000E000C80CC80CC80CF80B150C1F0C3C0CC80C29
:1000F000C80CC80CC80CC80CC80C460C630CC80C47
:10010000C80CC80CC80CC80CC80CC80CC80C6D0CAA
:10011000850C960CA70CB80C770E7D0E810E840E04
:10012000880E8C0E900E940E990E9D0EA10EA50EAB
:10013000A80EAC0EB00EB40EB80EBD0E37183718A0
:1001400071187118B018D218411A411A1819411AA9
:10015000BF19BF19351A411A411A3C1ACC19CC19CA
:10016000CC19CC19CC19CC19CC19CC19CC19CC1967
:10017000CC19CC19CC19CC19CC19CC19DE19EE1923
:10018000F519FC19061AD51AD51AE81AE81ADE1A52
:10019000E81AE81AE81AD51AD51AE41AE81AE81A79
:1001A000E41AE3300A31F8310A31F831523175314D
:1001B000F831CB31DA310A002530313662003A208D
:1001C0000025303258000A722F6320303132333428
:1001D00035363738394142434445460A0001E1018A
:1001E000E00119021902E002E10001E00106020645
:1001F00002E00001E101E00119021902E002E10060
:1002000001E0011B021B02E00001E0011C021C02D4
:10021000E00001E0011D021D02E00001E001190201
:100220001902E00001E00106020602E00001E0011F
:1002300019021902E00001E0011B021B02E00002AA
:100240002D00012A012D00021600011600023300C4
:10025000012A01E101330002120001E10112000252
:100260003300012A0133000212000112000234009F
:10027000012A01E101340002040001E1010400024D
:100280003400012A013400020400010400022F009E
:10029000012A01E1012F0002180001E1011800020A
:1002A0002F00012A012F0002180001180002E100AE
:1002B00001E10013000A30000036001400190006A6
:1002C000000F00100005000B000C00080014301E89
:1002D00030070017001500110028300E001D000522
:1002E0008037001B000D000A001C001A00090000E6
:1002F000000A5809580C5101574C49284D03572BF7
:10030000000000000000000000013002572A4B2CC2
:100310000000000000000001000C3001000100019D
:1003200000010001000100010001000100010001C5
:10033000001630203001000100010001001600010C
:100340000001003102010001000100010001000173
:100350000001000000010001000100010001000196
:100360000001000100000000000000000001000189
:100370000001000100000000000000010001000B6E
:100380003001000100010001000100010001000135
:100390000001000100010001000100010001000155
:1003A0000001000100010001000100010001000145
:1003B0000001000100010000000100010001000136
:1003C0000001000100010001000000000000000029
:1003D0000001000100010001000000000000000118
:1003E0000001000D300100010001000100010001C9
:1003F00000010001000100010001000100010001F5
:1004000000010001000100010001000100010001E4
:1004100000010001000100010001000000010001D5
:1004200000010001000100010001000100000000C6
:1004300000000000000100010001000100000000B8
:100440000000000100010015300100010001000161
:100450000001000100010001000100010001000194
:100460000001000100010001000100010001000184
:100470000001000100010001000100010001000075
:100480000001000100010001000100010001000164
:100490000000000000000000000100010001000158
:1004A0000000000000000001000100173001000101
:1004B0000001000100010001000100010001000134
:1004C0000001000100010001000100010001000124
:1004D0000001000100010001000100010001000114
:1004E0000001000000010001000100010001000105
:1004F00000010001000000000000000000010001F8
:100500000001000100000000000000010001001FC8
:1005100030010001000100010001000100010001A3
:1005200000010001000100010001000100010001C3
:1005300000010001000100010001000100010001B3
:1005400000010001000100000001000100010001A4
:100550000001000100010001000000000000000097
:100560000001000100010001000000000000000186
:100570000001002130010001000100010001000123
:100580000001000100010001000100010001000163
:100590000001000100010001000100010001000153
:1005A0000001000100010001000100000001000144
:1005B0000001000100010001000100010000000035
:1005C0000000000000010001000100010000000027
:1005D00000000001000100293001000100010001BC
:1005E0000001000100010001000100010001000103
:1005F00000010001000100010001000100010001F3
:1006000000010001000100010001000100010000E3
:1006100000010001000100010001000100010001D2
:1006200000000000000000000001000100010001C6
:100630000000000000000029004B0052004E00396D
:1006400000560024002500260055004A00500051A5
:10065000004F004D002700210022002300360049F2
:10066000002B0032303330343057001E001F002082
:100670000054000000010001000100010001000120
:100680000001000100000000000000000001000166
:10069000000100010000000000000029004B005292
:1006A000004E00390056005F006000610055004AAE
:1006B00000500051004F004D0062005C005D005E84
:1006C00000850049002B0032303330343057005958
:1006D000005A005B0054000000010001000100010D
:1006E0000001000100010001000000000000000006
:1006F00000010001000100010000000000000029CD
:10070000004B0252024E02480045004000410042A8
:1007100000E3004A02500251024F024D0243003DE5
:10072000003E003F00370049002B003530363034A2
:100730003044003A003B003C000E54000001000130
:1007400000010001000100010001000100000000A3
:100750000000000000010001000100010000000095
:10076000000000200238020680078008801E026414
:10077000006402270223022D14240264141414308E
:10078000022D022502260238000980310021020BC9
:10079000800A8030143000220231021F023502002C
:1007A0000001000100010001000100010001000141
:1007B0000000000000000000000100010001000135
:1007C000800000000000000C800D800E800F801063
:1007D00080118025142614128013802E022E00080A
:1007E00014028019801480241427140080370035E7
:1007F000001580178016803014188003801F142085
:10080000140480000001000100010001000100014A
:1008100000010001000000000000000000010001D4
:1008200000010001000000000000000100010001C3
:10083000000100010001000100E05C010001000175
:1008400000010001000100010001000100010001A0
:100850000001000100010001000100E25C01000153
:10086000000100E15C010000000100010001000145
:100870000001000100010001000000000000000074
:100880000001000100010001000000000000001153
:10089000200000A000000027030000B4F60100C300
:1008A000F30100192000001E2000001C2000001D84
:1008B00020000022200000AB000000BB000000056B
:1008C000210000262000001A200000182000001936
:1008D0002000002D260000BC030000052200002E91
:1008E0002E0000A2000000392000003A2000002065
:1008F0002600000803000044454255473A20656E33
:1009000061626C65642E0A000A00253032582000AE
:100910006B6579626F6172645F7265706F72743A51
:1009200020000A0025303258006B6579626F6172D1
:10093000645F7365745F6C65643A20004F6E657325
:10094000686F743A2074696D656F75740A00646528
:100950006C5F6B65795F6269743A2063616E2774BE
:100960002064656C3A20253032580A006164645F67
:100970006B65795F6269743A2063616E27742061E8
:1009800064643A20253032580A00290A002575008F
:100990002F002575005D28002564002000256400D7
:1009A000200025640020002564007C00253032589A
:1009B000006D6F7573656B6579205B62746E7C7812
:1009C0002079207620685D287265702F61636C291C
:1009D0003A205B006D6B5F776865656C5F74696D6D
:1009E000655F746F5F6D6178203D2025640A006D3E
:1009F0006B5F776865656C5F6D61785F7370656567
:100A000064203D2025640A006D6B5F74696D655F2D
:100A1000746F5F6D6178203D2025640A006D6B5F07
:100A20006D61785F7370656564203D2025640A0000
:100A30006D6B5F696E74657276616C203D20256414
:100A40000A006D6B5F64656C6179203D2025640A46
:100A5000006D6B5F776865656C5F74696D655F7469
:100A60006F5F6D6178203D2025640A006D6B5F77B4
:100A70006865656C5F6D61785F7370656564203D66
:100A80002025640A006D6B5F74696D655F746F5F2C
:100A90006D6178203D2025640A006D6B5F6D617883
:100AA0005F7370656564203D2025640A006D6B5F8F
:100AB000696E74657276616C203D2025640A006D54
:100AC0006B5F64656C6179203D2025640A000A0033
:100AD000257500363A20776865656C5F74696D65C9
:100AE0005F746F5F6D61783A20000A0025750035EC
:100AF0003A20776865656C5F6D61785F73706565D6
:100B0000643A20000A00257500343A2074696D6546
:100B10005F746F5F6D61783A20000A0025750033BD
:100B20003A206D61785F73706565643A20000A0051
:100B3000257500323A20696E74657276616C286D95
:100B400073293A20000A00257500313A2064656C4B
:100B50006179282A31306D73293A20000A092D2045
:100B600056616C756573202D0A004D3E004D25645D
:100B70003E20003F007365742064656661756C7487
:100B80000A00433E200077686572652064656C74D6
:100B9000613A20637572736F723D25642C2077680B
:100BA00065656C3D25640A53656520687474703A08
:100BB0002F2F656E2E77696B6970656469612E6F82
:100BC00072672F77696B692F4D6F7573655F6B6502
:100BD00079730A000A092D204D6F7573656B65796D
:100BE000202D0A4553432F713A09717569740A31F2
:100BF0003A0964656C6179282A31306D73290A32AB
:100C00003A09696E74657276616C286D73290A33CE
:100C10003A096D61785F73706565640A343A0974E6
:100C2000696D655F746F5F6D61780A353A09776841
:100C300065656C5F6D61785F73706565640A363AEF
:100C400009776865656C5F74696D655F746F5F6D6A
:100C500061780A0A703A097072696E742076616C64
:100C60007565730A643A0973657420646566617515
:100C70006C74730A75703A092B310A646F776E3A97
:100C8000092D310A706775703A092B31300A706787
:100C9000646F776E3A092D31300A0A7370656564A6
:100CA000203D2064656C7461202A206D61785F733B
:100CB00070656564202A2028726570656174202F34
:100CC0002074696D655F746F5F6D6178290A003FFC
:100CD000004D3E2000433E20004C25640A0074690C
:100CE0006D65725F72656164333228293A20253060
:100CF000346C580A006B65796D61705F636F6E6666
:100D000069672E6E6B726F3A2025580A006B657901
:100D1000626F6172645F69646C653A2025580A00ED
:100D20006B6579626F6172645F70726F746F636F0D
:100D30006C3A2025580A00686F73745F6B6579629E
:100D40006F6172645F6C65647328293A2025580AC4
:100D5000000A092D20537461747573202D0A004711
:100D600043433A20342E382E31204156522D4C49DF
:100D700042433A20312E382E3073766E204156523F
:100D80005F415243483A20617672350A004F505411
:100D9000494F4E533A204C554641204D4F555345EF
:100DA0004B45592045585452414B455920434F4ECD
:100DB000534F4C4520434F4D4D414E44204E4B52D6
:100DC0004F20343039360A004255494C443A2022EB
:100DD000302E362E332D3132302D67646635376430
:100DE000352D646972747922202831393A34393AC0
:100DF0003337204465632020372032303138290AC8
:100E0000005649443A2030784645454428556E6B93
:100E10006E6F776E29205049443A2030783630364C
:100E200030286B697373626F617264292056455272
:100E30003A203078303030310A00444553433A206C
:100E40003432206B657973207374726169676874DA
:100E500020636F6C73207468756D626B65797320A5
:100E600064696163726974696361206B65790A0002
:100E70000A092D2056657273696F6E202D0A000ACB
:100E8000092D20436F6E736F6C65202D0A45534307
:100E90002F713A09717569740A6D3A096D6F75732E
:100EA000656B65790A000A092D204D616769632029
:100EB0002D0A443A094465627567204D6573736174
:100EC000676520546F67676C650A583A094D61740D
:100ED000726978204465627567204D6F646520549F
:100EE0006F67676C65202D2053686F77206B65797D
:100EF0007072657373657320696E206D61747269B9
:100F00007820677269640A4B3A094B6579626F61B0
:100F1000726420446562756720546F67676C652052
:100F20002D2053686F77206B65797072657373201D
:100F30007265706F72740A4D3A0944656275672074
:100F40004D6F75736520546F67676C650A563A0973
:100F500056657273696F6E0A533A095374617475FA
:100F6000730A433A09416374697661746520436F7B
:100F70006E736F6C65204D6F64650A46312D463186
:100F8000303A0953776974636820746F204C617933
:100F9000657220302D392028463130203D204C30DC
:100FA000290A302D393A0953776974636820746FC0
:100FB000204C6179657220302D390A4553433A0936
:100FC00053776974636820746F204C61796572206F
:100FD000302028616C7465726E617465206B657970
:100FE0002031290A47524156453A095377697463BB
:100FF0006820746F204C6179657220302028616C04
:101000007465726E617465206B65792032290A50AF
:10101000415553453A094A756D7020746F20426FEF
:101020006F746C6F616465722028526573657429F2
:101030000A4E3A094E4B524F20546F67676C650A4F
:10104000003F004E4B524F3A206F66660A004E4BEF
:10105000524F3A206F6E0A000A6D6F7573653A2021
:101060006F66660A000A6D6F7573653A206F6E0AC7
:10107000000A6B6579626F6172643A206F66660A76
:10108000000A6B6579626F6172643A206F6E0A00C4
:101090000A6D61747269783A206F66660A000A6D9B
:1010A00061747269783A206F6E0A000A646562752D
:1010B000673A206F66660A000A64656275673A20BF
:1010C0006F6E0A000A0A4A756D70696E6720746F48
:1010D00020626F6F746C6F616465722E2E2E20001B
:1010E000433E20005B735D004B6579626F61726403
:1010F0002073746172742E0A005B575D005B535D50
:10110000005B525D005B445D005B435D00040330A7
:1011100000000014036B0069007300730062006F2D
:10112000006100720064000000100355006E006B47
:10113000006E006F0077006E0000000403090409D0
:10114000028D00050100A0FA09040000010301015D
:101150000009211101000122400007058103080058
:101160000A09040100010301020009211101000123
:10117000224D000705820308000A0904020001034A
:101180000000000921110100012236000705830338
:1011900008000A09040300020300000009211101EC
:1011A0000001222200070584032000010705040333
:1011B00020000109040400010300000009211101BD
:1011C00000012239000705850320000112011001EA
:1011D00000000008EDFE606001000102030105014E
:1011E0000906A101050719E029E715002501950861
:1011F00075018102050819012905950575019102FE
:101200009501750391010507190029F715002501BE
:1012100095F875018102C00631FF0974A1010975B5
:10122000150026FF00952075088102097615002615
:10123000FF00952075089102C005010980A1018574
:10124000021601002603001A81002A8300751095FA
:10125000018100C0050C0901A101850316010026CA
:101260009C021A01002A9C02751095018100C0059C
:10127000010902A1010901A10005091901290515AA
:101280000025019505750181029501750381010510
:1012900001093009311581257F95027508810609FC
:1012A000381581257F950175088106050C0A3802DD
:1012B0001581257F950175088106C0C005010906C5
:1012C000A101050719E029E7150025019508750119
:1012D0008102950175088101050819012905950507
:1012E000750191029501750391010507190029FF08
:1012F000150026FF00950675088100C011241FBE49
:10130000CFEFDAE0DEBFCDBF04B603FE24C080918C
:10131000A1029091A202A091A302B091A4028730F1
:10132000904BA740B04BB9F41092A1021092A202C8
:101330001092A3021092A40214BE84B7877F84BFC8
:1013400088E10FB6F89480936000109260000FBEA1
:10135000E0E0F8E3099511E0A0E0B1E0EEE3F5E6A6
:1013600002C005900D92A439B107D9F722E0A4E993
:10137000B1E001C01D92A13AB207E1F70E94CC2C66
:101380000C949D320C940000FF93EF93E091940134
:10139000F0919501309709F00995EF91FF9108952B
:1013A000FC018591803011F0EFDFFBCF0895FF271E
:1013B000E0E230E247FF0CC0419597FF09C0EDE243
:1013C0006095709580959095611D711D811D911D91
:1013D00027FF02C0219530E350E2AA27660F771F4E
:1013E000881F991FAA1FA41710F0A41B63955A9574
:1013F000A9F7AA3008F0A95FA05DAF93F395611536
:1014000071058105910541F7ED3211F4EF93F395E4
:10141000F21718F43F93F395FBCF8F91B5DFFA9550
:10142000E1F70895E991F9918591803021F08532B5
:1014300019F0AADFF9CF089520E0E89455915532CC
:10144000C1F3503311F4689455915A3348F4505312
:1014500090F3220F022E220F220F200D250FF4CF22
:101460000EF4219589919991533619F3533729F147
:10147000533559F1BC0188279927E8945C3621F44B
:101480008991999168945591543639F446EF7EF0DC
:1014900077FF0DC08FEF9FEF0AC055374AE039F054
:1014A000583540E121F0523642E009F00895FF93AB
:1014B000EF937DDFEF91FF91B7CFFF93EF93FC01A7
:1014C00081918030B9F360DFFBCFFF93EF9368DF4A
:1014D000F1CFDF93CF93CDB7DEB72596A3DFCF91C2
:1014E000DF9108950C947B0FCF93DF93CDB7DEB7D8
:1014F0002B970FB6F894DEBF0FBECDBF1092CC0075
:101500001092CD0088E18093C90086E08093CA00E4
:1015100083E78093CE00FE0131968BE0DF011D92C0
:101520008A95E9F79E01245F3F4F80E090E0DC015F
:101530004091C80047FD09C00196A11DB11D813130
:1015400047E29407A105B10598F34091CE0041937D
:10155000E217F30769F78B85803EB9F4FE013296F6
:1015600066E971E08081A0E28A9FC0011124AF0189
:1015700041505109DA014C91842BDB018D939D93ED
:10158000BD013296E217F30769F70E947D0F81E0F3
:101590002B960FB6F894DEBF0FBECDBFDF91CF9173
:1015A0000895E82FF0E0EE0FFF1FEA56FE4F80810E
:1015B00091810895CF92DF92EF92FF920F931F9344
:1015C000CF93DF9386EC91E00E94D00926E9E22ECA
:1015D00021E0F22EC0E0D0E031ECC32E31E0D32E7A
:1015E00008EB11E0DF93CF93DF92CF920E94690A5C
:1015F0008EEB91E00E94D009F701819191917F01DA
:101600000E94B9219F938F931F930F930E94690AA1
:1016100086EB91E00E94D00921968DB79EB708967F
:101620000FB6F8949EBF0FBE8DBFC530D105D1F661
:10163000DF91CF911F910F91FF90EF90DF90CF90AE
:1016400008951092CC001092CD0088E18093C900DB
:1016500086E08093CA000895519A599A80B38063B6
:1016600080BB81B3806381BB08950E94040D0E94FA
:10167000210B0C942C0B0C940C0D0895DC01462FBF
:1016800050E0415051094633510508F081C14A5A92
:101690005F4FFA010C944D3212968C91882331F0F1
:1016A00081E00E94331F80EB92E0089581E00E9468
:1016B0004E1F8DEA92E0089512968C91882309F4CA
:1016C0006AC188E00E944E1F86E00E944E1F87E09C
:1016D0000E944E1F84E00E944E1F85E00E944E1F14
:1016E00083E00E944E1F82E00E94331F8AEA92E04C
:1016F000089512968C91811151C182E00E944E1F73
:101700008FE992E0089512968C91882309F449C1DB
:1017100088E00E944E1F86E00E944E1F87E00E94D4
:101720004E1F84E00E944E1F85E00E944E1F82E003
:101730000E944E1F83E00E94331F8AE992E00895C1
:1017400012968C91811130C183E00E944E1F8DE86A
:1017500092E0089512968C91882309F428C188E0BC
:101760000E944E1F86E00E944E1F87E00E944E1F7F
:1017700085E00E944E1F82E00E944E1F83E00E947F
:101780004E1F84E00E94331F8AE892E0089512966B
:101790008C9181110FC184E00E944E1F8FE792E06F
:1017A000089512968C91882309F407C188E00E945D
:1017B0004E1F86E00E944E1F87E00E944E1F84E06D
:1017C0000E944E1F82E00E944E1F83E00E944E1F27
:1017D00085E00E94331F8AE792E0089512968C916B
:1017E0008111EEC085E00E944E1F8DE692E00895C3
:1017F00012968C91882309F4E6C088E00E944E1F5F
:1018000087E00E944E1F84E00E944E1F85E00E94E8
:101810004E1F82E00E944E1F83E00E944E1F86E012
:101820000E94331F8AE692E0089512968C918111EE
:10183000CDC086E00E944E1F8FE592E0089512967B
:101840008C91882309F4C5C088E00E944E1F86E071
:101850000E944E1F84E00E944E1F85E00E944E1F92
:1018600082E00E944E1F83E00E944E1F87E00E948C
:10187000331F8AE592E0089512968C918111ACC0D5
:1018800087E00E944E1F8DE492E0089512968C919D
:10189000882309F4A4C086E00E944E1F87E00E94BE
:1018A0004E1F84E00E944E1F85E00E944E1F82E082
:1018B0000E944E1F83E00E944E1F88E00E94331F4B
:1018C0008AE492E0089512968C9181118BC088E091
:1018D0000E944E1F8FE392E0089512968C91882308
:1018E00039F00E942C239093A1018093A00150C055
:1018F0008091A0019091A1010E9444238B3F91050A
:1019000008F473C086E392E0089512968C918111D9
:10191000E8CF8091A0019091A1010E9444238B3FC8
:10192000910508F465C084E292E0089512968C91C6
:101930008111D7CF8091A0019091A1010E944423F1
:101940008B3F910508F457C082E192E0089512960A
:101950008C918111C6CF8091A0019091A1010E942C
:1019600044238B3F910508F449C080E092E008953C
:1019700012968C918111B5CF8091A0019091A10117
:101980000E9444238B3F9105E0F18AEE91E0089597
:1019900080E090E0089587EA92E0089582EA92E07C
:1019A000089587E992E0089580E992E0089587E834
:1019B00092E0089582E892E0089587E792E0089522
:1019C00080E792E0089587E692E0089582E692E04B
:1019D000089587E592E0089580E592E0089587E410
:1019E00092E0089582E492E008958DE292E00895F5
:1019F0008BE192E0089589E092E0089583EF91E011
:101A000008958DED91E0089581E00E940D1360E04E
:101A100070E0CB010C94D81E0895813E2CE592070E
:101A200049F0823E2CE5920739F0803E9C4561F4F6
:101A300081E003C084E001C080E00E940D138EE0CD
:101A40000E944E1F80E0089581E008950F931F9338
:101A5000CF93DF938C01EB019A9581159F4138F567
:101A600010FF03C080EEFB01099511FF03C081EE5A
:101A7000FE01099512FF03C082EEFE01099513FFD6
:101A800003C083EEFE0109950115104180F084EE3C
:101A9000FE01099585EEFE01099586EEFE01099588
:101AA00087EEFE01DF91CF911F910F910994DF9195
:101AB000CF911F910F910895877091E001C0990F08
:101AC0008A95EAF7892F0E9428210C945821877063
:101AD00091E001C0990F8A95EAF7892F0E94282189
:101AE0000C945821877091E001C0990F8A95EAF70C
:101AF000892F0E942E210C945821877091E001C0FB
:101B0000990F8A95EAF7892F0E942E210C9458216B
:101B1000CF93DF93EC01805E9109089710F0209736
:101B200019F467E67DE002C06CE57DE0CE010E941D
:101B3000260D8C2FDF91CF910C94FF16CF93DF935E
:101B4000EC010E94BA17CE01805E9109089710F04F
:101B5000209719F46DE77DE002C062E77DE0CE01D9
:101B6000DF91CF910C94260D81E008950C940D0D1A
:101B70000E94C31A2FEF84E39CE0215080409040E4
:101B8000E1F700C0000087E797E790930108809392
:101B900000080C949323FF920F931F93CF93DF932E
:101BA0008C01FC01C081D1818091CB01811113C0D6
:101BB0008281882349F0CE010E941920F82E682FD7
:101BC000CE010E94BF1F04C0CE010E94ED1FF82E5F
:101BD000BE018F2D04C0CE010E941920BE010E94BB
:101BE000920FEC01B8010E946A14B801CE010E9464
:101BF000B60D882309F478C1B801CE010E94AB1458
:101C0000882309F471C1B801CE010E94F311882321
:101C100009F46AC1B801CE010E948E12882309F42A
:101C200063C1C531FCE5DF0729F50E941221382F79
:101C3000F801228180915D0190915E01222371F073
:101C40003A7A21E009F420E02093A201222311F046
:101C500065E301C069E20E94922209C02091A201BD
:101C6000222311F065E301C069E20E949D220E94D7
:101C700058213AC1C6318CE5D80708F0A8C0C13058
:101C8000ECE5DE0779F4F8018281882309F42CC1A0
:101C90008091580281608093580287EF98E00E94FB
:101CA000D00922C1C230FCE5DF0708F478C0F80192
:101CB0008281882309F47BC00E94ED21811102C03A
:101CC0000E94D3210E94002290E09093930280937F
:101CD0009202FE01E350FC45E231F10520F4E457A5
:101CE000FF4F0C944D3280919202816003C080912D
:101CF00092028260809392024BC080919202846033
:101D0000F9CF8091920213C0809192028061F2CF4C
:101D1000809192028062EECF809192028064EACF3D
:101D2000809192028068E6CF809192028460886000
:101D3000E1CF809192028E7FDDCF809192028D7FE4
:101D4000D9CF809192028B7FD5CF8091920213C020
:101D5000809192028F7ECECF809192028F7DCACFEA
:101D6000809192028F7BC6CF809192028F77C2CFF3
:101D7000809192028B7F877FBDCF9091920297FBDB
:101D8000882780F921E0822780FB97F990939202BF
:101D9000809192020E9404220E94C31AA5C0C1151C
:101DA000DC4569F081E08093A7018093A801C80118
:101DB000DF91CF911F910F91FF900C94B40DF8011A
:101DC0008281882309F490C00E94B80D8DC0C33D64
:101DD000ECE5DE0759F5F8018281882361F0109265
:101DE000A8010E942C239093A6018093A50180E274
:101DF0000E94E71779C08091A801882321F080E232
:101E00000E94EE1771C08091A5019091A6010E94D9
:101E100044238A3F910598F780E20E94EE1788E2FA
:101E20000E94FF1688E20E94BA175EC0C43DFCE51E
:101E3000DF0708F044C0C13D8CE5D80719F5F8016B
:101E40008281882351F01092A7010E942C23909345
:101E5000A4018093A30182E0CBCF8091A7018111DF
:101E60000FC08091A3019091A4010E9444238A3F56
:101E7000910530F486E20E94FF1686E20E94BA17AE
:101E800082E0BECFC23DDC4509F08CCFF8018281F3
:101E90008111A5CF8091A8018111B1CF8091A501B9
:101EA0009091A6010E9444238A3F910508F0A7CF94
:101EB00087E20E94FF1687E20E94BA17A0CFC63DB4
:101EC000FCE5DF0731F4F8018281882369F080E0C6
:101ED00009C0C73DDC4509F065CFF8018281882340
:101EE00019F082E00E94722D80E0DF91CF911F9166
:101EF0000F91FF9008950C94350B0E9402150C94DD
:101F00003B0B282F2F7041F0822F90E02A3010F4E5
:101F10004D9608950697089587E290E008950C94F1
:101F20003D0B08959AE0799FF001112492E3899F77
:101F3000E00DF11D1124E60FF11DEE0FFF1FED5412
:101F4000FD4F859194910895880F991F8D549D4F51
:101F5000FC01859194910895CF93DF930E94920F95
:101F60000E945311EC01811520E5920708F040C052
:101F7000811530E4930708F01BC1883E910508F5F0
:101F8000803E910508F08BC1883A910578F4853A36
:101F9000910508F09DC08130910509F480C108F4D5
:101FA00037C18430910508F07AC132C18D3B91056B
:101FB00008F499C0803C910508F42AC1805C91091D
:101FC000E9C0C11580E2D80758F4C11591E0D907DE
:101FD00008F065C1C03FD10508F41AC1D0655FC1E2
:101FE000C11520E3D20708F0D9C0CE019F70D2C03E
:101FF000811535E5930708F043C0C11584E5D8077E
:1020000008F0EDC0C11592E5D90708F5C11521E525
:10201000D20708F0D0C02C2F237081E090E002C0DE
:10202000880F991F2A95E2F79C689E01E4E0369597
:102030002795EA95E1F72370922BCF70C695C69548
:1020400030E2C39FE0011124C82BD92B28C18C2F6B
:10205000869586959E0123703327C115D34508F0D8
:10206000AFC090E2899FE001112481E090E002C0BE
:10207000880F991F2A95E2F7C82BD92BDC680FC16E
:10208000811529E5920780F4811538E5930708F05A
:10209000ABC0C11586E5D80708F0BAC0CF71DD27FF
:1020A000DC2FCC27D062FBC0C1159AE5D90708F414
:1020B000A0C0CE0190568115904208F0A9C08D2F86
:1020C0008F710E94CF11DD27D0628F71D82BE7C0AE
:1020D000853A910509F49FC0863A910509F49EC09E
:1020E000C3E8D0E4DCC0883A910509F49AC0893A83
:1020F000910509F499C08A3A910509F498C08B3A80
:10210000910509F497C08C3A910509F496C08B3B70
:10211000910509F495C08C3B910509F494C08D3A62
:10212000910509F493C0803B910509F492C08E3A61
:10213000910509F491C08F3A910509F490C0813B53
:10214000910509F48FC0823B910509F48EC0833B51
:10215000910509F48DC0843B910509F48CC0853B41
:10216000910509F48BC0863B910509F48AC0873B31
:10217000910509F489C0883B910509F488C0893B21
:10218000910509F487C08A3B910509F086C0CAE22F
:10219000D6E485C00E94A40FEC0181C0CE0199272E
:1021A000D3FF03C0EC01D86C7AC0EC01D06C77C0CF
:1021B000DF70D06A74C0DC2FCC27C16FD06A6FC0CB
:1021C00090E2899FE001112481E090E002C0880F35
:1021D000991F2A95E2F7C82BD92BDA6860C0DC2F4B
:1021E000CC27C46FD06A5BC0D82FCC27C06FD06A11
:1021F00056C08C2F8F70806E90E0906A34E0D69538
:10220000C7953A95E1F7CF709C013C2BE90147C097
:10221000C0E0D0E044C0C1E8D0E441C0C2E8D0E4AE
:102220003EC0C2EED4E43BC0C9EED4E438C0CAEE2E
:10223000D4E435C0C5EBD4E432C0C6EBD4E42FC03F
:10224000C3EBD4E42CC0C4EBD4E429C0C7EBD4E482
:1022500026C0CCECD4E423C0CDECD4E420C0C3E849
:10226000D5E41DC0CAE8D5E41AC0C2E9D5E417C058
:10227000C4E9D5E414C0C1E2D6E411C0C3E2D6E497
:102280000EC0C4E2D6E40BC0C5E2D6E408C0C6E284
:10229000D6E405C0C7E2D6E402C0C0E0D4E4CE0173
:1022A000DF91CF9108958238910549F1B0F48133DF
:1022B000910509F459C048F48932910509F44FC0D9
:1022C0008A32910509F455C008958533910509F4C2
:1022D00041C08933910599F00895833E910531F10C
:1022E00038F4803E910591F0823E9105A9F0089561
:1022F000863E910501F1873E910539F108952091BF
:10230000920220FD3BC021FD39C0089580919202C8
:1023100080FF34C089E341C08091920282FF32C0C5
:102320008091920284FF2CC080E037C0809192029D
:1023300082FD28C0F5CF8091920283FF25C0809155
:10234000920284FDF1CF87EE28C08091920283FD36
:102350001BC0F5CF8091920285FF18C019C08091F3
:10236000920285FF15C012C08091920286FF12C0B2
:1023700013C08091920286FF0FC00CC080EE0DC08A
:1023800083EE0BC082EE09C086EE07C085E305C070
:1023900089E203C081E301C08AE290E00895909150
:1023A000920292FF0DC0282F2871283019F4877FE0
:1023B000846006C0282F2471243011F48B7F88603C
:1023C00093FF0DC0282F2871283119F4877E84616E
:1023D00006C0282F2471243111F48B7E886194FD6E
:1023E000877E08950895CF93DF93EC01FB018281EE
:1023F000811102C081E040C08091B601811125C0E9
:10240000C631DC45B9F70E94F21181E08093B60134
:102410000E942C239093B5018093B4011092A901DE
:102420001092AB011092AA011092AD011092AC0172
:102430001092AF011092AE011092B1011092B00152
:102440001092B3011092B20116C08091B401909124
:10245000B5010E944423883C910560F68091A90152
:10246000E82FF0E0EE0FFF1FE655FE4FD183C0834B
:102470008F5F8093A90180E0DF91CF910895AF92A3
:10248000BF92CF92DF92EF92FF920F931F93CF9361
:10249000DF936B017C010CE110E0C7E0D0E0BB24CE
:1024A000B394C430D1050CF4B12CD701C601002E71
:1024B00004C0B695A795979587950A94D2F7282FCB
:1024C0002F70A22E69F4B11016C080E00E94810F17
:1024D0000E94FF1680E00E94810F0E94BA170BC075
:1024E000822F0E94810F0E94FF168A2D0E94810F69
:1024F0000E94BA17B12C219704501109CF3F8FEFDA
:10250000D80779F6DF91CF911F910F91FF90EF904F
:10251000DF90CF90BF90AF9008950895CF92DF9253
:10252000EF92FF92CF93DF9300D000D0CDB7DEB70C
:102530007C016B010E941413282FF7FE62C0F60184
:102540008281882309F45DC0F701EE0FFF1FEE0FB3
:10255000FF1FE157F74F65917591859194916B013C
:102560007C01F1E0EF1AF108C114D10430E1E30677
:10257000F10408F5222311F0253041F50E941713CC
:10258000C701B60166277C7F8F7099272AE0969550
:102590008795779567952A95D1F778528F4F9F4FFA
:1025A0000E943F12C701B6017370882799277452A1
:1025B0008F4F9F4F22C061157105E1E18E07910594
:1025C00028F0222369F0253039F40AC0611571051D
:1025D000F0E18F07910538F0213011F0243019F423
:1025E0000E948D120EC069837A838B839C830E9424
:1025F000171369817A818B819C810E943F120E940E
:102600008F1381E00F900F900F900F90DF91CF917B
:10261000FF90EF90DF90CF9008958093B701682FDF
:102620008CE090E00C9475328091B7010895E091B0
:102630005D01F0915E01808180938B0281FF03C078
:1026400081EE0E94BA1780918B0285FF03C085EE50
:102650000E94BA1780918B0280FF03C080EE0E9417
:10266000BA1780918B0284FF03C084EE0E94BA17D0
:1026700080918B0282FF03C082EE0E94BA17809184
:102680008B0286FF03C086EE0E94BA1780918B02F0
:1026900083FF03C083EE0E94BA1780918B0287FFED
:1026A00003C087EE0E94BA178091B701823011F102
:1026B00028F4882341F0813061F00895843011F1CD
:1026C000853019F0089582EE01C086EE0E94FF1653
:1026D000089580EE0E94FF1681EE0E94FF1688E1A9
:1026E0000E94FF1688E10E94BA1781EE0E94BA1775
:1026F00080EE12C082EE0E94FF1687E50E94FF1650
:1027000087E50AC086EE0E94FF1686EE0E94BA1781
:1027100088E10E94FF1688E10E94BA17089580910F
:10272000B701823081F048F4882369F08130C9F420
:102730008CE20E94FF168CE212C0843031F08530AA
:1027400081F486EE0CC082EE0AC08CE20E94FF1675
:102750008CE20E94BA178AE20E94FF168AE20E9467
:10276000BA1780918B0281FF03C081EE0E94FF1691
:1027700080918B0285FF03C085EE0E94FF16809139
:102780008B0280FF03C080EE0E94FF1680918B02B7
:1027900084FF03C084EE0E94FF1680918B0282FFAB
:1027A00003C082EE0E94FF1680918B0286FF03C059
:1027B00086EE0E94FF1680918B0283FF03C083EE9A
:1027C0000E94FF1680918B0287FF03C087EE0C9456
:1027D000FF160895CF93DF93EC018F85811115C00B
:1027E00081E08F878F810E94152188850E94282192
:1027F0000E945821EA81FB816A897B89CE01069675
:10280000309719F0DF91CF910994DF91CF9108951E
:10281000CF93DF93EC018881823039F4FB01828110
:1028200093810E94880D81E08987DF91CF9108957F
:10283000FC018081813021F4FB018081918105C000
:10284000823029F4FB01828193810C94880D0895D4
:10285000FC018081813021F4FB018081918105C0E0
:10286000823029F4FB01828193810C949E0D08959E
:102870000F931F93CF93DF938C01FC01808581110F
:1028800024C083819481975524E1289FE001299FEA
:10289000D00D1124C050DF4FEC81FD816A897B8906
:1028A000CE010696309709F009958F810E941B2171
:1028B00088850E942E210E945821F80110821782DB
:1028C00011861092B9011092B801DF91CF911F913A
:1028D0000F910895DF92EF92FF920F931F93CF9382
:1028E000DF937C01FB018281882369F180915C0187
:1028F0008F3F49F1C6E0D1E000E010E0DD24D39441
:1029000080915C01992787FD909580179107DCF0F5
:10291000CE0106972881222391F02B813C81E2167B
:10292000F30639F42091B8013091B901E216F306AB
:1029300031F0DF820E94EA13CE010E9438140F5F4B
:102940001F4F6496DDCFDF91CF911F910F91FF90C4
:10295000EF90DF900895FF920F931F93CF93DF9333
:102960008C019C0137552F3F310511F008F043C011
:1029700080915C01992787FD90958217930714F445
:1029800020935C0184E1829FE001839FD00D11249C
:10299000C050DF4FFB0182818E8792818E81992307
:1029A00009F11A8709878F5F8E830E942C239C87E9
:1029B0008B870E949F218F830E941221F82E888787
:1029C0000E9425218F298887E881F9816A897B897E
:1029D000CE010696309709F009951093B90100933E
:1029E000B80109C0882339F08F85882321F0CE01F2
:1029F00006960E94381481E0DF91CF911F910F91CC
:102A0000FF900895EF92FF920F931F93CF93DF9360
:102A100080915C018F3F71F1F12C84E1E82E8F2DC4
:102A200090E020915C01332727FD30952817390766
:102A30000CF1E89EE001E99ED00D1124C050DF4F5B
:102A4000088919890115110511F40AEF10E08E812A
:102A5000882371F08B859C850E94442308171907F1
:102A600038F4CE010E94EA13CE0106960E94381473
:102A7000F394D5CFDF91CF911F910F91FF90EF90FD
:102A800008959093BF018093BE010895E091BE0127
:102A9000F091BF01309721F00190F081E02D099471
:102AA00080E00895FF920F931F93CF93DF938C01E3
:102AB000E091BE01F091BF01309799F10280F3815E
:102AC000E02D09958091580282FF2BC080FF04C041
:102AD00080E199E00E94D009E80180E2F82E0AE046
:102AE00019E08091580280FF0BC088811F928F935C
:102AF0001F930F930E94690A0F900F900F900F90F1
:102B0000FA942196F110EDCF8091580280FF09C010
:102B100088E099E0DF91CF911F910F91FF900C9485
:102B2000D009DF91CF911F910F91FF900895E0910F
:102B3000BE01F091BF01309721F00480F581E02DB6
:102B4000099408952091BC013091BD01821793072B
:102B500071F09093BD018093BC01E091BE01F091B2
:102B6000BF01309721F00680F781E02D0994089588
:102B70002091BA013091BB018217930771F09093B5
:102B8000BB018093BA01E091BE01F091BF01309783
:102B900021F00084F185E02D0994089508950C94A6
:102BA000CE1581E008950E9423230E94720A0C949E
:102BB000A523CF93C82F8091580282FF1EC080FFAB
:102BC00004C089E299E00E94D0098091580280FFF8
:102BD0000CC01F92CF9324E239E03F932F930E94C1
:102BE000690A0F900F900F900F908091580280FF0C
:102BF00004C082E299E00E94D0098C2FCF910C94FE
:102C00008F0F5F926F927F928F929F92AF92BF923F
:102C1000CF92DF92EF92FF920F931F93CF93DF93A8
:102C2000CDB7DEB72A970FB6F894DEBF0FBECDBF83
:102C30000E94740A0E94D115811111C08FEF8983FF
:102C40008A831B820E942C238160782F9D838C8332
:102C500049815A816B818D810E94BF1657C091ECCA
:102C6000C92E91E0D92E00E010E0AA24A394B12C43
:102C7000502E802F0E94D10A3C01F601E190F19084
:102C80006F01E826F926E114F10431F40F5F1F4FBC
:102C90000530110569F7D2CF8091580281FD0E945D
:102CA000DA0A20E030E04501022E02C0880C991CAF
:102CB0000A94E2F7C4018E219F21892B09F12E830A
:102CC0005F826820792081E0672809F480E08887A6
:102CD0000E942C238160782F9A8789874E815F819B
:102CE00068858A850E94BF16F801EE0FFF1FEF531B
:102CF000FE4F80819181882599259183808306C02C
:102D00002F5F3F4F2A30310571F6C0CF0E94B925A1
:102D10001091C0010E9446151817D9F00E9446155F
:102D20008093C0012A960FB6F894DEBF0FBECDBFC8
:102D3000DF91CF911F910F91FF90EF90DF90CF9097
:102D4000BF90AF909F908F907F906F905F900C940A
:102D5000D9152A960FB6F894DEBF0FBECDBFDF910E
:102D6000CF911F910F91FF90EF90DF90CF90BF9088
:102D7000AF909F908F907F906F905F900895CF93CA
:102D8000DF93CDB7DEB72B970FB6F894DEBF0FBE3B
:102D9000CDBF4F83588769877A878B87DE0111966D
:102DA00086E0FD0111928A95E9F785E0FE013796EC
:102DB00001900D928A95E1F70E94B420882319F0C2
:102DC00082E00E94F0200E94872081110E94512100
:102DD00049815A816B817C818D819E810E949D1DDC
:102DE0002B960FB6F894DEBF0FBECDBFDF91CF910B
:102DF0000895FC01808191810E9459200895CF930C
:102E0000DF931F92CDB7DEB7682F882309F4AEC0D9
:102E10008CEF860F813A70F4862F69830E94F52823
:102E200069818111A3C080915D0190915E010E9432
:102E300092220CC080E2860F883068F4677081E0CF
:102E400001C0880F6A95EAF70E9415210F90DF9163
:102E5000CF910C9458218BE5860F833088F4653A26
:102E600029F0663A31F482E890E005C081E890E00C
:102E700002C083E890E00F90DF91CF910C94A215EF
:102E800088E5860F853108F071C0683A61F1693ACA
:102E900069F16A3A71F16B3A79F16C3A81F16B3B05
:102EA00089F16C3B91F16D3A99F1603BA1F16E3A79
:102EB000A9F16F3AB1F1613BB9F1623BC1F1633BFA
:102EC000C9F1643BD1F1653BD9F1663BE1F1673B68
:102ED000E9F1683BF1F1693BF9F16A3B09F03FC068
:102EE0008AE292E03EC082EE90E03BC089EE90E044
:102EF00038C08AEE90E035C085EB90E032C086EBBA
:102F000090E02FC083EB90E02CC084EB90E029C0D0
:102F100087EB90E026C08CEC90E023C08DEC90E035
:102F200020C083E891E01DC08AE891E01AC082E9E0
:102F300091E017C084E991E014C081E292E011C0F1
:102F400083E292E00EC084E292E00BC085E292E060
:102F500008C086E292E005C087E292E002C080E00D
:102F600090E00F90DF91CF910C94B8150F90DF9106
:102F7000CF910895882351F19CEF980F913A40F436
:102F8000682F80915D0190915E010E949D220DC08D
:102F900090E2980F983058F4877091E001C0990F33
:102FA0008A95EAF7892F0E941B210C9458219BE5F2
:102FB000980F933020F480E090E00C94A215885A8A
:102FC000853120F480E090E00C94B81508958823B2
:102FD00021F00E9415210C9458210895882321F096
:102FE0000E941B210C94582108958F929F92BF92AA
:102FF000CF92DF92EF92FF920F931F93CF93DF93C5
:1030000000D0CDB7DEB74C01472FFC01C580C2947C
:103010009FE0C922D280DD2031F079836A830E944B
:1030200035216A81498149836A830E940B21498144
:103030006A81882389F0DD2079F080E2860F88306C
:1030400058F082E00E94F0200E940B21BB24B39430
:10305000B82649816A8101C0B12CE42EE2948FE048
:10306000E822F12CF701E256FF4F0C944D32842FE9
:10307000807F142F1F70882311F01295107FDD20A0
:10308000C1F0112309F4DCC180E2860F883010F012
:10309000611105C0812F6A830E94152104C0812F10
:1030A0006A830E9428216A816A830E9458216A816A
:1030B000C7C1862F6A830E94BA176A81112309F457
:1030C000E0C180E2860F883010F0611104C0812FCA
:1030D0000E941B2103C0812F0E942E210E94582193
:1030E000D0C1242F207F842F8F70203211F0829541
:1030F000807F662319F06130B9F022C0DD2049F0ED
:10310000CC2009F452C1F1E0CF124FC10E944821F6
:10311000B8C1CC2021F021E0C21609F4B2C18983E4
:103120000E945121898147C1DD2029F092E09C1540
:1031300008F4A7C13AC1E1E0EC1508F4A2C13BC113
:10314000DD2051F0CC2009F430C1F401958190FFCD
:1031500077C19F70958329C1CC2009F42CC181C10E
:10316000242F26952695237030E02115310521F076
:103170002130310561F085C1DD2021F0862F942FAB
:10318000937002C080E090E00E94A2158AC1DD2009
:1031900021F0862F942F937002C080E090E00E946F
:1031A000B8157FC1DD20F9F0653F51F0663F71F041
:1031B000643FA9F480918C0290918D0281600BC0D4
:1031C00080918C0290918D02826005C080918C026A
:1031D00090918D02846090938D0280938C02862F53
:1031E0000E943F2422C0653F51F0663F91F0643F4A
:1031F000C9F480918C0290918D028E7F05C08091E0
:103200008C0290918D028D7F90938D0280938C0221
:1032100009C020918C0230918D022B7F30938D025A
:1032200020938C02862F0E94A7240E942C2539C14E
:10323000842F837009F04EC0D1102FC1262F229504
:1032400026952770220F220F862F8F70C82ED12C23
:10325000E12CF12C022E04C0CC0CDD1CEE1CFF1C5A
:103260000A94D2F764FF10C06FE070E080E090E055
:1032700004C0660F771F881F991F2A95D2F76095A3
:1032800070958095909503C060E070E0CB01242F8D
:1032900026952695237030E02230310569F02330E1
:1032A000310589F06C297D298E299F29213031052E
:1032B00071F00E94EC1EF1C06C297D298E299F2996
:1032C0000E94FE1EEAC00E94EC1EC701B6010E94C9
:1032D000DA1EE3C0DD2019F0842F817001C08695CD
:1032E000882309F4DAC0262F229526952770220F0D
:1032F000220F862F8F70C82ED12CE12CF12C022E9C
:1033000004C0CC0CDD1CEE1CFF1C0A94D2F764FF39
:1033100010C06FE070E080E090E004C0660F771F9F
:10332000881F991F2A95D2F7609570958095909582
:1033300003C060E070E0CB01242F26952695237012
:1033400030E02230310569F02330310589F06C29F5
:103350007D298E299F292130310571F00E949A1F05
:103360009CC06C297D298E299F290E94AC1F95C085
:103370000E949A1FC701B6010E94881F8EC0062FA7
:1033800010E0F801E05EF109E531F10508F054C004
:10339000E255FF4F0C944D32162F1F70842F8F7102
:1033A000DD2031F00E94331F812F0E94E71769C092
:1033B0000E944E1F812F0E94EE1763C0DD2049F04E
:1033C000F1E0FC1508F45DC0842F8F710E946D1F21
:1033D00058C022E02C1508F454C0F6CFDD2039F097
:1033E000842F8F710E94331F4CC0DD20C9F3842FBE
:1033F0008F710E944E1F45C0DD2029F0842F8F71F0
:103400000E94241F3EC00E941F1F3BC0DD2051F0C0
:10341000142F1F71812F0E94331F63E0812F0E94A0
:10342000E0202FC081E00E94F02081E08C1548F55B
:1034300082E00E94F02025C0DD2031F0CC2081F216
:10344000862F0E94FF161DC0CC2089F2693349F4F3
:103450009FEFE7EEF3E09150E040F040E1F700C06D
:103460000000862F0E94BA170CC04F70C4010E9442
:103470003E0B0E944A1E15C04F70C4010E94910F5E
:1034800010C028E0E216F10441F05CF09AE0E91A7D
:10349000F108E2E0EE16F10420F40E9446150E94C5
:1034A0008F0FBB20F1F00E94B02080FD1AC0F40104
:1034B00012820E94AA200E94331FC4010E947F1A18
:1034C0000E94AA200F900F90DF91CF911F910F9132
:1034D000FF90EF90DF90CF90BF909F908F900C94D3
:1034E0004E1F0F900F90DF91CF911F910F91FF9082
:1034F000EF90DF90CF90BF909F908F9008950F93A3
:103500001F93CF93DF93EC01288139818B819C81BC
:10351000892B31F03F3F11F080E003C02F3FE1F7EE
:1035200081E0811113C0CE010E94CB0D882371F080
:10353000688179818A810E9464208C010E94BE1F6B
:103540000E94D71EB801CE010E94F517DF91CF91DE
:103550001F910F9108950E9435210E94452180916D
:103560005D0190915E010E94A8220E9458210E9454
:1035700042260E942C2580E090E00E94A21580E067
:1035800090E00C94B8150E9422210C94AB1A0E9472
:103590005920E92FE295EF70F0E03297EE30F10517
:1035A000B8F4ED53FF4F0C944D32803F59F018F4AE
:1035B000803E70F407C0843F59F404C0803E10F090
:1035C000813F31F481E0089593FB882780F90895C5
:1035D00080E00895CF93DF9300D000D01F92CDB745
:1035E000DEB70F900F900F900F900F90DF91CF915B
:1035F0000895CF93DF9300D000D000D0CDB7DEB7D1
:1036000026960FB6F894DEBF0FBECDBFDF91CF91E7
:1036100008951F93CF93DF93C091CC0116E0809162
:10362000CD01C81799F0D0E01C9FF0011D9FF00D4F
:103630001124E253FE4F4081518162817381848164
:1036400095810E94F91A2196C770E9CFDF91CF9139
:103650001F9108954091FE015091FF016091000279
:103660007091010280910202909103020C94F91A68
:10367000CF938091030282958F7009F05FC0809193
:103680000002882309F45AC02091CC01A091CD01F9
:103690006091FE017091FF01809101029091020200
:1036A00031E06F3F09F030E0B32FC6E02A1709F48C
:1036B00045C0009721F07F3F21F44B2F03C041E02C
:1036C00001C040E030E040FD35C0C29FF001C39F23
:1036D000F00D1124E253FE4F418174132BC0408141
:1036E000641328C04281411125C043815481481789
:1036F000590710F441505109481B590B4A3F5105D5
:10370000C8F4809103028F7080618093030286E089
:10371000829FF001839FF00D1124ED52FE4F8081B6
:103720008F70806180838EEF91E00E947F1ACF912D
:103730000C94091B2F5F3F4F2770B8CFCF9108958E
:10374000CF92DF92EF92FF920F931F93CF93DF936D
:10375000CDB7DEB762970FB6F894DEBF0FBECDBF10
:103760008C0185E0F801DE011D9601900D928A958D
:10377000E1F7D8014C9111965C91119712966C91DA
:1037800012971396ED90FC9014977091FE01E091C2
:10379000FF0120910102309102022115310531F023
:1037A000EF3F31F481E07F3F19F403C081E001C0B5
:1037B00080E0B82FB170CB2E80FD6BC1D09000029D
:1037C000DD2009F4F5C0F0910302E216F30638F0AB
:1037D000C701821B930B8A3F910548F09DC020953D
:1037E00030952E0D3F1D2A3F310508F095C08F2FD3
:1037F000807F09F052C0E51314C0741312C0D62E96
:1038000061110FC0FF70F061F09303020E942A1B48
:103810008EEF91E00E947F1A80910302F801858368
:103820007CC1EF2831F05F3F31F481E04F3F19F464
:1038300003C081E001C080E080FD03C081E08627F5
:1038400001C080E0F82FF170FF2E80FF1CC0809136
:10385000CC012091CD0136E0821709F438C190E007
:10386000389FF001399FF00D1124E253FE4F718112
:10387000571306C07081471303C07281671303C0DA
:1038800001968770E9CFD62E662309F446C1809150
:10389000030281608093030255C0E51308C07413CE
:1038A00006C0611104C0D8011596FC93AEC04D87C7
:1038B0005E878D859E856A8B0E94C71A6A898823D8
:1038C00029F1D62E662311F120910302822F8295D1
:1038D0008F7090E002970CF462C08091FE0190918D
:1038E000FF0198878F831986FB86EA862C87CE0195
:1038F000079653C0E51741F14D875E878D859E85FC
:103900006A8B0E94C71A6A89811130C0C8010E945F
:103910007F1ADD24D39401C18F2F807F59F77E2D2C
:10392000F98AE88A89890E94EA1A8EEF91E00E945A
:103930007F1AEEEFF1E086E0DF011D928A95E9F74C
:103940000E942A1BD12CE9C07413D6CF6111D4CFA9
:10395000D8011596FC93C8010E947F1AEEEFF1E0A2
:1039600086E0DF011D928A95E9F7D7C0D62E66233F
:1039700069F220910302822F82958F7090E0029766
:1039800074F08091FE019091FF019A8389831B82DC
:10399000FD82EC822E83CE0101960E947F1A86E082
:1039A000F801AEEFB1E001900D928A95E1F78AC07F
:1039B000E216F30628F0C701821B930B9C0104C09A
:1039C000209530952E0D3F1D2A3F310508F053C03C
:1039D000D62E662309F49ACFE5132CC074132AC09F
:1039E0008091030280FD1DC0982F92959F70C9F0B1
:1039F000D80115968C9315979F3039F09F5F92955B
:103A0000907F8F70892B15968C93C8010E947F1A26
:103A100086E0F801AEEFB1E001900D928A95E1F7F2
:103A200053C086E0F801AEEFB1E001900D928A95A7
:103A3000E1F773C04D875E878D859E850E94C71A0A
:103A4000882381F096E0F801AEEFB1E001900D928D
:103A50009A95E1F78A8B0E94381B0E942A1B8A895B
:103A6000D82E5BC080910302816080930302C8015D
:103A70000E947F1A52C07E2DF98AE88A89890E94A5
:103A8000EA1AEEEFF1E086E0DF011D928A95E9F790
:103A90001BC0662309F43ACF4D875E878D859E85CE
:103AA0000E94C71AD82E882309F430CF86E0F80187
:103AB000AEEFB1E001900D928A95E1F78EEF91E0C3
:103AC0000E94F9160E94381B0E942A1B26C04D87AF
:103AD0005E878D859E850E945920292F22952F7003
:103AE00030E0223031052CF49F7041F0811106C086
:103AF0000CC0243031052CF49F7049F4805E88306E
:103B000020F0C8010E947F1ACF2CDC2C06C0D801FF
:103B100015969C91907F91F7F8CF8D2D62960FB6F8
:103B2000F894DEBF0FBECDBFDF91CF911F910F91F3
:103B3000FF90EF90DF90CF9008951F93CF93DF9386
:103B4000CDB7DEB72C970FB6F894DEBF0FBECDBF52
:103B50004F83588769877A878B879C87CE01079622
:103B60000E94A01B8823C1F02F8138858A859B8500
:103B7000892B31F03F3F11F080E003C02F3FE1F788
:103B800081E0811147C04F81588569857A858B8591
:103B90009C850E94F91A3EC086E0FE013796DE0140
:103BA000119601900D928A95E1F7FF81E8854A858B
:103BB0005B854115510531F0EF3F31F481E0FF3F66
:103BC00019F403C081E001C080E080FD23C0209192
:103BD000CD0130E0C9010196877099276091CC0131
:103BE00070E086179707F1F1F983EA835D834C83D0
:103BF00096E0929FD001939FB00D1124A253BE4F27
:103C0000FE01319601900D929A95E1F78093CD01D6
:103C10000E94091B16E08091CC019091CD0189177B
:103C200079F1189FC001112482539E4F0E94A01B5E
:103C3000882331F1E091CC011E9FF0011124E25361
:103C4000FE4F4081518162817381848195810E9400
:103C5000F91A8091CC0190E00196877099278093A2
:103C6000CC01D9CF0E94C31A1092CD011092CC0181
:103C7000EEEFF1E086E0DF011D928A95E9F7CACF09
:103C80002C960FB6F894DEBF0FBECDBFDF91CF915B
:103C90001F910895EF92FF920F931F93CF93DF939D
:103CA000FC01009709F46FC0F12CEE24E394EF01BE
:103CB00021968491843740F4843008F055C08130D7
:103CC00081F0823021F15FC0853709F447C0C0F12F
:103CD0009CE7980F903708F056C08F770E94BA176C
:103CE00045C08F010E5F1F4FFE01849190E2980F37
:103CF000983050F48770FE2D01C0FF0F8A95EAF7C7
:103D00008F2F0E94382115C00E94FF1614C08F010A
:103D10000E5F1F4FFE01849190E2980F983068F477
:103D20008770FE2D01C0FF0F8A95EAF78F2F0E9442
:103D30003E210E945821E80119C00E94BA17FBCF0A
:103D4000CF010296FE01C491CC2361F0EFE9FFE0C0
:103D50003197F1F700C00000C150F6CFCF010296B5
:103D6000FE01F490EC0102C00E94FF168F2D882303
:103D700041F0EFE9FFE03197F1F700C0000081501A
:103D8000F6CFFE0194CFDF91CF911F910F91FF905D
:103D9000EF90089508950E94CA1E60932B027093BD
:103DA0002C0280932D0290932E020C94AB1A08954E
:103DB0000C94CB1E0F931F9300912B0210912C0299
:103DC00020912D0230912E02602B712B822B932B90
:103DD0001F910F910C94CB1E0F931F9300912B02F8
:103DE00010912C0220912D0230912E02602371231C
:103DF000822393231F910F910C94CB1E0F931F933B
:103E000000912B0210912C0220912D0230912E0254
:103E100060277127822793271F910F910C94CB1E47
:103E200008950C94101F0E94111F60932702709335
:103E300028028093290290932A020C94AB1A60E026
:103E400070E0CB010C94131F41E050E060E070E0A3
:103E500004C0440F551F661F771F8A95D2F7CB0108
:103E6000BA010C94131F41E050E060E070E004C020
:103E7000440F551F661F771F8A95D2F7809127023E
:103E800090912802A0912902B0912A02482B592B27
:103E90006A2B7B2BCB01BA010C94131F41E050E03D
:103EA00060E070E004C0440F551F661F771F8A95BD
:103EB000D2F740955095609570958091270290912A
:103EC0002802A0912902B0912A02482359236A238B
:103ED0007B23CB01BA010C94131F41E050E060E05A
:103EE00070E004C0440F551F661F771F8A95D2F7F4
:103EF0008091270290912802A0912902B0912A0274
:103F0000482759276A277B27CB01BA010C94131F36
:103F10000F931F93009127021091280220912902EC
:103F200030912A02602B712B822B932B1F910F91C2
:103F30000C94131F0F931F930091270210912802D6
:103F40002091290230912A02602371238223932336
:103F50001F910F910C94131F0F931F930091270231
:103F6000109128022091290230912A02602771279E
:103F7000822793271F910F910C94131F08952AE015
:103F8000929F800D1124482F46954695469587703F
:103F9000B1E001C0BB0F8A95EAF785E0489FA00118
:103FA00011244C5F5D4F80E090E070E0FA01E80F73
:103FB000F91FA0819B01082E02C0369527950A940F
:103FC000E2F72170332721952A272B232A272083E4
:103FD00001968530910551F708952AE0929F800D52
:103FE0001124682F669566956695982F977085E0E1
:103FF000689FB00111246C5F7D4F40E050E080E08D
:10400000FB01E40FF51F208130E0092E02C0369538
:1040100027950A94E2F721703327042E01C0220F5E
:104020000A94EAF7822B4F5F5F4F4530510541F705
:104030000895CF92DF92EF92FF920F931F93CF9349
:10404000DF93EC01C0902B02D0902C02E0902D0267
:10405000F0902E028091270290912802A0912902CF
:10406000B0912A02C82AD92AEA2AFB2A0FE110E0D5
:10407000B701A601002E04C0769567955795479520
:104080000A94D2F740FD05C00150110988F780E07D
:1040900007C0BE01802F0E94AC0F0197A9F3802FAB
:1040A000DF91CF911F910F91FF90EF90DF90CF9014
:1040B0000895CF93DF93EC010E941920BE010E9466
:1040C000AC0FDF91CF9108951F93CF93DF93EB0156
:1040D0009091CB01992321F0CB010E94592013C06C
:1040E000882349F0CB010E941920182F682FCE0198
:1040F0000E94BF1F04C0CB010E94ED1F182FBE01FC
:10410000812F0E94AC0FDF91CF911F9108950E94E3
:104110002C2320913202309133028217930750F002
:104120000E942C232091320230913302821B930B88
:104130009C010AC00E942C2320913202309133024C
:1041400020953095280F391F81E02838334108F435
:1041500080E0089580913102859585958595089533
:1041600080913102877008950E942C2320912F02A4
:10417000309130028217930768F00E942C2320911F
:104180002F0230913002821B930B8838934178F4D0
:1041900080E014C00E942C2320912F023091300225
:1041A00020953095280F391F2838334188F38091A6
:1041B000310282FB882780F991E089278170089578
:1041C00098E0899F90011124622B609331020E9434
:1041D000331F0E942C239093300280932F02089566
:1041E000409131028095842380933102982F9770FB
:1041F00089F450E0282F332727FD309542175307C5
:1042000049F08595859585950E944E1F1092300244
:1042100010922F02089590913102977081E009F475
:1042200080E0089580915702089590915702982B4D
:1042300090935702089580959091570298239093F8
:1042400057020895109257020895809156020895DA
:1042500090915602982B90935602089580959091D4
:10426000560298239093560208951092560208958C
:1042700090915502982B90935502089580959091B6
:10428000550298239093550208951092550208956F
:10429000809334020E942C23909333028093320245
:1042A000089510923402109233021092320208954F
:1042B000E0915D01F0915E01809157028083E09171
:1042C0005D01F0915E01808190915602892B80837F
:1042D000E0915D01F0915E01808190915502892B02
:1042E000808380913402882321F10E9487208823D3
:1042F00071F08091580280FF08C08CE399E09F9391
:104300008F930E94690A0F900F900E945121E091B3
:104310005D01F0915E01808190913402892B808350
:1043200080915D0190915E010E94092281110E949D
:10433000512180915D0190915E010C945215809104
:104340003402089590939501809394010895829585
:10435000982F9C7C96959695837344E0849F90015A
:104360001124922B892F8A7A86959575990F892B1E
:1043700008951F93CF93DF931F92CDB7DEB7998334
:104380000E94A721182F9981892F0E94A721212FF0
:1043900030E0322F2227A901482BCA010F90DF916C
:1043A000CF911F9108956DEE7EEF80E090E00E9426
:1043B000873260E082E090E00E94753260E083E046
:1043C00090E00E94753260E084E090E00E947532D7
:1043D00060E085E090E00C94753280E090E00E940F
:1043E0006F3221E08D3E9E4F09F020E0822F08952C
:1043F00082E090E00C94673283E090E00C946732A6
:1044000084E090E00C946732682F84E090E00C9494
:10441000753220E030E040E0FC01E20FF31F5181F3
:1044200051114F5F2F5F3F4F2F313105A9F7842F77
:10443000089520E030E04FEFFC01E20FF31F5281BE
:10444000561799F04F3F19F4511101C0422F2F5FB9
:104450003F4F2E31310581F74F3F39F0FC01E40F1A
:10446000F11D47FDFA9562830895089520E030E03C
:10447000FC01E20FF31F4281461301C012822F5F3D
:104480003F4F2E313105A1F70895262F2695269509
:1044900026952F3178F4FC01E20FF11D677021E0C1
:1044A00030E0062E01C0220F0A94EAF78181822BA8
:1044B000818308958091580280FF0CC01F926F93F2
:1044C0008CE699E09F938F930E94690A0F900F905A
:1044D0000F900F900895262F2695269526952F311B
:1044E00080F4FC01E20FF11D677021E030E0062E40
:1044F00001C0220F0A94EAF72095818128232183A5
:1045000008958091580280FF0CC01F926F938EE433
:1045100099E09F938F930E94690A0F900F900F90DC
:104520000F90089520916F01222329F0209192028B
:1045300027FD0C9445220C94192220916F0122230F
:1045400029F02091920227FD0C946B220C943622C4
:1045500020E030E0FC01E20FF31F11822F5F3F4F9C
:104560002F313105B9F7089580919802843021F1F7
:104570001092590220E488E190E00FB6F894A895D3
:10458000809360000FBE2093600080E00E948F0F38
:1045900083B7817F846083BF83B7816083BF789452
:1045A000889583B78E7F83BF88E10FB6F894809398
:1045B0006000109260000FBE089508950895CF9393
:1045C0000E94DD220E94740A0E94DE22C0E08C2F2D
:1045D0000E94D10A892B29F4CF5FC530C1F780E052
:1045E00001C081E0CF9108950E94C31A0E94461530
:1045F0000C948F0F1F920F920FB60F9211248F936E
:104600009F93AF93BF9380915902811113C0809102
:104610008E0290918F02A0919002B09191024196EA
:10462000A11DB11D80938E0290938F02A0939002E2
:10463000B0939102BF91AF919F918F910F900FBE58
:104640000F901F90189582E084BD93E095BD9AEF7E
:1046500097BD80936E0008952FB7F89480918E02D5
:1046600090918F02A0919002B09191022FBF089576
:104670002FB7F89460918E0270918F028091900212
:10468000909191022FBF0895CF92DF92EF92FF9207
:104690000F931F932FB7F89440918E0250918F0281
:1046A00060919002709191022FBF6A017B01EE240C
:1046B000FF248C0120E030E0C016D106E206F306AC
:1046C00010F441505109481B590BCA011F910F9119
:1046D000FF90EF90DF90CF90089578941F920F9203
:1046E0000FB60F9211248F939F93AF93BF93809136
:1046F0008E0290918F02A0919002B091910201964A
:10470000A11DB11D80938E0290938F02A093900201
:10471000B0939102BF91AF919F918F910F900FBE77
:104720000F901F90189587E797E790930108809363
:1047300000082AE088E190E00FB6F894A8958093ED
:1047400060000FBE20936000FFCF0E94ED21811119
:1047500002C00E94D3210E94F821809358020E9437
:10476000002290E090939302809392020E94FC2199
:10477000682F70E080E090E00C94D81E80915C027D
:1047800080FF0BC06091620185E0689FB001112439
:1047900075956795759567952AC081FF09C06091E9
:1047A000620185E0689FB0011124759567951FC06F
:1047B00082FF07C06091620185E0689FB00111240B
:1047C00016C040915D024423C9F060916101461713
:1047D00088F72091620185E0289F90011124429F73
:1047E000C001439F900D112470E00E94393260385F
:1047F000710540F46115710539F002C065E070E0A3
:10480000862F08958FE7089581E0089580915C02D6
:1048100080FF08C06091600170E07595679575959F
:10482000679521C081FF06C06091600170E07595B9
:10483000679519C082FF04C06091600170E010C0EC
:1048400080915D028823C1F060915F018617A0F717
:1048500090916001989FC001112470E00E9439324C
:104860006038710528F46115710521F0862F0895CF
:104870008FE7089581E0089561E070E0F4CF803F14
:1048800021F40E94BE23819504C0813F29F40E9437
:10489000BE23809360020895823F21F40E94BE23CC
:1048A000819504C0833F29F40E94BE2380935F0258
:1048B0000895893F19F40E94062405C08A3F31F407
:1048C0000E94062481958093610208958B3F21F414
:1048D0000E940624819504C08C3F29F40E9406247E
:1048E000809362020895843F21F480915E0281608A
:1048F00017C0853F21F480915E02826011C0863F1F
:1049000021F480915E0284600BC0873F21F4809186
:104910005E02886005C0883F31F480915E0280614C
:1049200080935E0208958D3F21F480915C02816046
:104930000BC08E3F21F480915C02826005C08F3FE6
:1049400029F480915C02846080935C020895803F2A
:1049500039F48091600287FF6CC01092600269C0D8
:10496000813F29F4809160021816BCF362C09091D7
:104970005F02823F29F497FF5CC010925F0259C02A
:10498000833F19F41916CCF354C0893F41F4809148
:10499000610218160CF04DC0109261024AC08A3FA5
:1049A00029F48091610287FF44C0F6CF8B3F39F430
:1049B0008091620287FF3DC0109262023AC08C3F34
:1049C00029F4809162021816BCF333C0843F21F4AD
:1049D00080915E028E7F17C0853F21F480915E0238
:1049E0008D7F11C0863F21F480915E028B7F0BC0CA
:1049F000873F21F480915E02877F05C0883F31F4B4
:104A000080915E028F7E80935E0213C08D3F21F401
:104A100080915C028E7F0BC08E3F21F480915C02FE
:104A20008D7F05C08F3F29F480915C028B7F80933E
:104A30005C0280915F0281110EC080916002811141
:104A40000AC080916102811106C0809162028111C9
:104A500002C010925D0208958091580283FF7EC0CB
:104A600081EB99E00E94D00980915E021F928F93A2
:104A70008CEA99E09F938F930E94690A8AEA99E0F1
:104A80000E94D00920915F02822F992787FD90957F
:104A90009F932F9387EA99E09F938F930E94690ACF
:104AA00085EA99E00E94D00920916002822F99271F
:104AB00087FD90959F932F9382EA99E09F938F9320
:104AC0000E94690A80EA99E00E94D009209161025F
:104AD000822F992787FD90959F932F938DE999E0D9
:104AE0009F938F930E94690A8BE999E00E94D009F5
:104AF00020916202822F992787FD90959F932F9393
:104B000088E999E09F938F930E94690A85E999E06B
:104B10000E94D00980915D021F928F9382E999E0F3
:104B20009F938F930E94690A80E999E00E94D009BF
:104B300080915C021F928F938DE899E09F938F93F1
:104B40000E94690A8AE899E00E94D0098DB79EB751
:104B50004C960FB6F8949EBF0FBE8DBF8EE592E0C7
:104B60000E9497150E942C2390935B0280935A0217
:104B700008951F93CF93DF9380915A0290915B0227
:104B80000E94442340915D02442321F0209163015F
:104B900030E006C0209164015AE0259F9001112465
:104BA0008217930708F46AC080915F021091600237
:104BB000D0916102C0916202811107C0111105C03C
:104BC000D11103C0CC2309F459C04F3F19F04F5FF6
:104BD00040935D02181624F40E94BE2380935F0266
:104BE00080915F0287FF05C00E94BE23819580935C
:104BF0005F02111624F40E94BE238093600280910C
:104C0000600287FF05C00E94BE23819580936002E9
:104C100020915F02222379F040916002442359F0F1
:104C200055EB25039001112430935F024503C00129
:104C30001124909360021D1624F40E940624809390
:104C400061028091610287FF05C00E940624819560
:104C5000809361021C1624F40E9406248093620251
:104C60008091620287FF05C00E940624819580938F
:104C70006202DF91CF911F910C942C25DF91CF918F
:104C80001F910895EEE5F2E085E0DF011D928A951F
:104C9000E9F710925D0210925C02089584ED9BE0AA
:104CA0000E94D0091F9281E08F931F9285E08F931D
:104CB00086E89BE09F938F930E94690A0F900F9064
:104CC0000F900F900F900F9008958330E9F128F422
:104CD000813061F0823009F10895853009F462C0B5
:104CE00008F449C0863009F474C008952091640125
:104CF000862F90E0820F911D8F3F910520F4620F67
:104D00006093640103C08FEF80936401809164011C
:104D10001F928F938FEB9AE072C020916301862FD0
:104D200090E0820F911D8F3F910520F4620F6093F8
:104D3000630103C08FEF80936301809163011F9231
:104D40008F938DEA9AE05BC020916201862F90E0FC
:104D5000820F911D8F3F910520F4620F60936201D5
:104D600003C08FEF80936201809162011F928F9345
:104D70008AE99AE044C020916101862F90E0820F79
:104D8000911D8F3F910520F4620F6093610103C074
:104D90008FEF80936101809161011F928F9385E86D
:104DA0009AE02DC020916001862F90E0820F911D26
:104DB0008F3F910520F4620F6093600103C08FEF75
:104DC00080936001809160011F928F938CE69AE03E
:104DD00016C020915F01862F90E0820F911D8F3FBA
:104DE000910520F4620F60935F0103C08FEF809301
:104DF0005F0180915F011F928F9381E59AE09F93FD
:104E00008F930E94690A0F900F900F900F90089552
:104E1000833081F128F4813059F08230D1F0089547
:104E2000853009F449C0B8F1863009F456C00895B8
:104E300080916401681720F4861B8093640102C08E
:104E400010926401809164011F928F9382E49AE032
:104E500054C080916301681720F4861B809363011E
:104E600002C010926301809163011F928F9380E3CF
:104E70009AE043C080916201681720F4861B8093FA
:104E8000620102C010926201809162011F928F93B1
:104E90008DE19AE032C080916101681720F4861B91
:104EA0008093610102C010926101809161011F92A3
:104EB0008F9388E09AE021C080916001681720F408
:104EC000861B8093600102C0109260018091600196
:104ED0001F928F938FEE99E010C080915F01681749
:104EE00020F4861B80935F0102C010925F018091C5
:104EF0005F011F928F9384ED99E09F938F930E949F
:104F0000690A0F900F900F900F900895CF93C82FBC
:104F10001F928F9329ED3CE03F932F930E94690AE3
:104F200061E070E080E090E004C0660F771F881FAA
:104F3000991FCA95D2F70E94D81E0F900F900F901C
:104F40000F90CF910C94C31ACF938732A8F58E316E
:104F500008F02EC1803109F49DC0F8F4873009F4BF
:104F600065C0A8F4863009F029C180915802817F7C
:104F70008E7F809358028FE79EE00E94D00980EEDA
:104F800090E10E94D00981E0809364024DC08B3093
:104F9000F1F18E3009F46BC011C1863109F4ADC056
:104FA00020F4813109F4EDC009C1893109F48EC0C2
:104FB0008B3109F449C002C1883349F150F4893278
:104FC00009F4F8C0853309F4F5C0873209F4F2C05A
:104FD000F5C0833409F4EEC028F48A3308F4EEC037
:104FE0008953E9C0883409F0E9C00E94C31A84ECEF
:104FF00090E10E94D0092FEF83ED90E32150804093
:105000009040E1F700C000000E9493230DC086EAA3
:105010009EE059C08BEA90E10E94D009809158022D
:10502000897F877F80935802C1E0CDC0809158026C
:10503000C82FC095C170C0FB80F980935802CC2363
:1050400049F388EB90E1AEC08091580281FBCC27F8
:10505000C0F991E0C927C0FB81F980935802CC23A5
:1050600019F08EE990E125C080E990E12CC0809193
:10507000580282FBCC27C0F991E0C927C0FB82F916
:1050800080935802CC2319F081E890E112C081E7A7
:1050900090E119C08091580283FBCC27C0F991E0C0
:1050A000C927C0FB83F980935802CC2351F085E6D1
:1050B00090E10E94D009809158028160809358024B
:1050C00082C088E590E10E94D009AECF80E79EE0E3
:1050D0000E94D0098AE39EE00E94D00981E09EE010
:1050E0000E94D00988EC9DE00E94D0098DE89DE0E7
:1050F0000E94D0098FE59DE0E6CF81E59DE00E940A
:10510000D0090E9446151F928F9387E39DE09F93DD
:105110008F930E94690A80916F011F928F9380E2A2
:105120009DE09F938F930E94690A809189021F924C
:105130008F938DE09DE09F938F930E94690A8091E9
:10514000920287FB882780F91F928F9385EF9CE05E
:105150009F938F930E94690A0E9438239F938F9395
:105160007F936F938EED9CE09F938F930E94690ACB
:105170008DB79EB746960FB6F8949EBF0FBE8DBFF3
:1051800053CF0E94C31A8091920287FBCC27C0F9AB
:1051900091E0C927C0FB87F980939202CC2329F0C4
:1051A0008EE490E10E94D0090EC083E490E18BCFA1
:1051B0008D5101C080E00E94862736CF81E490E1C6
:1051C0000E94D009C0E08C2FCF91089580E008950F
:1051D00080E008958E518A3030F4E82FF0E0E059F5
:1051E000FE4F8081089580E00895CF93C82F80916D
:1051F0006402813071F020F0823009F448C03CC173
:10520000E0915D01F0915E018081823209F036C14A
:1052100007C0E0915D01F0915E018081823249F426
:105220008C2F0E94E62881112FC08C2F0E94A4276A
:105230002CC08C2F0E94E828811126C0C431E1F0D7
:1052400070F4CB3081F0C031D1F40E944E2681ED54
:105250009CE00E94D00982E08093640215C0C932AC
:1052600059F0C83361F48FE79EE00E94D00985EDC4
:105270009CE00E94D00908C01092640201C18FEC2A
:105280009CE00E94D009FCC081E08170FBC0C43268
:1052900028F5CE3108F0C1C0CB30A1F1D0F4C73031
:1052A00009F0D0C08EE18093640182E380936301B2
:1052B0008AE08093620184E18093610188E08093B9
:1052C000600188E280935F0185E79BE00E94D0093E
:1052D000BCC0C33149F1C431C1F0B4C0CB3409F40E
:1052E000A6C028F4C93289F0C83361F0ABC0C1351B
:1052F00009F49BC0C23509F496C0CE3409F0A2C0AF
:105300006AE09BC00E944E26A0C080916302882361
:1053100019F01092630299C082E89BE00E94D009C4
:1053200081E080936402AEC08CE59BE00E94D009CE
:105330008AE49BE00E94D009809164011F928F93C0
:1053400087E49BE09F938F930E94690A85E49BE02A
:105350000E94D00983E39BE00E94D0098091630101
:105360001F928F9380E39BE09F938F930E94690A23
:105370008EE29BE00E94D0098FE19BE00E94D00961
:10538000809162011F928F938CE19BE09F938F939A
:105390000E94690A8AE19BE00E94D00989E09BE0B3
:1053A0000E94D009809161011F928F9386E09BE05B
:1053B0009F938F930E94690A84E09BE00E94D0092A
:1053C0008FEE9AE00E94D009809160011F928F9326
:1053D0008CEE9AE09F938F930E94690A8AEE9AE07E
:1053E0000E94D00983ED9AE00E94D00980915F016C
:1053F0001F928F9380ED9AE09F938F930E94690A8A
:105400008EEC9AE00E94D0098DB79EB748960FB6F1
:10541000F8949EBF0FBE8DBF18C08C2F0E94EA2843
:105420008093630212C061E003C061E006C06AE0DD
:10543000809163020E94652608C0809163020E94E9
:10544000082703C083E79BE013C080916302882391
:1054500069F01F928F938DE69BE09F938F930E943C
:10546000690A0F900F900F900F9004C08AE69BE09E
:105470000E94D00981E006C01092640280E002C060
:1054800080E003CFCF9108958091880208959FB75F
:10549000F894109267029FBF90919802943009F09F
:1054A00058C09091E9009F702091EC0020FF02C04D
:1054B00020E801C020E0292B94E09093E90090912E
:1054C000EB0090FF43C09091EE0097FF3FC090919A
:1054D0006502992321F09091E80095FF37C0109262
:1054E000650296E03091E80035FD15C030919802D4
:1054F000343061F53091EB0035FD28C0915021F436
:1055000081E08093650222C0EFE9FFE03197F1F777
:1055100000C00000E7CF8093F1008091E80085FD96
:105520000AC08091E80080FFFCCF8091E8008E7770
:105530008093E80006C08FB7F89491E090936702DB
:105540008FBF2F702093E90080E008952F70209383
:10555000E9008FEF08950F931F93CF93DF9300D04F
:105560001F92CDB7DEB78C010E94822D823011F0E0
:10557000843019F583E089831B830A838093E900D3
:105580008FEF9091E800815095FD06C095ED9A95BA
:10559000F1F700008111F5CF8091E80085FF0DC083
:1055A00040E050E063E070E0CE0101960E949F2D44
:1055B0008091E8008E778093E8000F900F900F9015
:1055C000DF91CF911F910F910895CF93DF9300D07A
:1055D0001F92CDB7DEB720919802243031F522E03A
:1055E0002983805891099B838A8383E08093E90013
:1055F0008FEF9091E800815095FD06C095ED9A954A
:10560000F1F700008111F5CF8091E80085FF0DC012
:1056100040E050E063E070E0CE0101960E949F2DD3
:105620008091E8008E778093E8000F900F900F90A4
:10563000DF91CF910895CF93DF93EC010E94822DEB
:10564000823011F08430F9F482E08093E9008FEF2A
:105650009091E800815095FD06C095ED9A95F1F77F
:1056600000008111F5CF8091E80085FF0CC040E07B
:1056700050E065E070E0CE010E949F2D8091E8002F
:105680008E778093E800DF91CF910895CF93DF93D9
:10569000EC010E94822D823019F0843009F047C05D
:1056A00080916F018823E1F08091920287FF18C0FA
:1056B00085E08093E9008FEF9091E800815095FD9F
:1056C00006C095E19A95F1F700008111F5CF809120
:1056D000E80085FF2CC040E050E060E270E017C0B9
:1056E00081E08093E9008FEF9091E800815095FD73
:1056F00006C095ED9A95F1F700008111F5CF8091E4
:10570000E80085FF14C040E050E068E070E0CE01A2
:105710000E949F2D8091E8008E778093E80080E2C0
:10572000FE01A8E6B2E001900D928A95E1F7DF91C3
:10573000CF91089589E091E10E94D009809197026C
:10574000811109C00E94312F0E948E2F8091E200AA
:1057500084608093E200089585E091E10E94D00981
:1057600010929702089581E091E10C94D0098DEF99
:1057700090E10C94D00989EF90E10E94D0090C943B
:10578000F422809166028F5F8093660262E30E943A
:105790002D32911135C010926602809167028823E4
:1057A00079F180919802843049F58091E9008F70F9
:1057B0009091EC0090FF02C090E801C090E0982B1F
:1057C00084E08093E9008091EB0080FF14C0809119
:1057D000EE0087FF10C08091E80085FF03C01092A3
:1057E000F100F9CF8091E80080FF05C08091E800CA
:1057F0008E778093E8009F709093E9001092670283
:10580000089542E061EC81E00E94AB2E42E061EC41
:1058100082E00E94AB2E42E061EC83E00E94AB2E5E
:1058200042E261EC84E00E94AB2E42E261EC85E052
:105830000C94AB2E80919A02833009F455C030F459
:10584000813071F0823009F48EC008958A3009F4F5
:105850007AC08B3009F460C0893009F09CC020C048
:1058600080919902813A09F096C08091E800877F83
:105870008093E80080919D0290919E02892B21F0F7
:1058800060E080E090E003C060E288E692E070E0D3
:105890000E94E82D8091E8008B778093E8000895BE
:1058A00080919902813209F076C080919D02909199
:1058B0009E02009719F0049709F06DC08091E800EE
:1058C000877F8093E8008091E80082FD05C0809189
:1058D00098028111F8CF5FC08091F1008093880217
:1058E0008091E8008B7753C080919902813A09F04A
:1058F00052C080919D0290919E02892B09F04BC06D
:105900008091E800877F8093E8008091E80080FF25
:10591000FCCF80916F0136C0809199028132D9F518
:1059200080919D0290919E02892BA9F58091E800BB
:10593000877F8093E8000E94E02E80919B028093F5
:105940006F010C94C31A80919902813221F58091E4
:10595000E800877F8093E8000E94E02E80919C02FF
:1059600080938902089580919902813AA1F48091EF
:10597000E800877F8093E8008091E80080FFFCCFFB
:10598000809189028093F1008091E8008E77809366
:10599000E8000C94E02E089584B7877F84BF88E1E7
:1059A0000FB6F89480936000109260000FBE80E8FC
:1059B00080936100109261000E94CF150E94312FE8
:1059C0000E948E2F8091E20084608093E20087E441
:1059D0009AE20E94A22178940E9410320E94D3156C
:1059E00085E691E00E94411588EE90E10E94D00981
:1059F00080919802853089F484EE90E10E94D0096C
:105A00000E94B42280919602882391F30E94DF22A3
:105A1000882371F30E94892DEBCF0E940116E8CFF5
:105A20000C94122D292F332723303105A9F06CF463
:105A30002130310509F448C02230310509F049C050
:105A40008DE890E02FE331E148C021323105F9F0D3
:105A50002232310549F13DC099278130910571F01D
:105A60002CF4892BB1F5EBE3F1E10DC08230910507
:105A700041F0039771F5EDE0F1E105C0E9E2F1E1F4
:105A800002C0E3E1F1E1849190E09F0126C065301E
:105A90007105F8F4FB01EE0FFF1FE757FE4F208161
:105AA000318189E090E019C06530710590F4FB0107
:105AB000EE0FFF1FE158FE4F20813181FB01E658B8
:105AC000FE4F808190E009C082E190E02CEC31E152
:105AD00004C080E090E020E030E0FA0131832083D0
