:100000000C9492060C94D6060C94D6060C94D60644
:100010000C94D6060C94D6060C94D6060C94D606F0
:100020000C94D6060C94D6060C94D02A0C94A22BD1
:100030000C941E1E0C94D6060C94D6060C94D60670
:100040000C94D6060C94D6060C94D6060C94D606C0
:100050000C94D6060C94911E0C94D6060C94D606DD
:100060000C94D6060C94D6060C94D6060C94D606A0
:100070000C94D6060C94D6060C94D6060C94D60690
:100080000C94D6060C94D6060C94D6060C94D60680
:100090000C94D6060C94D6060C94D6060C94D60670
:1000A0000C94D6060C94D6060C94D606F409FA09DC
:1000B000FE09010A050A090A0D0A110A160A1A0A96
:1000C0001E0A220A250A290A2D0A310A350A3A0A85
:1000D0000E130E13481348138713A9131815181578
:1000E000EF131815961496140C15181518151315EA
:1000F000A314A314A314A314A314A314A314A31448
:10010000A314A314A314A314A314A314A314A31437
:10011000B514C514CC14D314DD14AC15AC15BF152F
:10012000BF15B515BF15BF15BF15AC15AC15BB1563
:10013000BF15BF15BB15072C2E2C1C2D2E2C1C2DCE
:10014000762C992C1C2DEF2CFE2C0A0025303136F4
:1001500062003A200025303258000A722F632030A6
:100160003132333435363738394142434445460A13
:10017000000129022900016502650001AA02AA0006
:1001800001AB02AB0001A902A90001AE02AE00144E
:100190000013001C00060005001900100018001DC7
:1001A000000F00040011000C0016000900070017E2
:1001B000000B0012001500360037000D000A003851
:1001C0000033001A000E0034001B00000000300253
:1001D000302B00E000E20028004C004B0000000043
:1001E000000130E3000800D25CD35C2C002A004EF2
:1001F00000000001000100010001000100010001F8
:1002000000010001000100010001000100010001E6
:1002100000010001000100010001000100010001D6
:1002200000010001000100010001000100010000C7
:1002300000010001000100010001000100010001B6
:1002400000000000000100010001000100010001A8
:1002500000010001000000240222025200230231AA
:10026000022F002400250026002D001F02500051FF
:10027000004F00200226022100220023002E02252A
:10028000022D021E02210231002F021E001F00203B
:1002900000280000004A003500A500010001002EE2
:1002A0000035023700000000004D00010001000190
:1002B00000010027000100460000000100010001CC
:1002C00000010001003000400041004200430001F5
:1002D00000010001000100010027023D003E003F37
:1002E0000044000100010001000100010030023A59
:1002F000003B003C0045000000010001000100013E
:1003000000010001000100010000000000010001E7
:100310000001000100010001000100010000004493
:10032000454255473A20656E61626C65642E0A004D
:100330000A002530325820006B6579626F61726463
:100340005F7265706F72743A20000A00253032586F
:10035000006B6579626F6172645F7365745F6C6571
:10036000643A20004F6E6573686F743A2074696D4B
:10037000656F75740A0064656C5F6B65795F6269AF
:10038000743A2063616E27742064656C3A202530CE
:1003900032580A006164645F6B65795F6269743A20
:1003A0002063616E2774206164643A2025303258DE
:1003B0000A00290A002575002F002575005D280018
:1003C000256400200025640020002564002000250D
:1003D00064007C0025303258006D6F7573656B6565
:1003E00079205B62746E7C782079207620685D28A5
:1003F0007265702F61636C293A205B006D6B5F77CB
:100400006865656C5F74696D655F746F5F6D617859
:10041000203D2025640A006D6B5F776865656C5F21
:100420006D61785F7370656564203D2025640A0006
:100430006D6B5F74696D655F746F5F6D6178203D92
:100440002025640A006D6B5F6D61785F7370656570
:1004500064203D2025640A006D6B5F696E746572CF
:1004600076616C203D2025640A006D6B5F64656CCD
:100470006179203D2025640A006D6B5F77686565B2
:100480006C5F74696D655F746F5F6D6178203D208E
:1004900025640A006D6B5F776865656C5F6D6178D8
:1004A0005F7370656564203D2025640A006D6B5F95
:1004B00074696D655F746F5F6D6178203D202564A0
:1004C0000A006D6B5F6D61785F7370656564203DD8
:1004D0002025640A006D6B5F696E74657276616CCD
:1004E000203D2025640A006D6B5F64656C61792096
:1004F0003D2025640A000A00257500363A207768F9
:1005000065656C5F74696D655F746F5F6D61783A86
:1005100020000A00257500353A20776865656C5F14
:100520006D61785F73706565643A20000A00257517
:1005300000343A2074696D655F746F5F6D61783A5D
:1005400020000A00257500333A206D61785F7370D2
:100550006565643A20000A00257500323A20696E0C
:1005600074657276616C286D73293A20000A002543
:100570007500313A2064656C6179282A31306D73D9
:10058000293A20000A092D2056616C756573202DCB
:100590000A004D3E004D25643E20003F0073657407
:1005A0002064656661756C740A00433E20007768BC
:1005B0006572652064656C74613A20637572736F4F
:1005C000723D25642C20776865656C3D25640A536F
:1005D000656520687474703A2F2F656E2E77696B8D
:1005E0006970656469612E6F72672F77696B692F17
:1005F0004D6F7573655F6B6579730A000A092D206D
:100600004D6F7573656B6579202D0A4553432F71C6
:100610003A09717569740A313A0964656C6179281F
:100620002A31306D73290A323A09696E746572761F
:10063000616C286D73290A333A096D61785F7370B4
:100640006565640A343A0974696D655F746F5F6D3E
:1006500061780A353A09776865656C5F6D61785F26
:1006600073706565640A363A09776865656C5F740E
:10067000696D655F746F5F6D61780A0A703A097021
:1006800072696E742076616C7565730A643A0973D9
:1006900065742064656661756C74730A75703A09D7
:1006A0002B310A646F776E3A092D310A70677570C5
:1006B0003A092B31300A7067646F776E3A092D3131
:1006C000300A0A7370656564203D2064656C74614E
:1006D000202A206D61785F7370656564202A202868
:1006E000726570656174202F2074696D655F746F29
:1006F0005F6D6178290A003F004D3E2000433E2097
:10070000004C25640A0074696D65725F72656164EE
:10071000333228293A202530346C580A006B657929
:100720006D61705F636F6E6669672E6E6B726F3A94
:100730002025580A006B6579626F6172645F696495
:100740006C653A2025580A006B6579626F617264A6
:100750005F70726F746F636F6C3A2025580A00687F
:100760006F73745F6B6579626F6172645F6C6564EF
:100770007328293A2025580A000A092D205374614C
:10078000747573202D0A004743433A20342E382EC7
:1007900031204156522D4C4942433A20312E382EB9
:1007A0003073766E204156525F415243483A206181
:1007B0007672350A004F5054494F4E533A204C55EB
:1007C0004641204D4F5553454B45592045585452AD
:1007D000414B455920434F4E534F4C4520434F4DBD
:1007E0004D414E44204E4B524F20343039360A0092
:1007F0004255494C443A2022302E362E332D333088
:100800002D676635353733622D646972747922201D
:100810002831393A33393A35322041707220313437
:100820002032303138290A005649443A203078467F
:1008300045454428556E6B6E6F776E2920504944AC
:100840003A20307836303630286B697373626F61C6
:10085000726429205645523A203078303030310ABF
:1008600000444553433A203432206B65797320733A
:100870007472616967687420636F6C732074687543
:100880006D626B6579732064696163726974696311
:1008900061206B65790A000A092D2056657273691B
:1008A0006F6E202D0A000A092D20436F6E736F6C46
:1008B00065202D0A4553432F713A09717569740AF1
:1008C0006D3A096D6F7573656B65790A000A092DBC
:1008D000204D61676963202D0A443A0944656275B9
:1008E00067204D65737361676520546F67676C653A
:1008F0000A583A094D6174726978204465627567D7
:10090000204D6F646520546F67676C65202D205300
:10091000686F77206B657970726573736573206992
:100920006E206D617472697820677269640A4B3A4F
:10093000094B6579626F6172642044656275672056
:10094000546F67676C65202D2053686F77206B6547
:10095000797072657373207265706F72740A4D3AA4
:10096000094465627567204D6F75736520546F6724
:10097000676C650A563A0956657273696F6E0A5359
:100980003A095374617475730A433A09416374698F
:100990007661746520436F6E736F6C65204D6F6474
:1009A000650A46312D4631303A09537769746368D8
:1009B00020746F204C6179657220302D39202846D3
:1009C0003130203D204C30290A302D393A095377F7
:1009D0006974636820746F204C6179657220302DD2
:1009E000390A4553433A0953776974636820746F31
:1009F000204C6179657220302028616C7465726EBC
:100A0000617465206B65792031290A47524156454A
:100A10003A0953776974636820746F204C61796573
:100A20007220302028616C7465726E617465206B71
:100A300065792032290A50415553453A094A756D66
:100A40007020746F20426F6F746C6F6164657220E8
:100A5000285265736574290A4E3A094E4B524F204D
:100A6000546F67676C650A003F004E4B524F3A2047
:100A70006F66660A004E4B524F3A206F6E0A000AAC
:100A80006D6F7573653A206F66660A000A6D6F7543
:100A900073653A206F6E0A000A6B6579626F617246
:100AA000643A206F66660A000A6B6579626F61724C
:100AB000643A206F6E0A000A6D61747269783A2098
:100AC0006F66660A000A6D61747269783A206F6E0B
:100AD0000A000A64656275673A206F66660A000A52
:100AE00064656275673A206F6E0A000A0A4A756D7E
:100AF00070696E6720746F20626F6F746C6F6164D1
:100B000065722E2E2E2000433E20005B735D004B4D
:100B10006579626F6172642073746172742E0A0069
:100B20005B575D005B535D005B525D005B445D00A5
:100B30005B435D0004033000000014036B00690098
:100B40007300730062006F006100720064000000B7
:100B5000100355006E006B006E006F0077006E0092
:100B600000000403090409028D00050100A0FA0930
:100B700004000001030101000921110100012240CC
:100B8000000705810308000A0904010001030102AE
:100B900000092111010001224D0007058203080010
:100BA0000A090402000103000000092111010001EB
:100BB0002236000705830308000A09040300020324
:100BC0000000000921110100012222000705840311
:100BD00020000107050403200001090404000103AB
:100BE00000000009211101000122390007058503D9
:100BF0002000011201100100000008EDFE606001FC
:100C0000000102030105010906A101050719E029F8
:100C1000E7150025019508750181020508190129CC
:100C20000595057501910295017503910105071957
:100C30000029F71500250195F875018102C00631DC
:100C4000FF0974A1010975150026FF00952075089C
:100C500081020976150026FF00952075089102C0D3
:100C600005010980A10185021601002603001A81F1
:100C7000002A8300751095018100C0050C0901A1AF
:100C8000018503160100269C021A01002A9C0275A8
:100C90001095018100C005010902A1010901A1000F
:100CA0000509190129051500250195057501810220
:100CB0009501750381010501093009311581257FF1
:100CC00095027508810609381581257F95017508FB
:100CD0008106050C0A38021581257F95017508816A
:100CE00006C0C005010906A101050719E029E7159D
:100CF000002501950875018102950175088101059E
:100D00000819012905950575019102950175039151
:100D1000010507190029FF150026FF009506750833
:100D20008100C00011241FBECFEFDAE0DEBFCDBFCF
:100D300004B603FE24C08091420290914302A09128
:100D40004402B09145028730904BA740B04BB9F4B4
:100D500010924202109243021092440210924502F5
:100D600014BE84B7877F84BF88E10FB6F894809360
:100D70006000109260000FBEE0E0F8E3099511E01A
:100D8000A0E0B1E0E6E8FBE502C005900D92A633D5
:100D9000B107D9F722E0A6E3B1E001C01D92A23469
:100DA000B207E1F70E94F0270C94C12D0C940000CB
:100DB000FF93EF93E0913601F0913701309709F0FE
:100DC0000995EF91FF910895FC018591803011F014
:100DD000EFDFFBCF0895FF27E0E230E247FF0CC0D2
:100DE000419597FF09C0EDE26095709580959095CB
:100DF000611D711D811D911D27FF02C0219530E3EA
:100E000050E2AA27660F771F881F991FAA1FA417F1
:100E100010F0A41B63955A95A9F7AA3008F0A95FB2
:100E2000A05DAF93F395611571058105910541F7BB
:100E3000ED3211F4EF93F395F21718F43F93F39515
:100E4000FBCF8F91B5DFFA95E1F70895E991F9911C
:100E50008591803021F0853219F0AADFF9CF08950D
:100E600020E0E89455915532C1F3503311F4689461
:100E700055915A3348F4505390F3220F022E220F0B
:100E8000220F200D250FF4CF0EF421958991999111
:100E9000533619F3533729F1533559F1BC018827DB
:100EA0009927E8945C3621F4899199916894559139
:100EB000543639F446EF7EF077FF0DC08FEF9FEF89
:100EC0000AC055374AE039F0583540E121F0523632
:100ED00042E009F00895FF93EF937DDFEF91FF91DA
:100EE000B7CFFF93EF93FC0181918030B9F360DFBE
:100EF000FBCFFF93EF9368DFF1CFDF93CF93CDB7B5
:100F0000DEB72596A3DFCF91DF91089508950C9465
:100F10003B0BCF93DF93CDB7DEB72B970FB6F8948B
:100F2000DEBF0FBECDBF1092CC001092CD0088E185
:100F30008093C90086E08093CA0083E78093CE0047
:100F4000FE0131968BE0DF011D928A95E9F79E0143
:100F5000245F3F4F80E090E0DC014091C80047FDF6
:100F600009C00196A11DB11D813147E29407A10579
:100F7000B10598F34091CE004193E217F30769F76A
:100F80008B85803EB9F4FE01329668E371E0808182
:100F9000A0E28A9FC0011124AF0141505109DA013A
:100FA0004C91842BDB018D939D93BD013296E2170A
:100FB000F30769F70E943D0B81E02B960FB6F8947A
:100FC000DEBF0FBECDBFDF91CF910895E82FF0E0D7
:100FD000EE0FFF1FE85CFE4F808191810895CF9254
:100FE000DF92EF92FF920F931F93CF93DF938AE5E7
:100FF00091E00E94E40628E3E22E21E0F22EC0E018
:10100000D0E035E5C32E31E0D32E0CE411E0DF93C0
:10101000CF93DF92CF920E947D0782E591E00E94FC
:10102000E406F701819191917F010E94DD1C9F935D
:101030008F931F930F930E947D078AE491E00E9493
:10104000E40621968DB79EB708960FB6F8949EBF1A
:101050000FBE8DBFC530D105D1F6DF91CF911F9165
:101060000F91FF90EF90DF90CF9008951092CC00F9
:101070001092CD0088E18093C90086E08093CA0079
:101080000895519A599A80B3806380BB81B380637D
:1010900081BB08950E9486070E9436080C9441087F
:1010A0000C941D090895FC016130D1F018F06230F4
:1010B00031F134C08281882339F00E94501E909310
:1010C0004401809343012AC08091430190914401DF
:1010D0000E94681E8739910520F18AE891E0089501
:1010E00082818111EACF80914301909144010E9455
:1010F000681E87399105C0F080E891E008958281EB
:101100008111DBCF80914301909144010E94681EC0
:101110008739910560F086E791E0089580E090E0DE
:10112000089585E891E008958BE791E0089581E7BF
:1011300091E008950F931F93CF93DF93EC018B0100
:101140006091C8017091C9018091CA019091CB0151
:101150000E94781CC23D2CE5D20729F0C33D9CE5D6
:10116000D90749F14FC0F8018281882369F00E94B4
:10117000501E909344018093430181E0809342018B
:1011800082E00E940A1A10C08091430190914401AC
:101190000E94681E8C32914020F0809142018111A2
:1011A00003C082E00E94251A43E061E082E00E94D1
:1011B000F80AC0E03CC0F8018281882379F00E94DF
:1011C000501E909344018093430181E0809342013B
:1011D0000E940A1A81EE0E944E11E6CF80914301CF
:1011E000909144010E94681E8C32914020F08091C1
:1011F00042018111D9CF81E00E94251A81EE0E941F
:101200005D12D2CF10924201833081F4CE01CA9791
:101210000C9710F0E09751F4F801C28182E0CC23E2
:1012200019F00E94C51203C00E94BE12C1E08C2FAB
:10123000DF91CF911F910F9108956091C801709136
:10124000C9018091CA019091CB010E94781C813024
:1012500061F028F0823029F0833051F008958D9AA2
:1012600005C08D9A599A8C9808958D98599A02C004
:101270008D9A59988C9A089581E008950C949A0853
:101280000E949A152FEF84E39CE02150804090400B
:10129000E1F700C0000087E797E79093010880938B
:1012A00000080C94B71EFF920F931F93CF93DF9308
:1012B0008C01FC01C081D18180916C01811113C02E
:1012C0008281882349F0CE010E94F01AF82E682FFF
:1012D000CE010E94961A04C0CE010E94C41AF82EB4
:1012E000BE018F2D04C0CE010E94F01ABE010E94E3
:1012F000500BEC01B8010E943E09882309F471C12A
:10130000B801CE010E94B10D882309F46AC1B80169
:10131000CE010E944C0E882309F463C1C531FCE55F
:10132000DF0729F50E94E91B382FF80122818091FF
:10133000000190910101222371F03A7A21E009F431
:1013400020E020934501222311F065E301C069E20A
:101350000E94B61D09C020914501222311F065E3CA
:1013600001C069E20E94C11D0E942C1C3AC1C63115
:101370008CE5D80708F0A8C0C130ECE5DE0779F4A9
:10138000F8018281882309F42CC18091F9018160E0
:101390008093F9018FE193E00E94E40622C1C230FC
:1013A000FCE5DF0708F478C0F8018281882309F49E
:1013B0007BC00E94111D811102C00E94F71C0E9477
:1013C000241D90E09093340280933302FE01E35099
:1013D000FC45E231F10520F4EA5AFF4F0C94712DDF
:1013E00080913302816003C08091330282608093D8
:1013F00033024BC0809133028460F9CF8091330275
:1014000013C0809133028061F2CF809133028062F9
:10141000EECF809133028064EACF809133028068FE
:10142000E6CF8091330284608860E1CF80913302FF
:101430008E7FDDCF809133028D7FD9CF80913302B3
:101440008B7FD5CF8091330213C0809133028F7E82
:10145000CECF809133028F7DCACF809133028F7BB4
:10146000C6CF809133028F77C2CF809133028B7FBA
:10147000877FBDCF9091330297FB882780F921E0C9
:10148000822780FB97F990933302809133020E9468
:10149000281D0E949A15A5C0C115DC4569F081E0A0
:1014A00080934A0180934B01C801DF91CF911F9136
:1014B0000F91FF900C943C09F8018281882309F474
:1014C00090C00E9440098DC0CD3CECE5DE0759F587
:1014D000F8018281882361F010924B010E94501E16
:1014E000909349018093480180E20E94BE1279C026
:1014F00080914B01882321F080E20E94C51271C0C7
:1015000080914801909149010E94681E8A3F91058F
:1015100098F780E20E94C51288E20E944E1188E28C
:101520000E945D125EC0CE3CFCE5DF0708F044C0BF
:10153000CB3C8CE5D80719F5F8018281882351F05E
:1015400010924A010E94501E9093470180934601D9
:1015500082E0CBCF80914A0181110FC0809146017A
:10156000909147010E94681E8A3F910530F486E2FF
:101570000E944E1186E20E945D1282E0BECFCC3CFA
:10158000DC4509F08CCFF80182818111A5CF8091D3
:101590004B018111B1CF80914801909149010E9486
:1015A000681E8A3F910508F0A7CF87E20E944E117E
:1015B00087E20E945D12A0CFC03DFCE5DF0731F459
:1015C000F8018281882369F080E009C0C13DDC45D3
:1015D00009F065CFF8018281882319F082E00E942A
:1015E000962880E0DF91CF911F910F91FF90089591
:1015F000CF92DF92EF92FF920F931F9301E010E0E2
:1016000020E030E06801790104C0CC0CDD1CEE1C48
:10161000FF1C8A95D2F7D701C60104C0000F111F25
:10162000221F331F6A95D2F7802B912BA22BB32B4D
:101630000091C8011091C9012091CA013091CB01DC
:10164000082319232A233B23081719072A073B07D6
:1016500049F4842F1F910F91FF90EF90DF90CF906E
:101660000C940A1A842F1F910F91FF90EF90DF9036
:10167000CF900C94251A0C944A080C945008282FEB
:101680002F7041F0822F90E02A3010F44D9608958B
:101690000697089587E290E008950C945208089503
:1016A0009AE0799FF001112492E3899FE00DF11DEA
:1016B0001124E60FF11DEE0FFF1FE157FE4F85913C
:1016C00094910895880F991F81579E4FFC01859131
:1016D00094910895CF93DF930E94500B0E94110DB7
:1016E000EC01811520E5920708F040C0811530E437
:1016F000930708F01BC1883E910508F5803E9105CF
:1017000008F08BC1883A910578F4853A910508F084
:101710009DC08130910509F480C108F437C184303F
:10172000910508F07AC132C18D3B910508F499C04A
:10173000803C910508F42AC1805C9109E9C0C1157B
:1017400080E2D80758F4C11591E0D90708F065C1C7
:10175000C03FD10508F41AC1D0655FC1C11520E3AF
:10176000D20708F0D9C0CE019F70D2C0811535E5EF
:10177000930708F043C0C11584E5D80708F0EDC011
:10178000C11592E5D90708F5C11521E5D20708F082
:10179000D0C02C2F237081E090E002C0880F991FE9
:1017A0002A95E2F79C689E01E4E036952795EA9534
:1017B000E1F72370922BCF70C695C69530E2C39F98
:1017C000E0011124C82BD92B28C18C2F8695869532
:1017D0009E0123703327C115D34508F0AFC090E2B6
:1017E000899FE001112481E090E002C0880F991FD9
:1017F0002A95E2F7C82BD92BDC680FC1811529E5A2
:10180000920780F4811538E5930708F0ABC0C11545
:1018100086E5D80708F0BAC0CF71DD27DC2FCC27CA
:10182000D062FBC0C1159AE5D90708F4A0C0CE016B
:1018300090568115904208F0A9C08D2F8F710E949B
:101840008D0DDD27D0628F71D82BE7C0853A9105C9
:1018500009F49FC0863A910509F49EC0C3E8D0E41C
:10186000DCC0883A910509F49AC0893A910509F4D7
:1018700099C08A3A910509F498C08B3A910509F408
:1018800097C08C3A910509F496C08B3B910509F4F9
:1018900095C08C3B910509F494C08D3A910509F4EB
:1018A00093C0803B910509F492C08E3A910509F4EA
:1018B00091C08F3A910509F490C0813B910509F4DC
:1018C0008FC0823B910509F48EC0833B910509F4DA
:1018D0008DC0843B910509F48CC0853B910509F4CA
:1018E0008BC0863B910509F48AC0873B910509F4BA
:1018F00089C0883B910509F488C0893B910509F4AA
:1019000087C08A3B910509F086C0CAE2D6E485C04B
:101910000E94620BEC0181C0CE019927D3FF03C066
:10192000EC01D86C7AC0EC01D06C77C0DF70D06A63
:1019300074C0DC2FCC27C16FD06A6FC090E2899F42
:10194000E001112481E090E002C0880F991F2A95E0
:10195000E2F7C82BD92BDA6860C0DC2FCC27C46F24
:10196000D06A5BC0D82FCC27C06FD06A56C08C2FEE
:101970008F70806E90E0906A34E0D695C7953A9566
:10198000E1F7CF709C013C2BE90147C0C0E0D0E0FB
:1019900044C0C1E8D0E441C0C2E8D0E43EC0C2EED9
:1019A000D4E43BC0C9EED4E438C0CAEED4E435C0B8
:1019B000C5EBD4E432C0C6EBD4E42FC0C3EBD4E40F
:1019C0002CC0C4EBD4E429C0C7EBD4E426C0CCECD3
:1019D000D4E423C0CDECD4E420C0C3E8D5E41DC0DA
:1019E000CAE8D5E41AC0C2E9D5E417C0C4E9D5E411
:1019F00014C0C1E2D6E411C0C3E2D6E40EC0C4E212
:101A0000D6E40BC0C5E2D6E408C0C6E2D6E405C001
:101A1000C7E2D6E402C0C0E0D4E4CE01DF91CF91AA
:101A200008958238910549F1B0F48133910509F4A4
:101A300059C048F48932910509F44FC08A329105A2
:101A400009F455C008958533910509F441C08933DF
:101A5000910599F00895833E910531F138F4803E67
:101A6000910591F0823E9105A9F00895863E910579
:101A700001F1873E910539F108952091330220FD4F
:101A80003BC021FD39C008958091330280FF34C0EE
:101A900089E341C08091330282FF32C080913302DA
:101AA00084FF2CC080E037C08091330282FD28C0C3
:101AB000F5CF8091330283FF25C08091330284FDEE
:101AC000F1CF87EE28C08091330283FD1BC0F5CF94
:101AD0008091330285FF18C019C08091330285FFC1
:101AE00015C012C08091330286FF12C013C08091CE
:101AF000330286FF0FC00CC080EE0DC083EE0BC01A
:101B000082EE09C086EE07C085E305C089E203C006
:101B100081E301C08AE290E008959091330292FF40
:101B20000DC0282F2871283019F4877F846006C0E3
:101B3000282F2471243011F48B7F886093FF0DC00F
:101B4000282F2871283119F4877E846106C0282F38
:101B50002471243111F48B7E886194FD877E089571
:101B60000895CF93DF93EC01FB018281811102C0C4
:101B700081E040C080915901811125C0C631DC450A
:101B8000B9F70E94B00D81E0809359010E94501E68
:101B9000909358018093570110924C0110924E017E
:101BA00010924D011092500110924F01109252016B
:101BB000109251011092540110925301109256014B
:101BC0001092550116C080915701909158010E94C2
:101BD000681E883C910560F680914C01E82FF0E08A
:101BE000EE0FFF1FE35BFE4FD183C0838F5F8093B7
:101BF0004C0180E0DF91CF910895AF92BF92CF92D8
:101C0000DF92EF92FF920F931F93CF93DF936B01BD
:101C10007C010CE110E0C7E0D0E0BB24B394C430F9
:101C2000D1050CF4B12CD701C601002E04C0B69525
:101C3000A795979587950A94D2F7282F2F70A22EF3
:101C400069F4B11016C080E00E943F0B0E944E1153
:101C500080E00E943F0B0E945D120BC0822F0E9409
:101C60003F0B0E944E118A2D0E943F0B0E945D1275
:101C7000B12C219704501109CF3F8FEFD80779F687
:101C8000DF91CF911F910F91FF90EF90DF90CF9058
:101C9000BF90AF9008950895CF92DF92EF92FF9298
:101CA000CF93DF9300D000D0CDB7DEB77C016B01BE
:101CB0000E94C90E282FF7FE60C0F601828188239A
:101CC00009F45BC0F701EE0FFF1FEE0FFF1FE05D91
:101CD000FC4F65917591859194916B017C01F1E0C8
:101CE000EF1AF108C114D10430E1E306F10408F55C
:101CF000222311F0253041F50E94CC0EC701B60118
:101D000066277C7F8F7099272AE09695879577952F
:101D100067952A95D1F778528F4F9F4F0E94FD0DFE
:101D2000C701B60173708827992774528F4F9F4F50
:101D300020C061157105E1E18E07910528F022238D
:101D400059F0253039F408C061157105F0E18F07AD
:101D5000910528F0213019F40E944B0E0EC06983C2
:101D60007A838B839C830E94CC0E69817A818B81DC
:101D70009C810E94FD0D0E94440F81E00F900F9006
:101D80000F900F90DF91CF91FF90EF90DF90CF9069
:101D9000089580915A010895E0910001F0910101A8
:101DA000808180932C0281FF03C081EE0E945D122E
:101DB00080912C0285FF03C085EE0E945D12809108
:101DC0002C0280FF03C080EE0E945D1280912C02E5
:101DD00084FF03C084EE0E945D1280912C0282FF7A
:101DE00003C082EE0E945D1280912C0286FF03C028
:101DF00086EE0E945D1280912C0283FF03C083EE69
:101E00000E945D1280912C0287FF03C087EE0E9422
:101E10005D1280915A01823011F128F4882341F03B
:101E2000813061F00895843011F1853019F0089502
:101E300082EE01C086EE0E944E11089580EE0E944F
:101E40004E1181EE0E944E1188E10E944E1188E1F0
:101E50000E945D1281EE0E945D1280EE12C082EE41
:101E60000E944E1187E50E944E1187E50AC086EE5A
:101E70000E944E1186EE0E945D1288E10E944E1172
:101E800088E10E945D12089580915A01813049F0E5
:101E900030F0823021F0853051F486EE06C082EEBB
:101EA00004C08CE20E944E118CE20E945D1280916F
:101EB0002C0281FF03C081EE0E944E1180912C0202
:101EC00085FF03C085EE0E944E1180912C0280FF99
:101ED00003C080EE0E944E1180912C0284FF03C04B
:101EE00084EE0E944E1180912C0282FF03C082EE8C
:101EF0000E944E1180912C0286FF03C086EE0E9444
:101F00004E1180912C0283FF03C083EE0E944E117C
:101F100080912C0287FF03C087EE0C944E11089528
:101F20009093600180935F010895E0915F01F091CB
:101F30006001309721F00190F081E02D099480E05C
:101F40000895FF920F931F93CF93DF938C01E0913D
:101F50005F01F0916001309799F10280F381E02DEB
:101F600009958091F90182FF2BC080FF04C088E3AE
:101F700093E00E94E406E80180E2F82E02E313E019
:101F80008091F90180FF0BC088811F928F931F936E
:101F90000F930E947D070F900F900F900F90FA946F
:101FA0002196F110EDCF8091F90180FF09C080E307
:101FB00093E0DF91CF911F910F91FF900C94E40675
:101FC000DF91CF911F910F91FF900895E0915F01F4
:101FD000F0916001309721F00480F581E02D0994A3
:101FE000089520915D0130915E018217930771F091
:101FF00090935E0180935D01E0915F01F09160013B
:10200000309721F00680F781E02D09940895209102
:102010005B0130915C018217930771F090935C0132
:1020200080935B01E0915F01F0916001309721F0B6
:102030000084F185E02D0994089508950C941D10F5
:1020400081E008950E94471E0E9487070C94C91ED4
:10205000CF93C82F8091F90182FF1EC080FF04C07A
:1020600081E593E00E94E4068091F90180FF0CC0B5
:102070001F92CF932CE433E03F932F930E947D0770
:102080000F900F900F900F908091F90180FF04C086
:102090008AE493E00E94E4068C2FCF910C944D0BC0
:1020A0005F926F927F928F929F92AF92BF92CF92E8
:1020B000DF92EF92FF920F931F93CF93DF93CDB7F1
:1020C000DEB72A970FB6F894DEBF0FBECDBF0E94D1
:1020D00089070E942010811111C08FEF89838A83A4
:1020E0001B820E94501E8160782F9D838C834981C2
:1020F0005A816B818D810E940E1157C092E6C92EC4
:1021000091E0D92E00E010E0AA24A394B12C502E27
:10211000802F0E94E6073C01F601E190F1906F01EB
:10212000E826F926E114F10431F40F5F1F4F053062
:10213000110569F7D2CF8091F90181FD0E94EF0767
:1021400020E030E04501022E02C0880C991C0A9460
:10215000E2F7C4018E219F21892B09F12E835F8232
:102160006820792081E0672809F480E088870E9450
:10217000501E8160782F9A8789874E815F8168859C
:102180008A850E940E11F801EE0FFF1FEE59FE4FD7
:1021900080819181882599259183808306C02F5F56
:1021A0003F4F2A30310571F6C0CF0E94DD201091DB
:1021B00061010E94950F1817D9F00E94950F809326
:1021C00061012A960FB6F894DEBF0FBECDBFDF9136
:1021D000CF911F910F91FF90EF90DF90CF90BF9024
:1021E000AF909F908F907F906F905F900C9428108D
:1021F0002A960FB6F894DEBF0FBECDBFDF91CF9108
:102200001F910F91FF90EF90DF90CF90BF90AF9014
:102210009F908F907F906F905F900895CF93DF9302
:10222000CDB7DEB72B970FB6F894DEBF0FBECDBF8C
:102230004F83588769877A878B87DE01119686E0FE
:10224000FD0111928A95E9F785E0FE01379601902C
:102250000D928A95E1F70E948B1B882319F082E08A
:102260000E94C71B0E945E1B81110E94251C498190
:102270005A816B817C818D819E810E9474182B967E
:102280000FB6F894DEBF0FBECDBFDF91CF9108959A
:10229000FC01808191810E94301B0895CF93DF93D0
:1022A0001F92CDB7DEB7682F882309F402C18238A8
:1022B000C1F40E94950F81FDFCC069E3809100018B
:1022C000909101010E94B61D0E942C1C2FEF81EEFF
:1022D00094E0215080409040E1F700C0000069E3A5
:1022E00019C0833811F50E94950F80FDE2C063E5A7
:1022F00080910001909101010E94B61D0E942C1C4A
:10230000EFEFF1EE24E0E150F0402040E1F700C0B3
:10231000000063E580910001909101010E94C11DC0
:102320000F90DF91CF910C942C1C8438C1F40E9443
:10233000950F82FDBEC067E480910001909101017C
:102340000E94B61D0E942C1C8FEF91EEE4E081509C
:102350009040E040E1F700C0000067E4DBCF8CEF85
:10236000860F813A70F4862F69830E94192469814F
:1023700081119FC080910001909101010E94B61DC2
:10238000CFCF80E2860F883048F4677081E001C0CB
:10239000880F6A95EAF70E94EC1BC2CF8BE5860F87
:1023A000833088F4653A29F0663A31F482E890E0A7
:1023B00005C081E890E002C083E890E00F90DF91D3
:1023C000CF910C94F10F88E5860F853108F071C02C
:1023D000683A61F1693A69F16A3A71F16B3A79F1F7
:1023E0006C3A81F16B3B89F16C3B91F16D3A99F15B
:1023F000603BA1F16E3AA9F16F3AB1F1613BB9F1DD
:10240000623BC1F1633BC9F1643BD1F1653BD9F15A
:10241000663BE1F1673BE9F1683BF1F1693BF9F1BA
:102420006A3B09F03FC08AE292E03EC082EE90E053
:102430003BC089EE90E038C08AEE90E035C085EB75
:1024400090E032C086EB90E02FC083EB90E02CC090
:1024500084EB90E029C087EB90E026C08CEC90E004
:1024600023C08DEC90E020C083E891E01DC08AE895
:1024700091E01AC082E991E017C084E991E014C0AC
:1024800081E292E011C083E292E00EC084E292E029
:102490000BC085E292E008C086E292E005C087E2C8
:1024A00092E002C080E090E00F90DF91CF910C9419
:1024B00007100F90DF91CF910895882309F45DC034
:1024C000823879F40E94950F81FF57C069E38091AB
:1024D0000001909101010E94B61D0E942C1C69E32D
:1024E00010C08338B1F40E94950F80FF46C063E5A9
:1024F00080910001909101010E94B61D0E942C1C48
:1025000063E580910001909101010E94C11D0C942E
:102510002C1C843879F40E94950F82FF2EC067E44A
:1025200080910001909101010E94B61D0E942C1C17
:1025300067E4E7CF9CEF980F913A10F4682FE1CF52
:1025400090E2980F983050F4877091E001C0990F95
:102550008A95EAF7892F0E94F21BD9CF9BE5980F45
:10256000933020F480E090E00C94F10F885A85318C
:1025700020F480E090E00C9407100895882321F067
:102580000E94EC1B0C942C1C0895882321F00E94BF
:10259000F21B0C942C1C08958F929F92BF92CF92A5
:1025A000DF92EF92FF920F931F93CF93DF9300D0B0
:1025B000CDB7DEB74C01472FFC01C580C2949FE028
:1025C000C922D280DD2031F079836A830E94091C00
:1025D0006A81498149836A830E94E21B49816A8139
:1025E000882389F0DD2079F080E2860F883058F06A
:1025F00082E00E94C71B0E94E21BBB24B394B82652
:1026000049816A8101C0B12CE42EE2948FE0E82276
:10261000F12CF701E859FF4F0C94712D842F807F26
:10262000142F1F70882311F01295107FDD20C1F048
:10263000112309F4DCC180E2860F883010F06111AB
:1026400005C0812F6A830E94EC1B04C0812F6A831E
:102650000E94FC1B6A816A830E942C1C6A81C7C18C
:10266000862F6A830E945D126A81112309F4E0C1FA
:1026700080E2860F883010F0611104C0812F0E9423
:10268000F21B03C0812F0E94021C0E942C1CD0C18F
:10269000242F207F842F8F70203211F08295807F2D
:1026A000662319F06130B9F022C0DD2049F0CC205A
:1026B00009F452C1F1E0CF124FC10E941C1CB8C1F5
:1026C000CC2021F021E0C21609F4B2C189830E9416
:1026D000251C898147C1DD2029F092E09C1508F472
:1026E000A7C13AC1E1E0EC1508F4A2C13BC1DD206D
:1026F00051F0CC2009F430C1F401958190FF77C1ED
:102700009F70958329C1CC2009F42CC181C1242F4D
:1027100026952695237030E02115310521F02130D2
:10272000310561F085C1DD2021F0862F942F937053
:1027300002C080E090E00E94F10F8AC1DD2021F00C
:10274000862F942F937002C080E090E00E940710C3
:102750007FC1DD20F9F0653F51F0663F71F0643FC5
:10276000A9F480912D0290912E0281600BC080917E
:102770002D0290912E02826005C080912D029091D1
:102780002E02846090932E0280932D02862F0E9449
:10279000631F22C0653F51F0663F91F0643FC9F46A
:1027A00080912D0290912E028E7F05C080912D0286
:1027B00090912E028D7F90932E0280932D0209C05E
:1027C00020912D0230912E022B7F30932E022093E8
:1027D0002D02862F0E94CB1F0E94502039C1842FCA
:1027E000837009F04EC0D1102FC1262F2295269557
:1027F0002770220F220F862F8F70C82ED12CE12C2C
:10280000F12C022E04C0CC0CDD1CEE1CFF1C0A9423
:10281000D2F764FF10C06FE070E080E090E004C089
:10282000660F771F881F991F2A95D2F760957095BC
:102830008095909503C060E070E0CB01242F269531
:102840002695237030E02230310569F023303105C0
:1028500089F06C297D298E299F292130310571F05D
:102860000E94C319F1C06C297D298E299F290E94DD
:10287000D519EAC00E94C319C701B6010E94B11957
:10288000E3C0DD2019F0842F817001C08695882374
:1028900009F4DAC0262F229526952770220F220FE1
:1028A000862F8F70C82ED12CE12CF12C022E04C063
:1028B000CC0CDD1CEE1CFF1C0A94D2F764FF10C088
:1028C0006FE070E080E090E004C0660F771F881F23
:1028D000991F2A95D2F7609570958095909503C0C1
:1028E00060E070E0CB01242F26952695237030E020
:1028F0002230310569F02330310589F06C297D29BA
:102900008E299F292130310571F00E94711A9CC0D7
:102910006C297D298E299F290E94831A95C00E94C7
:10292000711AC701B6010E945F1A8EC0062F10E00F
:10293000F801E05EF109E531F10508F054C0E8580E
:10294000FF4F0C94712D162F1F70842F8F71DD2077
:1029500031F00E940A1A812F0E94BE1269C00E94A3
:10296000251A812F0E94C51263C0DD2049F0F1E0D5
:10297000FC1508F45DC0842F8F710E94441A58C062
:1029800022E02C1508F454C0F6CFDD2039F0842F56
:102990008F710E940A1A4CC0DD20C9F3842F8F71F9
:1029A0000E94251A45C0DD2029F0842F8F710E94D6
:1029B000FB193EC00E94F6193BC0DD2051F0142FD8
:1029C0001F71812F0E940A1A63E0812F0E94B71B9A
:1029D0002FC081E00E94C71B81E08C1548F582E082
:1029E0000E94C71B25C0DD2031F0CC2081F2862F4C
:1029F0000E944E111DC0CC2089F2693349F49FEF2B
:102A0000E7EEF3E09150E040F040E1F700C0000055
:102A1000862F0E945D120CC04F70C4010E945308A3
:102A20000E94211915C04F70C4010E944F0B10C0A5
:102A300028E0E216F10441F05CF09AE0E91AF108AE
:102A4000E2E0EE16F10420F40E94950F0E944D0B77
:102A5000BB20F1F00E94871B80FD1AC0F401128296
:102A60000E94811B0E940A1AC4010E9456150E94EE
:102A7000811B0F900F90DF91CF911F910F91FF90CD
:102A8000EF90DF90CF90BF909F908F900C94251A7D
:102A90000F900F90DF91CF911F910F91FF90EF90CA
:102AA000DF90CF90BF909F908F9008950F931F93CA
:102AB000CF93DF93EC01288139818B819C81892B15
:102AC00031F03F3F11F080E003C02F3FE1F781E09C
:102AD000811113C0CE010E945309882371F06881CF
:102AE00079818A810E943B1B8C010E94951A0E9469
:102AF000AE19B801CE010E94CC12DF91CF911F9187
:102B00000F9108950E94091C0E94191C80910001D8
:102B1000909101010E94CC1D0E942C1C0E946621F4
:102B20000E94502080E090E00E94F10F80E090E051
:102B30000C9407100E94F91B0C9482150E94301B04
:102B4000E92FE295EF70F0E03297EE30F105B8F43E
:102B5000E357FF4F0C94712D803F59F018F4803EDD
:102B600070F407C0843F59F404C0803E10F0813FE8
:102B700031F481E0089593FB882780F9089580E07F
:102B80000895CF93DF9300D000D01F92CDB7DEB76A
:102B90000F900F900F900F900F90DF91CF910895AD
:102BA000CF93DF9300D000D000D0CDB7DEB726960C
:102BB0000FB6F894DEBF0FBECDBFDF91CF91089561
:102BC0001F93CF93DF93C0916D0116E080916E014A
:102BD000C81799F0D0E01C9FF0011D9FF00D112443
:102BE000E159FE4F408151816281738184819581D9
:102BF0000E94D0152196C770E9CFDF91CF911F9128
:102C0000089540919F015091A0016091A1017091A0
:102C1000A2018091A3019091A4010C94D015CF93AF
:102C20008091A40182958F7009F05FC08091A1010D
:102C3000882309F45AC020916D01A0916E01609122
:102C40009F017091A0018091A2019091A30131E0B8
:102C50006F3F09F030E0B32FC6E02A1709F445C0F2
:102C6000009721F07F3F21F44B2F03C041E001C0CA
:102C700040E030E040FD35C0C29FF001C39FF00D41
:102C80001124E159FE4F418174132BC0408164131C
:102C900028C04281411125C04381548148175907FA
:102CA00010F441505109481B590B4A3F5105C8F4D3
:102CB0008091A4018F7080618093A40186E0829F3F
:102CC000F001839FF00D1124EC58FE4F80818F702E
:102CD000806180838FE991E00E945615CF910C941A
:102CE000E0152F5F3F4F2770B8CFCF910895CF9257
:102CF000DF92EF92FF920F931F93CF93DF93CDB7A5
:102D0000DEB762970FB6F894DEBF0FBECDBF8C0161
:102D100085E0F801DE011D9601900D928A95E1F79C
:102D2000D8014C9111965C91119712966C91129763
:102D30001396ED90FC90149770919F01E091A00183
:102D40002091A2013091A3012115310531F0EF3F0F
:102D500031F481E07F3F19F403C081E001C080E0DD
:102D6000B82FB170CB2E80FD6BC1D090A101DD20BA
:102D700009F4F5C0F091A401E216F30638F0C7019A
:102D8000821B930B8A3F910548F09DC0209530959A
:102D90002E0D3F1D2A3F310508F095C08F2F807FF3
:102DA00009F052C0E51314C0741312C0D62E61117D
:102DB0000FC0FF70F061F093A4010E9401168FE92B
:102DC00091E00E9456158091A401F80185837CC191
:102DD000EF2831F05F3F31F481E04F3F19F403C039
:102DE00081E001C080E080FD03C081E0862701C052
:102DF00080E0F82FF170FF2E80FF1CC080916D01E4
:102E000020916E0136E0821709F438C190E0389FB6
:102E1000F001399FF00D1124E159FE4F71815713D4
:102E200006C07081471303C07281671303C0019607
:102E30008770E9CFD62E662309F446C18091A4019C
:102E400081608093A40155C0E51308C0741306C0C7
:102E5000611104C0D8011596FC93AEC04D875E8702
:102E60008D859E856A8B0E949E156A89882329F12B
:102E7000D62E662311F12091A401822F82958F70A6
:102E800090E002970CF462C080919F019091A001A4
:102E900098878F831986FB86EA862C87CE01079652
:102EA00053C0E51741F14D875E878D859E856A8BFE
:102EB0000E949E156A89811130C0C8010E94561572
:102EC000DD24D39401C18F2F807F59F77E2DF98A9D
:102ED000E88A89890E94C1158FE991E00E94561500
:102EE000EFE9F1E086E0DF011D928A95E9F70E94A3
:102EF0000116D12CE9C07413D6CF6111D4CFD801FB
:102F00001596FC93C8010E945615EFE9F1E086E0A2
:102F1000DF011D928A95E9F7D7C0D62E662369F2A4
:102F20002091A401822F82958F7090E0029774F017
:102F300080919F019091A0019A8389831B82FD82D9
:102F4000EC822E83CE0101960E94561586E0F80190
:102F5000AFE9B1E001900D928A95E1F78AC0E216DF
:102F6000F30628F0C701821B930B9C0104C0209537
:102F700030952E0D3F1D2A3F310508F053C0D62E47
:102F8000662309F49ACFE5132CC074132AC08091EC
:102F9000A40180FD1DC0982F92959F70C9F0D801A3
:102FA00015968C9315979F3039F09F5F9295907F7F
:102FB0008F70892B15968C93C8010E94561586E058
:102FC000F801AFE9B1E001900D928A95E1F753C0A5
:102FD00086E0F801AFE9B1E001900D928A95E1F742
:102FE00073C04D875E878D859E850E949E158823C0
:102FF00081F096E0F801AFE9B1E001900D929A9569
:10300000E1F78A8B0E940F160E9401168A89D82E3A
:103010005BC08091A40181608093A401C8010E94DB
:10302000561552C07E2DF98AE88A89890E94C115F9
:10303000EFE9F1E086E0DF011D928A95E9F71BC018
:10304000662309F43ACF4D875E878D859E850E9461
:103050009E15D82E882309F430CF86E0F801AFE919
:10306000B1E001900D928A95E1F78FE991E00E941D
:1030700048110E940F160E94011626C04D875E87D8
:103080008D859E850E94301B292F22952F7030E060
:10309000223031052CF49F7041F0811106C00CC024
:1030A000243031052CF49F7049F4805E883020F084
:1030B000C8010E945615CF2CDC2C06C0D8011596ED
:1030C0009C91907F91F7F8CF8D2D62960FB6F89472
:1030D000DEBF0FBECDBFDF91CF911F910F91FF904B
:1030E000EF90DF90CF9008951F93CF93DF93CDB7EC
:1030F000DEB72C970FB6F894DEBF0FBECDBF4F835F
:10310000588769877A878B879C87CE0107960E94AC
:1031100077168823C1F02F8138858A859B85892B76
:1031200031F03F3F11F080E003C02F3FE1F781E035
:10313000811147C04F81588569857A858B859C852B
:103140000E94D0153EC086E0FE013796DE01119642
:1031500001900D928A95E1F7FF81E8854A855B85AC
:103160004115510531F0EF3F31F481E0FF3F19F493
:1031700003C081E001C080E080FD23C020916E018A
:1031800030E0C90101968770992760916D0170E068
:1031900086179707F1F1F983EA835D834C8396E004
:1031A000929FD001939FB00D1124A159BE4FFE01F3
:1031B000319601900D929A95E1F780936E010E94ED
:1031C000E01516E080916D0190916E01891779F1FB
:1031D000189FC001112481599E4F0E9477168823A1
:1031E00031F1E0916D011E9FF0011124E159FE4F74
:1031F0004081518162817381848195810E94D015C3
:1032000080916D0190E001968770992780936D0100
:10321000D9CF0E949A1510926E0110926D01EFE9BC
:10322000F1E086E0DF011D928A95E9F7CACF2C967E
:103230000FB6F894DEBF0FBECDBFDF91CF911F91C7
:103240000895EF92FF920F931F93CF93DF93FC01AA
:10325000009709F46FC0F12CEE24E394EF0121965E
:103260008491843740F4843008F055C0813081F077
:10327000823021F15FC0853709F447C0C0F19CE777
:10328000980F903708F056C08F770E945D1245C0A6
:103290008F010E5F1F4FFE01849190E2980F9830CE
:1032A00050F48770FE2D01C0FF0F8A95EAF78F2F2B
:1032B0000E940C1C15C00E944E1114C08F010E5F9D
:1032C0001F4FFE01849190E2980F983068F4877048
:1032D000FE2D01C0FF0F8A95EAF78F2F0E94121C66
:1032E0000E942C1CE80119C00E945D12FBCFCF0187
:1032F0000296FE01C491CC2361F0EFE9FFE0319723
:10330000F1F700C00000C150F6CFCF010296FE01D8
:10331000F490EC0102C00E944E118F2D882341F0E1
:10332000EFE9FFE03197F1F700C000008150F6CFE0
:10333000FE0194CFDF91CF911F910F91FF90EF90FD
:10334000089508950E94A1196093CC017093CD0156
:103350008093CE019093CF010C94821508950C9424
:10336000A2190F931F930091CC011091CD012091D0
:10337000CE013091CF01602B712B822B932B1F91AB
:103380000F910C94A2190F931F930091CC011091EF
:10339000CD012091CE013091CF0160237123822392
:1033A00093231F910F910C94A2190F931F930091D7
:1033B000CC011091CD012091CE013091CF01602739
:1033C0007127822793271F910F910C94A2190895BA
:1033D0000C94E7190E94E8196093C8017093C90121
:1033E0008093CA019093CB010C94821560E070E049
:1033F000CB010C94EA1941E050E060E070E004C0B9
:10340000440F551F661F771F8A95D2F7CB01BA016B
:103410000C94EA1941E050E060E070E004C0440F11
:10342000551F661F771F8A95D2F78091C80190912A
:10343000C901A091CA01B091CB01482B592B6A2B2D
:103440007B2BCB01BA010C94EA1941E050E060E01B
:1034500070E004C0440F551F661F771F8A95D2F78E
:1034600040955095609570958091C8019091C901E3
:10347000A091CA01B091CB01482359236A237B2331
:10348000CB01BA010C94EA1941E050E060E070E031
:1034900004C0440F551F661F771F8A95D2F780918D
:1034A000C8019091C901A091CA01B091CB014827F0
:1034B00059276A277B27CB01BA010C94EA190F938D
:1034C0001F930091C8011091C9012091CA01309148
:1034D000CB01602B712B822B932B1F910F910C949E
:1034E000EA190F931F930091C8011091C90120910F
:1034F000CA013091CB0160237123822393231F9152
:103500000F910C94EA190F931F930091C801109129
:10351000C9012091CA013091CB0160277127822710
:1035200093271F910F910C94EA1908952AE0929F16
:10353000800D1124482F4695469546958770B1E039
:1035400001C0BB0F8A95EAF785E0489FA0011124CE
:103550004B555E4F80E090E070E0FA01E80FF91FF4
:10356000A0819B01082E02C0369527950A94E2F7A8
:103570002170332721952A272B232A272083019680
:103580008530910551F708952AE0929F800D11240E
:10359000682F669566956695982F977085E0689F69
:1035A000B00111246B557E4F40E050E080E0FB01FC
:1035B000E40FF51F208130E0092E02C036952795D3
:1035C0000A94E2F721703327042E01C0220F0A94D7
:1035D000EAF7822B4F5F5F4F4530510541F7089561
:1035E000CF92DF92EF92FF920F931F93CF93DF93CF
:1035F000EC01C090CC01D090CD01E090CE01F090D4
:10360000CF018091C8019091C901A091CA01B091E8
:10361000CB01C82AD92AEA2AFB2A0FE110E0B70118
:10362000A601002E04C076956795579547950A9494
:10363000D2F740FD05C00150110988F780E007C0AE
:10364000BE01802F0E946A0B0197A9F3802FDF91A2
:10365000CF911F910F91FF90EF90DF90CF90089541
:10366000CF93DF93EC010E94F01ABE010E946A0B17
:10367000DF91CF9108951F93CF93DF93EB0190914A
:103680006C01992321F0CB010E94301B13C08823C9
:1036900049F0CB010E94F01A182F682FCE010E942A
:1036A000961A04C0CB010E94C41A182FBE01812FA4
:1036B0000E946A0BDF91CF911F9108950E94501EC6
:1036C0002091D3013091D4018217930750F00E94CA
:1036D000501E2091D3013091D401821B930B9C0189
:1036E0000AC00E94501E2091D3013091D401209530
:1036F0003095280F391F81E0243F314008F480E0E5
:1037000008958091D201859585958595089580913C
:10371000D201877008950E94501E2091D0013091EF
:10372000D1018217930768F00E94501E2091D001AA
:103730003091D101821B930B843F914078F480E05B
:1037400014C00E94501E2091D0013091D1012095CB
:103750003095280F391F243F314088F38091D201E2
:1037600082FB882780F991E089278170089598E08D
:10377000899F90011124622B6093D2010E940A1A42
:103780000E94501E9093D1018093D00108954091E2
:10379000D201809584238093D201982F977089F469
:1037A00050E0282F332727FD30954217530749F063
:1037B0008595859585950E94251A1092D1011092C4
:1037C000D00108959091D201977081E009F480E0D2
:1037D00008958091F80108959091F801982B9093A5
:1037E000F801089580959091F80198239093F8013D
:1037F00008951092F80108959091F701982B9093F5
:10380000F701089580959091F70198239093F7011F
:1038100008951092F70108959091F601982B9093D6
:10382000F601089580959091F60198239093F60102
:1038300008951092F60108958093D5010E94501EBC
:103840009093D4018093D30108951092D5011092E2
:10385000D4011092D3010895E0910001F09101018B
:103860008091F8018083E0910001F0910101808155
:103870009091F701892B8083E0910001F091010183
:1038800080819091F601892B80838091D5018823D6
:1038900021F10E945E1B882371F08091F90180FF65
:1038A00008C084E693E09F938F930E947D070F905A
:1038B0000F900E94251CE0910001F0910101808190
:1038C0009091D501892B8083809100019091010115
:1038D0000E942D1D81110E94251C80910001909154
:1038E00001010C94A10F9093370180933601089544
:1038F000CF92DF92EF92FF920F931F936C01EE2411
:10390000FF24C114D104E104F10421F46B017C0112
:1039100080E001C080E133272F2D1E2D0D2D0115D4
:1039200011052105310519F0885F680179019701BA
:103930008601A4E03695279517950795AA95D1F7A6
:10394000011511052105310519F08C5F6801790118
:1039500097018601F2E03695279517950795FA9518
:10396000D1F7011511052105310519F08E5F6801A8
:103970007901B701A6017695679557954795452B2F
:10398000462B472B09F08F5F1F910F91FF90EF900F
:10399000DF90CF9008958295982F9C7C9695969570
:1039A000837344E0849F90011124922B892F8A7A9B
:1039B00086959575990F892B08951F93CF93DF9363
:1039C0001F92CDB7DEB799830E94CB1C182F998127
:1039D000892F0E94CB1C212F30E0322F2227A901F2
:1039E000482BCA010F90DF91CF911F9108956DEE82
:1039F0007EEF80E090E00E94AB2D60E082E090E0FE
:103A00000E94992D60E083E090E00E94992D60E093
:103A100084E090E00E94992D60E085E090E00C94B5
:103A2000992D80E090E00E94932D21E08D3E9E4FE5
:103A300009F020E0822F089582E090E00C948B2D15
:103A400083E090E00C948B2D84E090E00C948B2D1F
:103A5000682F84E090E00C94992D20E030E040E065
:103A6000FC01E20FF31F518151114F5F2F5F3F4F58
:103A70002F313105A9F7842F089520E030E04FEF72
:103A8000FC01E20FF31F5281561799F04F3F19F4D2
:103A9000511101C0422F2F5F3F4F2E31310581F769
:103AA0004F3F39F0FC01E40FF11D47FDFA956283A9
:103AB0000895089520E030E0FC01E20FF31F4281F9
:103AC000461301C012822F5F3F4F2E313105A1F7FF
:103AD0000895262F2695269526952F3178F4FC01FA
:103AE000E20FF11D677021E030E0062E01C0220FC9
:103AF0000A94EAF78181822B818308958091F901EC
:103B000080FF0CC01F926F9384E993E09F938F9383
:103B10000E947D070F900F900F900F900895262F11
:103B20002695269526952F3180F4FC01E20FF11D94
:103B3000677021E030E0062E01C0220F0A94EAF7F8
:103B4000209581812823218308958091F90180FFA8
:103B50000CC01F926F9386E793E09F938F930E9410
:103B60007D070F900F900F900F90089520911201F4
:103B7000222329F02091330227FD0C94691D0C9417
:103B80003D1D20911201222329F02091330227FDAF
:103B90000C948F1D0C945A1D20E030E0FC01E20FC4
:103BA000F31F11822F5F3F4F2F313105B9F7089571
:103BB00080913902843021F11092FA0120E488E1E9
:103BC00090E00FB6F894A895809360000FBE209304
:103BD000600080E00E944D0B83B7817F846083BFCB
:103BE00083B7816083BF7894889583B78E7F83BFC6
:103BF00088E10FB6F89480936000109260000FBEC9
:103C0000089508950895CF930E94011E0E94890788
:103C10000E94021EC0E08C2F0E94E607892B29F427
:103C2000CF5FC530C1F780E001C081E0CF9108953A
:103C30000E949A150E94950F0C944D0B1F920F92A3
:103C40000FB60F9211248F939F93AF93BF938091E0
:103C5000FA01811113C080912F0290913002A0913E
:103C60003102B09132024196A11DB11D80932F0205
:103C700090933002A0933102B0933202BF91AF9182
:103C80009F918F910F900FBE0F901F90189582E01B
:103C900084BD93E095BD9AEF97BD80936E00089523
:103CA0002FB7F89480912F0290913002A0913102A9
:103CB000B09132022FBF08952FB7F89460912F0270
:103CC0007091300280913102909132022FBF08959D
:103CD000CF92DF92EF92FF920F931F932FB7F8943A
:103CE00040912F0250913002609131027091320266
:103CF0002FBF6A017B01EE24FF248C0120E030E01D
:103D0000C016D106E206F30610F441505109481BD3
:103D1000590BCA011F910F91FF90EF90DF90CF9048
:103D2000089578941F920F920FB60F9211248F93DB
:103D30009F93AF93BF9380912F0290913002A091F7
:103D40003102B09132020196A11DB11D80932F0264
:103D500090933002A0933102B0933202BF91AF91A1
:103D60009F918F910F900FBE0F901F90189587E72E
:103D700097E790930108809300082AE088E190E09B
:103D80000FB6F894A895809360000FBE2093600052
:103D9000FFCF0E94111D811102C00E94F71C0E94DA
:103DA0001C1D8093F9010E94241D90E09093340221
:103DB000809333020E94201D682F70E080E090E025
:103DC0000C94AF198091FD0180FF0BC0609105013B
:103DD00085E0689FB0011124759567957595679585
:103DE0002AC081FF09C06091050185E0689FB0018C
:103DF0001124759567951FC082FF07C0609105016A
:103E000085E0689FB001112416C04091FE01442353
:103E1000C9F060910401461788F72091050185E0FB
:103E2000289F90011124429FC001439F900D1124AF
:103E300070E00E945D2D6038710540F461157105D8
:103E400039F002C065E070E0862F08958FE708958D
:103E500081E008958091FD0180FF08C06091030119
:103E600070E0759567957595679521C081FF06C0CF
:103E70006091030170E07595679519C082FF04C0D9
:103E80006091030170E010C08091FE018823C1F0B1
:103E9000609102018617A0F790910301989FC001DD
:103EA000112470E00E945D2D6038710528F46115C1
:103EB000710521F0862F08958FE7089581E0089518
:103EC00061E070E0F4CF803F21F40E94E21E819512
:103ED00004C0813F29F40E94E21E809301020895EC
:103EE000823F21F40E94E21E819504C0833F29F4A1
:103EF0000E94E21E809300020895893F19F40E94F7
:103F00002A1F05C08A3F31F40E942A1F81958093A1
:103F1000020208958B3F21F40E942A1F819504C05C
:103F20008C3F29F40E942A1F809303020895843F46
:103F300021F48091FF01816017C0853F21F48091B9
:103F4000FF01826011C0863F21F48091FF018460EF
:103F50000BC0873F21F48091FF01886005C0883F36
:103F600031F48091FF0180618093FF0108958D3FBE
:103F700021F48091FD0181600BC08E3F21F480917E
:103F8000FD01826005C08F3F29F48091FD018460AE
:103F90008093FD010895803F39F48091010287FFED
:103FA0006CC01092010269C0813F29F48091010226
:103FB0001816BCF362C090910002823F29F497FF6B
:103FC0005CC01092000259C0833F19F41916CCF35B
:103FD00054C0893F41F48091020218160CF04DC084
:103FE000109202024AC08A3F29F48091020287FFA0
:103FF00044C0F6CF8B3F39F48091030287FF3DC068
:10400000109203023AC08C3F29F4809103021816E3
:10401000BCF333C0843F21F48091FF018E7F17C031
:10402000853F21F48091FF018D7F11C0863F21F4EF
:104030008091FF018B7F0BC0873F21F48091FF01AE
:10404000877F05C0883F31F48091FF018F7E809388
:10405000FF0113C08D3F21F48091FD018E7F0BC0C5
:104060008E3F21F48091FD018D7F05C08F3F29F4A3
:104070008091FD018B7F8093FD0180910002811171
:104080000EC08091010281110AC08091020281114B
:1040900006C080910302811102C01092FE010895B2
:1040A0008091F90183FF7EC089ED93E00E94E406D0
:1040B0008091FF011F928F9384ED93E09F938F93E4
:1040C0000E947D0782ED93E00E94E40620910002A9
:1040D000822F992787FD90959F932F938FEC93E0E4
:1040E0009F938F930E947D078DEC93E00E94E406DE
:1040F00020910102822F992787FD90959F932F93FE
:104100008AEC93E09F938F930E947D0788EC93E065
:104110000E94E40620910202822F992787FD909544
:104120009F932F9385EC93E09F938F930E947D073D
:1041300083EC93E00E94E40620910302822F9927EA
:1041400087FD90959F932F9380EC93E09F938F939F
:104150000E947D078DEB93E00E94E4068091FE01B2
:104160001F928F938AEB93E09F938F930E947D071A
:1041700088EB93E00E94E4068091FD011F928F93EB
:1041800085EB93E09F938F930E947D0782EB93E0F2
:104190000E94E4068DB79EB74C960FB6F8949EBF6A
:1041A0000FBE8DBF8FEF91E00E94E60F0E94501E60
:1041B0009093FC018093FB0108951F93CF93DF93AD
:1041C0008091FB019091FC010E94681E4091FE01CC
:1041D000442321F02091060130E006C02091070120
:1041E0005AE0259F900111248217930708F46AC0B2
:1041F0008091000210910102D0910202C09103024D
:10420000811107C0111105C0D11103C0CC2309F4DD
:1042100059C04F3F19F04F5F4093FE01181624F428
:104220000E94E21E809300028091000287FF05C079
:104230000E94E21E819580930002111624F40E94D0
:10424000E21E809301028091010287FF05C00E9457
:10425000E21E81958093010220910002222379F0D1
:1042600040910102442359F055EB2503900111249C
:10427000309300024503C0011124909301021D16E2
:1042800024F40E942A1F809302028091020287FF79
:1042900005C00E942A1F8195809302021C1624F4F7
:1042A0000E942A1F809303028091030287FF05C0AA
:1042B0000E942A1F819580930302DF91CF911F9165
:1042C0000C945020DF91CF911F910895EFEFF1E012
:1042D00085E0DF011D928A95E9F71092FE011092A8
:1042E000FD0108958CEF95E00E94E4061F9281E0A5
:1042F0008F931F9285E08F938EEA95E09F938F9323
:104300000E947D070F900F900F900F900F900F90CD
:1043100008958330E9F128F4813061F0823009F1A9
:104320000895853009F462C008F449C0863009F464
:1043300074C0089520910701862F90E0820F911D8F
:104340008F3F910520F4620F6093070103C08FEF48
:1043500080930701809107011F928F9387EE94E06D
:1043600072C020910601862F90E0820F911D8F3F31
:10437000910520F4620F6093060103C08FEF8093D4
:104380000601809106011F928F9385ED94E05BC03A
:1043900020910501862F90E0820F911D8F3F91059E
:1043A00020F4620F6093050103C08FEF8093050135
:1043B000809105011F928F9382EC94E044C020917C
:1043C0000401862F90E0820F911D8F3F910520F40C
:1043D000620F6093040103C08FEF8093040180910A
:1043E00004011F928F938DEA94E02DC02091030168
:1043F000862F90E0820F911D8F3F910520F4620F70
:104400006093030103C08FEF809303018091030148
:104410001F928F9384E994E016C020910201862FA9
:1044200090E0820F911D8F3F910520F4620F609301
:10443000020103C08FEF80930201809102011F925D
:104440008F9389E794E09F938F930E947D070F904D
:104450000F900F900F900895833081F128F48130F0
:1044600059F08230D1F00895853009F449C0B8F18F
:10447000863009F456C0089580910701681720F42A
:10448000861B8093070102C01092070180910701EB
:104490001F928F938AE694E054C0809106016817BA
:1044A00020F4861B8093060102C0109206018091C1
:1044B00006011F928F9388E594E043C08091050127
:1044C000681720F4861B8093050102C01092050135
:1044D000809105011F928F9385E494E032C0809112
:1044E0000401681720F4861B8093040102C0109217
:1044F0000401809104011F928F9380E394E021C016
:1045000080910301681720F4861B8093030102C089
:1045100010920301809103011F928F9387E194E031
:1045200010C080910201681720F4861B809302015D
:1045300002C010920201809102011F928F938CEFB2
:1045400093E09F938F930E947D070F900F900F90A1
:104550000F900895CF93C82F1F928F9321E037E0DB
:104560003F932F930E947D0761E070E080E090E030
:1045700004C0660F771F881F991FCA95D2F70E9443
:10458000AF190F900F900F900F90CF910C949A1538
:10459000CF938732A8F58E3108F02EC1803109F40F
:1045A0009DC0F8F4873009F465C0A8F4863009F09E
:1045B00029C18091F901817F8E7F8093F90186EA7C
:1045C00098E00E94E40687E09BE00E94E40681E018
:1045D000809305024DC08B30F1F18E3009F46BC031
:1045E00011C1863109F4ADC020F4813109F4EDC068
:1045F00009C1893109F48EC08B3109F449C002C167
:10460000883349F150F4893209F4F8C0853309F44C
:10461000F5C0873209F4F2C0F5C0833409F4EEC066
:1046200028F48A3308F4EEC08953E9C0883409F0CD
:10463000E9C00E949A158BEE9AE00E94E4062FEFE3
:1046400083ED90E3215080409040E1F700C00000EE
:104650000E94B71E0DC08DEC98E059C082ED9AE023
:104660000E94E4068091F901897F877F8093F90198
:10467000C1E0CDC08091F901C82FC095C170C0FBC9
:1046800080F98093F901CC2349F38FED9AE0AEC015
:104690008091F90181FBCC27C0F991E0C927C0FBCB
:1046A00081F98093F901CC2319F085EC9AE025C0BB
:1046B00087EB9AE02CC08091F90182FBCC27C0F9EE
:1046C00091E0C927C0FB82F98093F901CC2319F04E
:1046D00088EA9AE012C088E99AE019C08091F9014D
:1046E00083FBCC27C0F991E0C927C0FB83F98093F5
:1046F000F901CC2351F08CE89AE00E94E406809105
:10470000F90181608093F90182C08FE79AE00E94ED
:10471000E406AECF87E998E00E94E40681E698E0DF
:104720000E94E40688E298E00E94E40680EF97E0A9
:104730000E94E40685EB97E00E94E40687E897E094
:10474000E6CF89E797E00E94E4060E94950F1F924A
:104750008F938FE597E09F938F930E947D078091C1
:1047600012011F928F9388E497E09F938F930E948A
:104770007D0780912A021F928F9385E397E09F9394
:104780008F930E947D078091330287FB882780F9F1
:104790001F928F938DE197E09F938F930E947D07E7
:1047A0000E945C1E9F938F937F936F9386E097E0A8
:1047B0009F938F930E947D078DB79EB746960FB645
:1047C000F8949EBF0FBE8DBF53CF0E949A15809163
:1047D000330287FBCC27C0F991E0C927C0FB87F9DA
:1047E00080933302CC2329F085E79AE00E94E40607
:1047F0000EC08AE69AE08BCF8D5101C080E00E9406
:10480000AA2236CF88E69AE00E94E406C0E08C2F08
:10481000CF91089580E0089580E008958E518A3008
:1048200030F4E82FF0E0ED5EFE4F8081089580E0E7
:104830000895CF93C82F80910502813071F020F048
:10484000823009F448C03CC1E0910001F0910101BF
:104850008081823209F036C107C0E0910001F091F9
:1048600001018081823249F48C2F0E940A24811137
:104870002FC08C2F0E94C8222CC08C2F0E940C2489
:10488000811126C0C431E1F070F4CB3081F0C03129
:10489000D1F40E94722189EF96E00E94E40682E042
:1048A0008093050215C0C93259F0C83361F486EA15
:1048B00098E00E94E4068DEF96E00E94E40608C0AE
:1048C0001092050201C187EF96E00E94E406FCC049
:1048D00081E08170FBC0C43228F5CE3108F0C1C040
:1048E000CB30A1F1D0F4C73009F0D0C08EE1809375
:1048F000070182E3809306018AE08093050184E149
:104900008093040188E08093030188E28093020190
:104910008DE995E00E94E406BCC0C33149F1C43181
:10492000C1F0B4C0CB3409F4A6C028F4C93289F070
:10493000C83361F0ABC0C13509F49BC0C23509F47E
:1049400096C0CE3409F0A2C06AE09BC00E947221DA
:10495000A0C080910402882319F01092040299C02B
:104960008AEA95E00E94E40681E080930502AEC0E9
:1049700084E895E00E94E40682E795E00E94E40660
:10498000809107011F928F938FE695E09F938F93FD
:104990000E947D078DE695E00E94E4068BE595E098
:1049A0000E94E406809106011F928F9388E595E0AE
:1049B0009F938F930E947D0786E595E00E94E40611
:1049C00087E495E00E94E406809105011F928F9391
:1049D00084E495E09F938F930E947D0782E495E0A5
:1049E0000E94E40681E395E00E94E40680910401C0
:1049F0001F928F938EE295E09F938F930E947D0785
:104A00008CE295E00E94E40687E195E00E94E406CE
:104A1000809103011F928F9384E195E09F938F9380
:104A20000E947D0782E195E00E94E4068BEF94E00E
:104A30000E94E406809102011F928F9388EF94E018
:104A40009F938F930E947D0786EF94E00E94E40677
:104A50008DB79EB748960FB6F8949EBF0FBE8DBF18
:104A600018C08C2F0E940E248093040212C061E0B3
:104A700003C061E006C06AE0809104020E948921BF
:104A800008C0809104020E942C2203C08BE995E0AB
:104A900013C080910402882369F01F928F9385E9E7
:104AA00095E09F938F930E947D070F900F900F903A
:104AB0000F9004C082E995E00E94E40681E006C000
:104AC0001092050280E002C080E003CFCF910895EC
:104AD0008091290208959FB7F894109208029FBF11
:104AE00090913902943009F058C09091E9009F707C
:104AF0002091EC0020FF02C020E801C020E0292B1B
:104B000094E09093E9009091EB0090FF43C0909166
:104B1000EE0097FF3FC090910602992321F09091FB
:104B2000E80095FF37C01092060296E03091E80049
:104B300035FD15C030913902343061F53091EB000C
:104B400035FD28C0915021F481E08093060222C0F7
:104B5000EFE9FFE03197F1F700C00000E7CF809365
:104B6000F1008091E80085FD0AC08091E80080FF97
:104B7000FCCF8091E8008E778093E80006C08FB765
:104B8000F89491E0909308028FBF2F702093E90072
:104B900080E008952F702093E9008FEF08950F9320
:104BA0001F93CF93DF9300D01F92CDB7DEB78C0158
:104BB0000E94A628823011F0843019F583E08983A1
:104BC0001B830A838093E9008FEF9091E800815066
:104BD00095FD06C095ED9A95F1F700008111F5CF8E
:104BE0008091E80085FF0DC040E050E063E070E098
:104BF000CE0101960E94C3288091E8008E778093B1
:104C0000E8000F900F900F90DF91CF911F910F91BF
:104C10000895CF93DF9300D01F92CDB7DEB72091D8
:104C20003902243031F522E02983805891099B8391
:104C30008A8383E08093E9008FEF9091E8008150B0
:104C400095FD06C095ED9A95F1F700008111F5CF1D
:104C50008091E80085FF0DC040E050E063E070E027
:104C6000CE0101960E94C3288091E8008E77809340
:104C7000E8000F900F900F90DF91CF910895CF93A0
:104C8000DF93EC010E94A628823011F08430F9F401
:104C900082E08093E9008FEF9091E800815095FDCC
:104CA00006C095ED9A95F1F700008111F5CF80913E
:104CB000E80085FF0CC040E050E065E070E0CE0108
:104CC0000E94C3288091E8008E778093E800DF91EE
:104CD000CF910895CF93DF93EC010E94A6288230F4
:104CE00019F0843009F047C0809112018823E1F067
:104CF0008091330287FF18C085E08093E9008FEF31
:104D00009091E800815095FD06C095E19A95F1F7E4
:104D100000008111F5CF8091E80085FF2CC040E0B4
:104D200050E060E270E017C081E08093E9008FEF0F
:104D30009091E800815095FD06C095ED9A95F1F7A8
:104D400000008111F5CF8091E80085FF14C040E09C
:104D500050E068E070E0CE010E94C3288091E80036
:104D60008E778093E80080E2FE01A9E0B2E0019036
:104D70000D928A95E1F7DF91CF91089580E39BE052
:104D80000E94E40680913802811109C00E94552AD0
:104D90000E94B22A8091E20084608093E20008952C
:104DA0008CE29BE00E94E40610923802089588E2AB
:104DB0009BE00C94E40684E29BE00C94E40680E221
:104DC0009BE00E94E4060C94181E809107028F5FFE
:104DD0008093070262E30E94512D911135C0109219
:104DE000070280910802882379F18091390284308A
:104DF00049F58091E9008F709091EC0090FF02C01E
:104E000090E801C090E0982B84E08093E9008091C5
:104E1000EB0080FF14C08091EE0087FF10C08091EE
:104E2000E80085FF03C01092F100F9CF8091E800FF
:104E300080FF05C08091E8008E778093E8009F7026
:104E40009093E90010920802089542E061EC81E03D
:104E50000E94CF2942E061EC82E00E94CF2942E02B
:104E600061EC83E00E94CF2942E261EC84E00E9481
:104E7000CF2942E261EC85E00C94CF2980913B027E
:104E8000833009F455C030F4813071F0823009F478
:104E90008EC008958A3009F47AC08B3009F460C05E
:104EA000893009F09CC020C080913A02813A09F013
:104EB00096C08091E800877F8093E80080913E0251
:104EC00090913F02892B21F060E080E090E003C0E8
:104ED00060E289E092E070E00E940C298091E80095
:104EE0008B778093E800089580913A02813209F02F
:104EF00076C080913E0290913F02009719F004978E
:104F000009F06DC08091E800877F8093E800809170
:104F1000E80082FD05C0809139028111F8CF5FC0A1
:104F20008091F100809329028091E8008B7753C033
:104F300080913A02813A09F052C080913E029091EC
:104F40003F02892B09F04BC08091E800877F809356
:104F5000E8008091E80080FFFCCF8091120136C00C
:104F600080913A028132D9F580913E0290913F02C0
:104F7000892BA9F58091E800877F8093E8000E9443
:104F8000042A80913C02809312010C949A1580911E
:104F90003A02813221F58091E800877F8093E80012
:104FA0000E94042A80913D0280932A0208958091F4
:104FB0003A02813AA1F48091E800877F8093E8006B
:104FC0008091E80080FFFCCF80912A028093F1005D
:104FD0008091E8008E778093E8000C94042A08956D
:104FE00084B7877F84BF88E10FB6F8948093600010
:104FF000109260000FBE80E8809361001092610003
:105000000E941E100E94552A0E94B22A8091E2003E
:1050100084608093E2008BE695E20E94731C789492
:105020000E94342D0E94221088E091E00E94900F8F
:105030008FE09BE00E94E40680913902853089F47C
:105040008BE09BE00E94E4060E94D81D809137020D
:10505000882391F30E94031E882371F30E94AD28D8
:10506000EBCF0E945010E8CF0C943628292F33271D
:1050700023303105A9F06CF42130310509F448C022
:105080002230310509F049C08DE890E026E63BE08A
:1050900048C021323105F9F02232310549F13DC0D5
:1050A00099278130910571F02CF4892BB1F5E2E656
:1050B000FBE00DC08230910541F0039771F5E4E308
:1050C000FBE005C0E0E5FBE002C0EAE3FBE0849121
:1050D00090E09F0126C065307105F8F4FB01EE0FEA
:1050E000FF1FE45DFE4F2081318189E090E019C00F
:1050F0006530710590F4FB01EE0FFF1FEE5DFE4F72
:1051000020813181FB01E35EFE4F808190E009C088
:1051100082E190E023EF3BE004C080E090E020E0FB
:1051200030E0FA013183208308950895CF93C82F8A
:105130000E949528C0932B02CF9108958091390247
:10514000843011F482E0089581E0089580912B026B
:10515000811102C00C949E28089580E189BD82E1EE
:1051600089BD09B400FEFDCF8091D8008F7D80936A
:10517000D8008091E00082608093E0008091E000A0
:1051800081FDFCCF0895CF92DF92EF92FF920F93B3
:105190001F93CF93DF937C018B01EA010E94252AA4
:1051A000811131C0209731F088819981081B190B3A
:1051B000E80EF91EC12CD12C0115110519F18091B1
:1051C000E80085FD14C08091E8008E778093E800A8
:1051D000209741F0888199818C0D9D1D998388834A
:1051E00085E011C00E94252A882331F30CC0F70105
:1051F00081917F018093F10001501109FFEFCF1AD7
:10520000DF0ADACF80E0DF91CF911F910F91FF90FD
:10521000EF90DF90CF9008952091400230914102AD
:105220002617370748F06115710539F42091E80019
:105230002E772093E80001C0B901FC0120E0611540
:105240007105B9F180913902882309F440C0853095
:1052500009F43FC08091E80083FD3DC08091E800E3
:1052600082FF06C08091E80082FF26C080E008959A
:105270008091E80080FFE3CF2091F3008091F2005D
:1052800090E0922B6115710551F08830910538F44A
:1052900021912093F100615071090196F3CF21E033
:1052A000089709F020E08091E8008E778093E8006D
:1052B000C6CF2111C7CFD6CF80913902882339F0CC
:1052C000853039F08091E80083FFCCCF04C082E0C4
:1052D000089583E0089581E008952091400230917F
:1052E00041022617370748F06115710539F42091FE
:1052F000E8002E772093E80001C0B901FC0120E00E
:1053000061157105C1F180913902882309F441C00A
:10531000853009F440C08091E80083FD3EC0809153
:10532000E80082FF06C08091E80082FF27C080E08D
:1053300008958091E80080FFE3CF2091F3008091F1
:10534000F20090E0922B6115710559F088309105BB
:1053500040F424912093F100319661507109019637
:10536000F2CF21E0089709F020E08091E8008E77E5
:105370008093E800C5CF2111C6CFD5CF80913902E7
:10538000882339F0853039F08091E80083FFCBCF56
:1053900004C082E0089583E0089581E00895982F85
:1053A000973058F59093E900981739F07091EC0018
:1053B0002091ED005091F00003C0242F762F50E093
:1053C00021FF19C03091EB003E7F3093EB0030910C
:1053D000ED003D7F3093ED003091EB003160309374
:1053E000EB007093EC002093ED005093F0002091BF
:1053F000EE0027FF07C09F5FD3CF8F708093E90037
:1054000081E0089580E0089580913A0287FD05C00B
:105410008091E80080FF0EC012C08091E80082FDFC
:1054200005C0809139028111F8CF08958091E8007C
:105430008B7708C0809139028111EACF089580915D
:10544000E8008E778093E80008958091E4009091C1
:10545000E50045E62091EC0020FF21C02091E80006
:1054600020FD21C020913902222389F0253089F0C6
:105470002091EB0025FD0FC02091E4003091E50064
:105480002817390739F3415041F0C901E3CF82E0D1
:10549000089583E0089581E0089584E008952091BF
:1054A000E80022FFDFCF80E008950E94C32A0E9417
:1054B000CB2AE0EEF0E0808181608083E8EDF0E0CF
:1054C00080818F77808319BCA7EDB0E08C918E7FAF
:1054D0008C9380818F7E80831092380208950F9381
:1054E0001F93CF93DF930E94C32A0E94CB2AC8ED5B
:1054F000D0E088818F7788838881806888838881DD
:105500008F7D888319BC1092390210923502109257
:1055100037021092360200EE10E0F80180818B7F96
:10552000808388818160888342E060E080E00E941F
:10553000CF29E1EEF0E080818E7F8083E2EEF0E023
:10554000808181608083808188608083F801808190
:105550008E7F8083888180618883DF91CF911F91C6
:105560000F910895E8EDF0E080818F7E8083E7ED74
:10557000F0E080818160808384E082BF81E080935D
:1055800038020C946F2AE8EDF0E080818E7F8083F2
:105590001092E20008951092DA001092E10008954E
:1055A0001F920F920FB60F9211242F933F934F9398
:1055B0005F936F937F938F939F93AF93BF93EF937B
:1055C000FF938091E10082FF0BC08091E20082FF97
:1055D00007C08091E1008B7F8093E1000E94E52667
:1055E0008091DA0080FF1FC08091D80080FF1BC02F
:1055F0008091DA008E7F8093DA008091D90080FF5D
:105600000DC080E189BD82E189BD09B400FEFDCFF6
:1056100081E0809339020E94BE2605C019BC109219
:1056200039020E94D0268091E10080FF19C080914C
:10563000E20080FF15C08091E2008E7F8093E2003F
:105640008091E20080618093E2008091D8008062C6
:105650008093D80019BC85E0809339020E94DB2634
:105660008091E10084FF30C08091E20084FF2CC073
:1056700080E189BD82E189BD09B400FEFDCF809142
:10568000D8008F7D8093D8008091E1008F7E809339
:10569000E1008091E2008F7E8093E2008091E20041
:1056A00081608093E20080913502882311F084E0CC
:1056B00007C08091E30087FF02C083E001C081E062
:1056C000809339020E94DF268091E10083FF29C088
:1056D0008091E20083FF25C08091E100877F809365
:1056E000E10082E080933902109235028091E1005E
:1056F0008E7F8093E1008091E2008E7F8093E200B4
:105700008091E20080618093E20042E060E080E00E
:105710000E94CF298091F00088608093F0000E9461
:10572000D726FF91EF91BF91AF919F918F917F917C
:105730006F915F914F913F912F910F900FBE0F90FE
:105740001F9018951F920F920FB60F9211242F934E
:105750003F934F935F936F937F938F939F93AF93F9
:10576000BF93CF93EF93FF93C091E900CF708091E7
:10577000EC001092E9008091F000877F8093F000A8
:1057800078940E94DE2B1092E9008091F0008860EE
:105790008093F000C093E900FF91EF91CF91BF910A
:1057A000AF919F918F917F916F915F914F913F91B9
:1057B0002F910F900FBE0F901F9018951F93CF93AE
:1057C000DF93CDB7DEB7AA970FB6F894DEBF0FBE52
:1057D000CDBFEAE3F2E08091F100819322E0E23470
:1057E000F207C9F70E943E278091E80083FF24C199
:1057F00020913A0230913B02832F90E08A3091054C
:1058000008F01AC1FC01E556FF4F0C94712D2038A9
:1058100021F0223809F010C108C080913602909121
:105820003702992389F082600FC080913E028F7009
:10583000873008F001C18093E9008091EB0085FB7F
:10584000882780F91092E9009091E800977F909363
:10585000E8008093F1001092F100CCC0822F8D7F80
:1058600009F0EAC0222319F0223061F0E5C08091EE
:105870003C02813009F0E0C0333009F080E08093D1
:1058800037022AC080913C02811126C020913E023D
:105890002F708FEF820F863008F0CEC02093E90082
:1058A0008091EB0080FF18C08091EB00333011F441
:1058B000806210C080618093EB0081E090E001C0C5
:1058C000880F2A95EAF78093EA001092EA00809107
:1058D000EB0088608093EB001092E9008091E80073
:1058E000877F8093E8000E94042AA6C02111A4C0EB
:1058F00010913C021F778091E3008078812B809388
:10590000E3008091E800877F8093E8000E94042AEA
:105910008091E80080FFFCCF8091E3008068809355
:10592000E300112311F083E001C082E0809339028B
:1059300083C02058223008F07FC080913C029091B3
:105940003D028C3D23E0920779F583E08A838AE269
:1059500089834FB7F894DE01139620E03EE051E2D0
:10596000E32FF0E050935700E49120FF03C0E2954D
:10597000EF703F5FEF708E2F90E0EA3010F0C79627
:1059800001C0C0968D939D932F5F243149F74FBF7F
:105990008091E800877F8093E8006AE270E0CE01A2
:1059A00001960E940C2915C060913E0270913F0241
:1059B000AE014F5F5F4F0E9434280097E9F12091BC
:1059C000E800277F2093E800BC0189819A810E942A
:1059D0006D298091E8008B778093E8002DC02038F6
:1059E00059F58091E800877F8093E8008091350227
:1059F0008093F1008091E8008E7773CF21111CC055
:105A000090913C029230C0F48091E800877F8093AF
:105A1000E800909335020E94042A8091350281119A
:105A200004C08091E30087FF02C084E001C081E0F0
:105A3000809339020E9425278091E80083FF0AC0E5
:105A40008091E800877F8093E8008091EB0080627E
:105A50008093EB00AA960FB6F894DEBF0FBECDBFC1
:105A6000DF91CF911F910895CF93809139028823C0
:105A7000B1F08091E9008F709091EC0090FF02C02E
:105A800090E801C090E0C92FC82B1092E9008091E6
:105A9000E80083FD0E94DE2BCF70C093E900CF9118
:105AA0000895991B79E004C0991F961708F0961B7A
:105AB000881F7A95C9F78095089597FB072E16F4ED
:105AC000009407D077FD09D00E94772D07FC05D000
:105AD0003EF4909581959F4F0895709561957F4F05
